:020000040801F1
:10200000001000202D4C01088108040881080408F4
:10201000810804088108040881080408810804086C
:10202000810804088108040881080408810804085C
:1020300081080408CC2305081D0004088108040851
:10204000810804088108040881080408810804083C
:10205000810804088108040881080408810804082C
:10206000810804088108040881080408893E0108E1
:10207000070104088108040881080408395401088C
:1020800081080408810804088108040881080408FC
:1020900081080408B1720108810804088108040855
:1020A00081080408B17401088D74010881080408CE
:1020B00081080408D5900308619B0308D1B5040882
:1020C000CDB5040809930308DDB50408D5B50408A7
:1020D000399B0308D9B50408A19B03080D9C03088C
:1020E000810804088108040881080408810804089C
:1020F00005200408810804088108040881080408F0
:10210000810804088108040881080408810804087B
:10211000810804088108040881080408810804086B
:10212000810804088108040881080408810804085B
:10213000810804088108040881080408810804084B
:10214000810804088108040881080408952304080C
:102150006D7903088108040863B2040869B20408B1
:10216000810804088108040881080408810804081B
:10217000013800D0FCE77047D0B51BA7D7E900674E
:102180002DED028B04469FED1A8AD4ED007AF4EE11
:10219000C87AF1EE10FA0EDA13A7D7E900679FEDBF
:1021A000158AD4ED007AF4EEC87AF1EE10FA0ED466
:1021B000BDEC028BD0BD17EE900A2AF0EFFB324641
:1021C0003B462AF08BFA2AF003FF2060DDE717EE8A
:1021D000900A2AF0E3FB32463B462AF081FA2AF0C5
:1021E000F7FE2060DDE700BF182D4454FB211940A5
:1021F000DB0F4940DB0F49C038B50022164B51ECCC
:10220000100B2AF023FC10A3D3E9002304460D464B
:102210002AF0ACFE70B90EA3D3E90023204629466C
:102220002AF086FE58B9204629462BF007FA00EE20
:10223000100A38BD47F6FF3300EE103AF9E74FF6C3
:10224000FF33F9E7AFF300800000000000FCEF402F
:102250000000000000FCEFC00000E04000000000B3
:10226000002370B5404C05468AB0E36318B100887E
:10227000236013F083F83D4838F024FD3C4E3D4B7D
:10228000304633603C4B736034F0C3F90021304674
:1022900020F012FF32A3D3E90023A062C4E9062391
:1022A00034F0C2F9D4E9062319431043C4E9060106
:1022B000CDE900014FF0FF334FF0FF32A06A38F054
:1022C0004EFD02224FF0FF31A06A38F04DFD012093
:1022D00012F0D6FD4FF4007300222849A06A38F0AE
:1022E00094FDB0F5007F38D100239422CDE9073367
:1022F00009933C23CDE9033205939623A06A03A9F1
:10230000069320F0F7FF35B3287C13F0EFF905466C
:10231000F0B9A06A38F057FE13F096F912F092FD6A
:1023200020B14FF4807000210FF01CFD12F09AFDD7
:1023300020B14FF4006000210FF014FD34F038FAA2
:10234000012020F00DFF0E4A0E49A06A34F05FF91B
:1023500028460AB070BDFF20D7E70725F8E700BF81
:102360000DD501552000000060360020690345ECC2
:1023700038510020054D020848510020384F0020F8
:10238000B7650408F76504082DE9F74F0446DDE951
:102390000C7B886816469A460D462AF0FFFA80465E
:1023A000B06889462AF0FAFA02460B46404649468A
:1023B0002AF04CFB80468946BAF1000F1BD0DAF8B0
:1023C00008002AF0EBFA02460B46404649462AF03E
:1023D00085F98046B86821F000492AF0DFFA024604
:1023E0000B46404649462AF05BFC12A3D3E9002382
:1023F0002AF0A8FD50B13B46324629462046CDF88A
:1024000030B003B0BDE8F04F27F0CABD064B204600
:102410000093656940F24513044A0549A847012025
:1024200003B0BDE8F08F00BF5F8C0508AC8B0508DA
:10243000074205087B14AE47E17A943F0000000094
:102440002DE9F84F4FF000432DED028B23FA00F0F9
:1024500057EC106B59EC118B93468A462AF08CFA94
:10246000424604460D464B46304639462AF0EEFABF
:1024700002460B46204629462AF0E8FA02460B4659
:1024800043EC182B0AA3D3E900232AF06FFD08B10F
:102490009FED078B59465046B0EE480AF0EE680AA9
:1024A000BDEC028BBDE8F84F27F0C6BFAFF300804C
:1024B0000000C0FFFFFFDF412DE9F0432DED028B4F
:1024C00099460B7F89B0072B04460F461546129E8E
:1024D0001AD140F20241836B984740B9AC4B00934C
:1024E000272365692046AB4AAB49A84799E0B0620B
:1024F00040F202412046A36B984720B9A74B0093B6
:1025000065692B23EEE7F0622A7F3B7F072A08D11B
:10251000092B3DD0072B13D0A14B009365693123C4
:10252000E0E79A4234D0CDE902329E4B01939E4BB4
:102530000093342365692046964A9C49A84770E079
:10254000D5F80C80B8F1000F09D00023CDE9028343
:10255000974B0193974B009365693923EBE741460D
:10256000DFED950A47F6FF709FED940AB36A944A2F
:1025700029F08CF9F36A4146DFED8F0A9FED910A4D
:10258000914A924829F082F9EB68F361AB683362B3
:1025900097F81C80B8F1090F45D0B8F1070F40F04B
:1025A0003781FB684BB10022CDE90232804B0193A9
:1025B000874B009365695B23BDE7EA6842B1CDE9CB
:1025C00002237B4B01937B4B009365695C23B2E74D
:1025D000DFED807A95ED027AB4EEE77AF1EE10FA4B
:1025E000DFED7D6ACCBF77EE677A77EEC77AF4EEDF
:1025F000E67AF1EE10FA7EDD4FF07C53002217EE02
:10260000100ACDE904232AF0C9F9744BCDE902017F
:102610000193734B00935D23656920465D4A7149C0
:10262000A847012086E0287F072832D1EB6813F500
:10263000004F09D0654ACDE902326B4B01935D4BE7
:1026400000936569622376E7DFED687A95ED027A9B
:10265000B4EEE77AF1EE10FADFED656ACCBF77EE03
:10266000677A77EEC77AF4EEE67AF1EE10FA66DD75
:102670000022604B17EE100ACDE904232AF08EF9F0
:102680005D4BCDE902010193554B009365696323CE
:10269000C3E7092812D0666927F046FC0546404684
:1026A00027F042FC554BCDE9025001933D4B00937E
:1026B00066232046374A5249B047B2E7EB6813F128
:1026C000800F0AD06FF07F02CDE902324D4B0193AB
:1026D000384B0093656967232DE795ED027ADFEDAE
:1026E0004A7AB4EE677AF1EE10FA28D0474B00939D
:1026F00065696823F6E6B8682AF050F90446D9F807
:1027000000000D462AF04AF902460B4620462946AB
:102710002AF09CF91CA3D3E900232AF0C1FA06F1A0
:10272000080841EC100B404607A927F03DFE079B27
:10273000F360002009B0BDEC028BBDE8F083B868FF
:102740002AF02CF941EC180BD9F800002AF026F9F0
:1027500006F1080441EC100BB0EE481AF0EE681ACE
:102760002146052007AAFFF76BFE07991F22F1609B
:10277000052039F038F82AF0FFF801F100412AF07D
:10278000FFFBB061D5E700BF140014001400243F24
:102790005C9F0508DF9E050807420508739F050832
:1027A000038D05084B9E0508589E050874420508D0
:1027B0005D8C0508969F050880000038A000203930
:1027C0007FBB04088000803771BB04080080FFFFD6
:1027D000B09F0508000000386F120333E99F050819
:1027E000F59F0508C99F05080AA005080000803765
:1027F0006F1283320000F03E11A005081DA00508ED
:10280000319E050829A005080000803B2EA0050880
:10281000B8F1010F0FD04046666927F085FB0546E9
:10282000012027F081FB104BCDE9025001930F4BA3
:10283000009385233DE7287F01280ED0666927F0A5
:1028400073FB0546404627F06FFB074BCDE902506E
:102850000193074B009386232BE7D9F800002AF059
:102860009DF8C6E9000164E70C9B0508589E050821
:102870004B9E0508000000002DE9F04FC76997B096
:102880008346209E08910C92129355EC104B8DEDCF
:10289000000B7FB910202BF059FC0246CBF81C002E
:1028A00020B9A74BEF21A7482BF018FCC0E901770E
:1028B0000760C760DBF81C30196859B15A680123FA
:1028C000584693404A608B602CF0E2FADBF81C30EB
:1028D00000221A602B1EB7BF23F000430023012201
:1028E0000193A8BF3360019F974BB8BF3260BB43D1
:1028F00019D142F20F73129A1360C7F313032343E3
:1029000000F0DB85219B53B9904B21E0904B039362
:102910000833219A1360039817B0BDE8F08F8B4BF2
:1029200003930333F5E79DED007B0022002351EC78
:10293000170B8DED0A7B2AF0F1FA804650B1012386
:10294000129A1360219B13B1824B219A1360824B20
:102950000393E0E7C7F30A5614AA15A958469DED5C
:102960000A0B2CF01DFD0290002E76D00B9BA6F2D8
:10297000FF36CDF84C80C3F3130343F07F53DDE9FA
:102980000A0143F4401319460022744B29F0A6FEB5
:1029900065A3D3E900232AF059F865A3D3E90023FE
:1029A00029F09EFE04460D46304629F0E5FF62A35D
:1029B000D3E900232AF04AF802460B46204629466E
:1029C00029F08EFE04460D462AF0DAFA0022074668
:1029D0000023204629462AF0ABFA40B1384629F0B8
:1029E000CBFF22462B462AF099FA00B9013F162F59
:1029F00052D85B4B03EBC703DDE90A01D3E900239F
:102A00002AF096FA002849D0013F00231193149B25
:102A10009B1B5A1E4CBFC3F101030023079245BF05
:102A20000693002306930793002F39DB079B10972B
:102A30003B44079300230993089B092B66D8052B79
:102A4000C5BF043B002401240893089B023B032BD1
:102A500067D8DFE803F02D3A3859DDE914631E44E6
:102A600006F23243202BC9BFC3F14003C3F1200358
:102A70009F4006F21243D8BF04FA03F006F1FF3676
:102A8000C4BF24FA03F347EA030029F065FF0122DB
:102A9000A1F1F873139276E70123B7E71190B6E737
:102AA000069BDB1B06937B42099300231093C3E72D
:102AB00000230D930C9B002B56DC012399461A46EC
:102AC00004930C920CE00123F3E700230D930C9B7D
:102AD000FB1803F1010904934B46012BB8BF0123F6
:102AE000DBF81C000021042202F114059D423FD9AD
:102AF000416058462CF08CF9039000283BD1194BCB
:102B0000024640F2AF11CEE60123DFE701240023A5
:102B10000D9408934FF0FF3300229946049312233B
:102B2000CFE701230D93F5E761436F63A787D23F9A
:102B3000B3C8608B288AC63FFB799F501344D33FAC
:102B400086AB05089DAB05080000F07FD499050809
:102B50007DAB05085E8C05085D8C05080000F83F1C
:102B600098AC0508F6AB05080C9B99460493B7E7AB
:102B700001315200B8E7DBF81C30B9F10E0F039AAF
:102B80001A606FD8002C6DD0002F36DD07F00F02D1
:102B9000A04BF8054FEA271403EBC20393ED007B2B
:102BA0008DED0E7B17D59C4B04F00F044FF00308FE
:102BB000D3E90823DDE90A012AF072F8CDE9000122
:102BC000954D5CB9DDE90E23DDE900012AF068F8D6
:102BD000CDE900012BE04FF00208F1E7E10709D54C
:102BE00008F10108DDE90E01D5E9002329F02EFFE7
:102BF000CDE90E0164100835E3E700F007817C425F
:102C0000844B854D4FF0020804F00F02241103EBB2
:102C1000C203DDE90A01D3E9002329F017FF0023ED
:102C2000CDE90001002C40F0E580002BD0D1119BB4
:102C3000DDE90045002B00F04C810022774B204657
:102C400029462AF075F9002800F04381B9F1000FF8
:102C500000F03F81049B002B00F3E480DDE90A349F
:102C6000CDE90034159B002B02DB0E2F40F342828E
:102C70000D9A002A40F06782099C0025DDF8188033
:102C8000B8F1000F0DD0079B002B0ADD4345069AD3
:102C9000A8BF4346D21AA8EB03080692079AD31A94
:102CA0000793099B0BB30D9B002B00F0A682002C11
:102CB00000F0A1822946224658462CF013FA029AC7
:102CC0000146054658462CF063F9029906465846D7
:102CD0002CF0DEF8099B1B1B099300F09182099AE6
:102CE000314658462CF0FEF90290012158462CF04E
:102CF00039F9109B0446002B00F084821A460146E5
:102D000058462CF0EFF9089B0446012B03DC009B8E
:102D1000002B00F07C820026236904EB83031869F2
:102D20003AF0EAFFC0F120001096079B184410F01B
:102D30001F0000F09182C0F12003042B40F3818238
:102D4000C0F11C00069B034480440693079B034488
:102D50000793069B002B05DD1A46029958462CF076
:102D60001BFA0290079B002B05DD21461A465846A8
:102D70002CF012FA0446119B002B00F076822146BB
:102D800002983BF008F8002880F26F8200230A22A4
:102D9000029958462CF09EF80D9B7E1E0290002B47
:102DA00000F05C82002329460A2258462CF092F853
:102DB000049B0546002B03DC089B022B00F35E827C
:102DC000B8F1000F05DD2946424658462CF0E4F9DB
:102DD0000546109B002B00F0D082696858462CF005
:102DE00017F80746002840F07F820D4B024640F25C
:102DF000EF2158E5E20706D508F10108D5E90023DF
:102E000029F024FE0123641008350BE74FF0020877
:102E10000DE700BF98AC050870AC05080000F03F56
:102E2000F6AB050820460022AC4B294629F00EFEE1
:102E30007E1E08F10108049CCDE90001404629F0FE
:102E40009BFDDDE9002329F001FEA54B002229F0BE
:102E500047FCA1F15073CDE90E010F93002C3BD13B
:102E60000022A04BDDE9000129F038FC02460B46A8
:102E7000CDE90023DDE90E232AF078F8002840F0A0
:102E80005781DDE90E2101F10043DDE900012AF05F
:102E90004FF800283FF4E2AE002425460C9BDDF8F5
:102EA0000CA0DE434FF00008214658462BF0F0FFFF
:102EB000002D00F0A980B8F1000F05D0A84503D07F
:102EC000414658462BF0E4FF294658462BF0E0FFD8
:102ED0009AE03E464C46B1E7834B03EBC40353E90B
:102EE0000201039B1C440D9B002B4AD002460B465B
:102EF00000207E4929F0D4FEDDE90E2329F0EEFB07
:102F0000DDF80CA0CDE90E01DDE900012AF038F86A
:102F1000054629F031FD024630350B46DDE900015A
:102F200029F0DCFB0AF8015B02460B46CDE9000103
:102F3000DDE90E012AF01AF8002865D100206C495D
:102F4000DDE9002329F0CAFB02460B46DDE90E014C
:102F50002AF00CF8002840F00D81A24500F0EA802C
:102F600000225E4BDDE90E0129F070FD00225B4B73
:102F7000CDE90E01DDE9000129F068FDCDE9000190
:102F8000C2E7DDE90E2329F061FDA046DDF80CA0C3
:102F9000CDE90E01DDE9000129F0F2FF054629F037
:102FA000EBFC024630350B46DDE9000129F096FBCB
:102FB0000AF8015B02460B46A245CDE900234FF01B
:102FC000000223D1494BDDE90E0129F089FB0246BD
:102FD0000B46DDE9000129F0C9FF002840F0CA8056
:102FE00000204249DDE90E2329F078FB02460B461A
:102FF000DDE9000129F09CFF70B1C24608F1FF38FD
:103000001AF8013C302BF8D0374655E0334B29F005
:103010001DFDCDE90001BDE7DDE90A34CDE900344D
:10302000159B002BFFF628AE0E2F3FF725AE2E4B3B
:1030300003EBC70393ED007B0C9B002B8DED047B12
:1030400002DAB9F1000F64D0DDF80CA0DDE900452B
:10305000DDE904232046294629F022FE29F090FFCD
:10306000064629F089FCDDE9042329F0EFFC02463D
:10307000204606F130040B46294629F02FFB0AF8BA
:10308000014B039C02460B46AAEB0404A14540F009
:10309000828029F025FB04460D46DDE9042329F052
:1030A00065FF002865D120462946DDE9042329F083
:1030B00035FF08B1F3075CD4029958462BF0E8FEBF
:1030C000002301378AF80030129B1F60219B002BE0
:1030D0003FF421ACC3F800A01DE400BF0000244071
:1030E00000001C400000144098AC05080000E03FC0
:1030F0000000F03FA24B03EBC70393ED007B0C9B5A
:10310000002B8DED047B9FDAB9F1000F9CDC7FF47E
:10311000C3AE00229B4BDDE9040129F097FCDDE9F9
:10312000002329F019FF044600287FF4B5AE3E467F
:103130002546B4E0DDE90A34CDE90034159B002BC7
:1031400001DB0E2FD6DD089A012A36DC139A82B3F2
:1031500003F23343099CDDF81880069A0121584692
:103160001A440692079A1A4407922BF0FBFE054672
:1031700086E53E4653469A4613F8012D392A06D174
:10318000039A9A42F7D13022039901360A701A78CD
:1031900001321A7038E700227B4B29F057FC0022DD
:1031A000002304460D4629F0B9FE00283FF450AF35
:1031B00082E7149BC3F13603CCE709F1FF34099B86
:1031C000A34208DBB9F1000FA3EB04040EDBDDF82A
:1031D00018804B46C1E7099B109AE31A0994DDF861
:1031E000188000241A444B461092B6E7069BA3EBC6
:1031F00009080023B1E7029E71E5099A029970E57A
:10320000029672E5089B012B17DC009BABB9019B72
:10321000C3F313039BB9019B23F00046360D36051B
:1032200036B1069B012601330693079B01330793B2
:10323000109B002B7FF470AD1096012075E50026E1
:10324000F6E73FF486AD1C33069A1A44984406927A
:10325000079A1A4407927CE50346F4E7049B002B87
:103260002BDC089B022B09DC27E0B9F1000F1DDCE9
:10327000089B022B1ADD3E46CDF81090049B002BD4
:103280007FF40CAE2146052258462BF023FE014662
:10329000044602983AF07FFD00287FF7FFADDDF885
:1032A0000CA0312301360AF8013BFBE50D9B3E469D
:1032B000CDF81090002B7FF483AD039F2146029838
:1032C0003AF08DFC039B00F13009049A07F8019B4A
:1032D000FB1A9A4240F3CB8000230A2202995846F7
:1032E0002BF0F8FD0290E9E72A6905F10C010C309A
:1032F000023292003AF05EFC0122394658462BF029
:103300004BFF039BA846054603F1010ADDE90323B1
:1033100013440793009B03F0010309930AF1FF3361
:103320002146029804933AF05AFC4146069000F177
:10333000300902983AF02FFD2A46214607465846A2
:103340002BF096FFC268014602B358462BF0A0FD51
:10335000002F3ADA0122029958462BF01DFF214630
:1033600002903AF018FD002803DC29D119F0010F72
:1033700026D0B9F1390F1DD132E02846C1E700BF90
:1033800098AC050800001440000024400A90029800
:103390003AF001FD0A990C9058462BF079FD0C9AF1
:1033A0005ABB089B53B9099B43B9B9F1390F17D0E0
:1033B000002F05DD069B03F1310901E0002F2ADA19
:1033C000DDF810A00AF8019B6EE5089B3B4304D191
:1033D000009B03F00103002BBCD0B9F1390F36D1AB
:1033E000049F392307F8013BBA46013F1AF8013C14
:1033F000392B5AD001333B7056E5002F06DB089B72
:103400003B4306D1009B03F0010313B9002AA1DC62
:10341000D6E7002AE1DC079B57460AF8019C534592
:103420002ED000230A22029958462BF053FDA845BE
:1034300002904FF000034FF00A02414658460BD16C
:103440002BF048FD804605460AF1010A66E7DDF8E3
:1034500010A009F10109B5E72BF03CFD2946804693
:1034600000230A2258462BF035FD0546ECE7049B65
:103470004FF00008002BCCBF1F460127039B1F44C1
:103480000122029958462BF087FE214602903AF01D
:1034900082FC0028A8DC02D119F0010FA4D1BA46A1
:1034A00017F8013D302BFAD0FEE4039BBB429BD1C1
:1034B0003123039A01361370F6E4219B002B7FF42D
:1034C00025AA014BFFF744BA7DAB050800000000B8
:1034D00051EC100BC1F30A532DE9F041A3F2FF3573
:1034E0000C460646132D32DC002D20DB384B0F46F0
:1034F00043FA05F801EA080303432DD032A3D3E9C8
:10350000002329F0EDF80022002329F02FFD40B11F
:10351000002C03DA4FF480132B411F4427EA0804E0
:1035200000262346324643EC102BBDE8F08126A34B
:10353000D3E9002329F0D4F80022002329F016FD56
:103540000028EED0002C2ADB00263446E9E7332D94
:1035500006DDB5F5806F1BD041EC100BBDE8F081A6
:10356000A3F213434FF0FF37DF400742F4D016A316
:10357000D3E9002329F0B4F80022002329F0F6FC57
:103580000028CED0002C334610DB23EA0706C8E71C
:1035900002460B4629F0A4F841EC100BDEE724F0BC
:1035A000004426430DD14FF00044BAE7142D06D055
:1035B000C5F134050122AA401344B342E5D20134D7
:1035C000E3E70026034CACE79C7500883CE4377EBB
:1035D000FFFF0F000000F0BF0348044B834202D0FE
:1035E000034B03B118477047F0150020F015002079
:1035F00000000000064B0749C91A891048BF013175
:10360000491003D0044B0BB101481847704700BF65
:10361000F0150020F01500200000000010B5064C49
:10362000237843B9FFF7D8FF044B13B10448AFF335
:1036300000800123237010BDDC5D0020000000002D
:10364000CCAD050808B5054B1BB105490548AFF3DE
:103650000080BDE80840FFF7CDBF00BF00000000BC
:10366000D0380020CCAD0508A3F5803A704700BFE4
:10367000174B002B08BF134B9D46FFF7F5FF0021AA
:103680008B460F461348144A121A3AF034FA0E4B7E
:10369000002B00D098470D4B002B00D098470020FE
:1036A000002104000D000D48002802D00C48AFF3A3
:1036B00000802BF009FB200029002CF0A3FC2AF04D
:1036C00033FD00BF00000800000000000000000003
:1036D00000100020F0150020245F002000000000F2
:1036E000000000000122014B1A707047DD5D0020D0
:1036F00008B504482DF090FBBDE8084002482DF0C5
:103700008BBB00BF4C3A0020643A00201FB54FF439
:10371000FA6003A909F08CFE034638B90122039927
:10372000CDE90002034A04482EF0BBFD05B05DF868
:1037300004FB00BFF1360108F038002008B50A4844
:103740002BF0F0F909482BF0EDF909482BF0EAF9D4
:1037500008482BF0E7F908482BF0E4F9BDE80840E9
:1037600006482BF0DFB900BFE0E004080FE10408D1
:103770003DE104086AE1040896E10408C1E1040897
:1037800013B5FFF7DBFF21482BF0CCF90BF0D8FE87
:103790001F4C20600BF0CEFE1E4B186023685A6948
:1037A0001168042908D15168012905D1D268032A7A
:1037B00002D11A7F012A06D03F21174802B0BDE886
:1037C00010402DF071B89B69144A9B08136000F0FB
:1037D000E3F820B112482BF0A5F94921EDE70021CB
:1037E000084600F001F903460028F8D10D4AC82127
:1037F0001070CDE900000C4A0C4809F037FE0C4867
:1038000002B0BDE810402BF08DB900BFEBE1040819
:10381000EC380020E838002011E20408303900209C
:1038200021E20408DD5D0020E536010810390020A2
:1038300046E2040807B501468DF8070006482BF05C
:103840005FF901211B200DF1070214F0D5FE00B134
:10385000FEE703B05DF804FB52E204082C4B70B5A0
:103860001B681D692B4B28461C68032394FBF3F44B
:10387000214600F0B9F8012849D0274B1A78002AD0
:1038800045D00022254E1A70306827F04FF80146C7
:1038900020B1BDE8704022482BF044B9306826F0D2
:1038A0003BFE22462946006900F054F903282ED831
:1038B000DFE800F0020F1C261A482BF021F91A4805
:1038C0002DF0A7FAFFF722FF0120BDE87040FFF7B7
:1038D000B1BF16482BF014F913482DF09AFA14488A
:1038E0002DF097FAFFF712FF0220EEE711482BF0B8
:1038F00007F90F482DF08DFAFFF708FF0320E4E7E2
:103900000D482DF086FABDE87040FFF7FFBE70BD90
:10391000EC38002030390020DD5D0020E838002040
:1039200067E2040880E204084C3A002094E20408AC
:10393000643A0020ABE20408343A002037B501F0C5
:10394000A1F800B301F07CF8684601F03FF80622C8
:103950000E490F4C0B68BDF800505A43A018A552F1
:10396000BDF8022001334280BDF804207F2B828005
:103970000B6008DDC72B4FF00100C8BF0023054ACC
:10398000C8BF0B60107003B030BD00BF34390020D9
:10399000D8580020DE5D002013B500F0A7FF0446D4
:1039A000C8B99FED0F0A00F0CBFF01222346114654
:1039B000104605F0C7FC22460A49012003F034FDF9
:1039C000FF2802464FF0010108D023460846CDE902
:1039D000001105F047FC204602B010BD0C46FAE786
:1039E000000034423D390108244B2DE9F3471B7890
:1039F00004460E46002B3ED02DF0B6FA00250746B1
:103A00004FF0060ADFF87890DFF87880B54206DBE1
:103A100038462DF0ADFA002002B0BDE8F087D9F8A5
:103A200000300C349B1B5B1948BFC8330AFB03F3FF
:103A300058F8030008EB030203B207EE903AF8EEE1
:103A4000E77A0090001444ED037A07EE900AF8EE4E
:103A5000E77A928844ED027AADF80420BDF904308B
:103A6000684607EE903AF8EEE77A44ED017A2CF0DA
:103A7000B5FA0135CAE70120CEE700BFDE5D0020C0
:103A800034390020D858002008B5FFF757FE054804
:103A90002DF0BFF9FFF774FEBDE80840024803F0BF
:103AA0006DB800BF343A002080E6040808B5084825
:103AB0002DF048F90128074805D12DF0AAF9BDE8F5
:103AC0000840FFF7CBBEBDE808402DF0A5B900BF08
:103AD00080E60408343A002003681B4A23F47F433D
:103AE00023F00703934213B504D0184A93421DD024
:103AF00002B010BD164C204614F0B2FC00B1FEE737
:103B00000221207814F0E6FC034600B1FEE7A02273
:103B100000901146207814F0BBFC00B1FEE70221B2
:103B2000207814F0EBFC0028E2D0FEE7084C0221DC
:103B3000207814F0CFFC00B1FEE70221207814F0C9
:103B4000DDFC0028D4D0FEE7A0000100A0000601A3
:103B5000CE130020F0B50FC82C4F2D4D3C68DFED83
:103B60002D7A661C05EB041484E80F00052E2A4C00
:103B7000A8BF0026D4ED006A2B4600224FF0FF308C
:103B8000F1EE045A3E601D4600219FED226A2E464A
:103B900096ED007A0131052936EE076A76EE876ADE
:103BA00005F11005F3D1411C86EE257A04D0B4EE60
:103BB000E77AF1EE10FA02DDF0EE477A10460132B4
:103BC000042A03F10403DED1144BC4ED006A83ED33
:103BD000007A134B1A68002AC4BF02F1FF321A6040
:103BE000032810D09FED0F7AF4EEC77AF1EE10FAA9
:103BF0000AD40D4A1168814202D11968002903DCF8
:103C0000122110601960F0BD0320FCE74439002048
:103C100048390020000000003C39002038390020DD
:103C2000403900206666663F041000207FB50368B7
:103C3000244A23F47F4323F0070393423ED100211B
:103C400008221420204B14F07FFC014600B1FEE74F
:103C5000032216201D4B14F077FC014600B1FEE74D
:103C6000052218201A4B14F06FFC00B1FEE70DF18D
:103C7000070102A814F0D6FC014600B1FEE7BDF82A
:103C80000C3008225BBAADF810309DF80B301220D2
:103C90008DF81230FF238DF81330FE238DF8143089
:103CA0009DF80A308DF81530BDF808305BBAADF8D4
:103CB000163004AB14F048FC00B1FEE707B05DF825
:103CC00004FB00BFA0000100BFE20408C8E2040832
:103CD000CCE2040808B509F02DFE18B12B210648E6
:103CE0002CF0E2FD14F062FA28B1BDE80840312161
:103CF00001482CF0D9BD08BD14E6040810B5274CC6
:103D000004F070F904F062FC236F23F0070343F022
:103D1000030323672DF013F9214B00209B6ADB017D
:103D20005EBF4FF480321F4B9A62D4F8203123F0EB
:103D3000070343F00203C4F82031D4F8283123F0FC
:103D4000070343F00203C4F82831D4F8403123F0CC
:103D5000030343F00203C4F84031D4F8603123F088
:103D6000030343F00203C4F86031D4F8403223F077
:103D7000030343F00203C4F84032D4F8003223F0C6
:103D8000070343F00203C4F80032D4F8083223F0EA
:103D9000070343F00203C4F8083210BD008000504E
:103DA0000040005A0060005A30B5234D9DB008AC69
:103DB0000FCD0FC495E80F0084E80F002C220021DE
:103DC00011A839F098FE1D4B01241093562312932D
:103DD0000523159306230E2200210DF112008DF804
:103DE0004540179339F087FE4FF47020144B08AA12
:103DF000CDE902030B238DF810300C238DF8113020
:103E0000104B1148059320230693104B02A90093F1
:103E100010AB8DF81D4007F089FF044618B17C21D6
:103E20000B482CF041FD00214FF4E1302CF011FA49
:103E300020461DB030BD00BF60E604080000015BF5
:103E40003C00015BDF5D0020083A0020983900202B
:103E50002EE60408022905D8034B1B68186808B130
:103E6000436A1847704700BF0810002008B504498E
:103E7000044808F071FDBDE80840FFF795BF00BF9A
:103E80000C1000202C3A002001482EF010B900BF81
:103E9000083A0020014B1A6A18681047083A0020B7
:103EA00001482CF035BF00BF80E60408DFF860C091
:103EB000F8B56446114D124F0FCD0FC495E80300BD
:103EC00084E803003C460F4D0F4E0FCD0FC495E81C
:103ED000030084E8030034460C4D0FCD0FC495E871
:103EE000030084E8030060462CF090FF38462CF075
:103EF0008DFF3046BDE8F8402CF088BFB0E60408DE
:103F00004C3A0020C8E60408343A002098E6040839
:103F1000643A00201FB50368164A23F47F4323F058
:103F200007039342044623D1B0F80530222B1FD15A
:103F300003A82CF02CF9B0B9DDED037A9FED0E7AD1
:103F400067EE877AFCEEE77A17EE903A00220B498B
:103F50000B60CDE900120423B4F80510207914F0A9
:103F600009FB28B1FEE7112802D14FF0FF33EDE73E
:103F700004B010BDA0000A0100007A441410002013
:103F800008B5064B834207D1054B1B7823B1C8B255
:103F900014F0C8FA00B1FEE708BD00BF7C3A00206B
:103FA000FF5D002030B500250368344A23F47F43C9
:103FB00023F0070385B0934204460295ADF80C50F8
:103FC00035D002F5802293420CD0A2F18272934246
:103FD00051D12B4B1B78002B4DD005B0BDE83040A4
:103FE0002EF025BAB0F80530252B44D1FF2304A9C3
:103FF0001A4611E903002CF0CCF8012814BF41F255
:10400000FC151F4B4FF0250108BF187005F0FC028E
:10401000207914F0D9FA00B1FEE71A49009023790B
:10402000194A0968194800F06DF820B3FEE7B0F8A6
:104030000530B7EE047A07EE903AF8EE677AB0F8FA
:10404000073067EE877A013307EE103AB8EEC77A89
:1040500067EE877AB1EE047A67EE877AFAFE677ABE
:10406000FCEEE77A17EE903AB3F57A7F38BF4FF45B
:104070007A73044A136005B030BD00BFA000060289
:10408000FF5D002018100020813F01087C3A0020CD
:1040900038B505462CF06FFF00230B4A14685CB15D
:1040A000AC4206D1A96A6BB199622CF06AFF01207B
:1040B00007E02346A46AF2E7002DF3D02CF061FF5D
:1040C000204638BD1160F0E7B43A002010B5044630
:1040D00098B109F0E5F82046FFF7DAFF10B194F83F
:1040E0002C300BB9002010BD2CF045FF044A13689A
:1040F000013B13602CF045FFF4E72220F3E700BFFB
:10410000B83A00202DE9F04385B00546914698461F
:104110000E469DF8307009B9002F5CD12846FFF794
:10412000D5FF0446002836D185F82C00686309F0D5
:10413000D9F9864233D909F047F92146844640F23D
:10414000E7304FF47A720023E6FB0C0128F090FF71
:104150004FF0FF32002328F08BFF2B46E8861146F4
:104160002846CDE900441D4A2EF0BFF8044690B918
:10417000C5E9089885F82D702E632CF0FCFE184ACE
:10418000136833B31A469B6A002BFBD19562002358
:10419000AB622CF0F6FE204605B0BDE8F08347B1D7
:1041A0002B4631462846CDE900440C4A09F05EF919
:1041B000DCE7304603A909F03BF904460028EAD1C0
:1041C0002B462846CDE90077044A03992EF069F87A
:1041D000CCE71560DBE72124DDE700BFE5410108FE
:1041E000B43A002091F82C3013B50C4683B98B8E6D
:1041F000CA8E93420ED243B9CDE9003320460B4616
:10420000104A4FF0FF312EF030F8A38E0133A38611
:1042100002B010BD52B191F82D307BB10123009353
:10422000D1E908232046096BFFF76CFF0123064AFA
:1042300084F82C30136801331360E9E7084609F06D
:104240002FF8F3E7E5410108B83A00202DE9F041E5
:10425000144E336823B34FF00008134F2CF08BFE3D
:1042600005463C6824B92846BDE8F0412CF089BEDB
:1042700094F82C3093B1336884F82C80013B336080
:1042800094F82D3013B92046FFF702FF28462CF092
:1042900078FED4E9083120469847DFE7A46AE1E7D1
:1042A000BDE8F081B83A0020B43A0020034B1B6807
:1042B000002B14BF04200120704700BFB83A002033
:1042C000024B1868B0FA80F040097047B83A0020F5
:1042D000082808B504D00FDC022809DC002809DD15
:1042E000012304220921022005F02CF8002008BD3A
:1042F0000428F5D0D82106E02028F1D0402807D0A6
:104300001028F7D1B92104482CF0CEFA0E20EEE7A0
:10431000012304220821E6E7C82205088022014B78
:104320001A64704700E0035070B514460D4640F023
:1043300080010A48FFF7F2FF2CF04EFE074E25449D
:10434000AC4204D18022064B00201A6470BD0021CB
:1043500030462CF041FE04F8010BF1E700000A5052
:1043600000D0035038B50C46084D00F07F012846B8
:10437000FFF7D4FF2CF030FE214628462CF02CFE0F
:104380008022034B00201A6438BD00BF00000A5091
:1043900000D0035070B5264C8EB0264601AD0FCE2E
:1043A00014340FC50FCC06AD0FC594E80F0085E897
:1043B0000F00204B0121039306AB05934FF480734C
:1043C0005720ADF81C3003F0BDFB01213A2003F06B
:1043D000B9FB002304220321022004F0B3FF0221D1
:1043E00000230846012204F0ADFF0023042201212E
:1043F000022004F0A7FF012304220721002004F07B
:10440000A1FF0D4801A904F0D5FD0C4B0C4A00207A
:10441000C3F8CC244FF00212C3F8C424A2F58032B2
:10442000C3F8C8241C22C3F8B4240EB070BD00BF6A
:104430007C230508A05A320000000A5000C0035037
:104440000200030010B52DED028B9FED188AB7EE28
:10445000007AC8EE007A77EEC77A9FED157AF4EE0F
:10446000C77AF1EE10FA82B019DCF5EEC07AF1EEFF
:1044700010FA17D4FCEEE77ACDED017A9DF80440EE
:1044800019202146FFF76EFF631C00EE103AB8EECC
:10449000C00A88EE000A02B0BDEC028B10BDF0EE3F
:1044A000477AE7E7DFED037AE4E700BF00007A44EC
:1044B00000007F430000000013B5044601211C20CA
:1044C0000DF10702FFF730FF9DF8073003F01803E6
:1044D000102B8DF8073012D009D89BB1082B14D0BF
:1044E0000B484FF4AA712CF0DFF9012005E0182BDE
:1044F000F6D14FF068530020236002B010BD4FF09A
:104500006653F8E74FF06253F5E74FF06453F2E774
:104510002223050813B5044601211B200DF10702D3
:10452000FFF702FF9DF8073003F01803102B8DF8FA
:10453000073011D009D88BB1082B11D0094840F2AF
:1045400079112CF0B1F9012004E0182BF6D1064BBB
:104550000020236002B010BD044BF9E7044BF7E7DD
:10456000044BF5E72223050800007A3D0000FA3CE1
:104570000000FA3B00007A3C01212DE9F0430022C3
:1045800085B0804608462BF056FF9FED6D0AFFF779
:1045900059FF05202BF0B4FE00202BF039FF6846B0
:1045A000FFF7B8FF322008F027FF40211A20FFF75D
:1045B000D9FE44216A20FFF7D5FE78212320FFF79A
:1045C000D1FE052008F018FF0221722001AAFFF792
:1045D000ABFEBDF804305BBA9BB2B3F5FC7FF0D301
:1045E0007822002123202BF04FFE0221722001AA05
:1045F000FFF79AFE4FF000090C23BDF804704C46FB
:104600007FBABFB2B7FBF3F74D464E461FFA89F3A8
:10461000BB4278D396FBF7F607EE906A9DED007AE1
:10462000F8EEE77A95FBF7F567EE877AC8ED007A42
:1046300007EE905AF8EEE77A94FBF7F467EE877A84
:10464000C8ED017A07EE904AF8EEE77A67EE877ACE
:1046500001AAC8ED027A02211320FFF765FE9DF939
:1046600004309DF8058001AA0221152048EA03289C
:10467000FFF75AFE9DF904309DF8057001AA02214A
:10468000172047EA0327FFF74FFE002E9DF904206D
:104690009DF80530B8BF0336002DA8EBA606B8BFBD
:1046A0000335002C43EA0223B8BF0334C6F30721C5
:1046B0001320A3EBA404A7EBA505FFF753FEF1B26B
:1046C0001420FFF74FFEC5F307211520FFF74AFE20
:1046D000E9B21620FFF746FEC4F307211720FFF7C3
:1046E00041FEE1B21820FFF73DFE402200216A2082
:1046F0002BF0CAFD0022114610462BF09CFE002034
:1047000005B0BDE8F08301AA0C217420FFF70CFE70
:104710009DF90A209DF80B3009F1010943EA0223B3
:104720001E449DF90C209DF80D3043EA02231D44E0
:104730009DF90E209DF80F3043EA02231C4465E7E3
:1047400000007A44B7EE007AC7EE007A9FED057A52
:10475000C0ED157AC7EE007A80ED140AC0ED167A26
:10476000704700BF35FA8E3CF0B52DED048B0F4637
:1047700000F15C050446D0ED098A90ED0A9AD0ED6F
:104780000B9A85B028461646B0EE408A2CF008F801
:10479000002F48D094ED097ADFED386AB4EEE67A5E
:1047A000F1EE10FA3FDBDFED367AB4EEE77AF1EEA8
:1047B00010FA38D894ED0A7AB4EEE67AF1EE10FAEF
:1047C00031DBB4EEE77AF1EE10FA2CD8F5EEC09AB0
:1047D000F1EE10FAF1EE688AB1EE490A04F16807C9
:1047E00025DB2AF085FF8DED010AB0EE680A2AF07C
:1047F0007FFFB1EE400A28463A4601A98DED020A34
:104800008DED038A2CF004F828462BF0BCFF0EB97E
:1048100000236366D4ED147AB6EE000A284680EED3
:10482000270A2BF0D5FF05B0BDEC048BF0BD2AF0B4
:104830005FFF9FED149A39EE400A8DED010AB0EE4C
:10484000680A2AF055FF38EE098AB1EE400A01A83D
:104850008DED020A8DED038A2BF095FF3A4628462E
:1048600001A92BF0D5FF28462BF08DFFD4ED187A47
:10487000F1EE677AC4ED187AC9E700BFDA1B7CBF96
:10488000DA1B7C3FDB0F494070B5044600F052F85C
:104890000128054626D104F12406304600F0D6F85A
:1048A0003146204604F144062BF0F6FE304600F077
:1048B000DBF8D4ED117AF1EE677AC4ED117AD4ED1C
:1048C000127AF1EE677A31462046C4ED127A2BF067
:1048D000FFFE29462046BDE870409FED030A0022F6
:1048E000FFF742BF70BD00BF000000007FB502258A
:1048F0000E4E0F4835702BF0ADFE2BF0DDFC04465C
:1049000060B90DF103002BF0D7FD044630B9032345
:1049100001A83370FFF730FE044610B12BF0A8FC5D
:1049200000252046357004B070BD00BF005E002039
:10493000BC3A0020014B1878704700BF005E002091
:1049400070B501212DED028B0223B0EE408A1C4E82
:1049500082B00022084633702BF06DFDB0EE480A9D
:10496000FFF770FD174D082085ED000A2BF0D8FCED
:1049700003202BF0C5FC00202BF037FD00202BF08E
:1049800047FD322008F038FD0F4C002101202BF0AC
:104990006BFD01A82BF076FD95ED000A20462BF06B
:1049A00078FE95ED000A2046FFF7CCFE20462BF05E
:1049B000ABFE0123337002B0BDEC028B70BD00BFB3
:1049C000005E0020383B0020BC3A00201A4AD36B1E
:1049D0006BB392ED0C6A9FED197A07EE903A26EED2
:1049E000076AF8EE677AC6EE276A92ED0D6AFDEE69
:1049F000E66A26EE076A16EE903AC6EE276AFDEEE4
:104A0000E66A038016EE903AD2ED0E6A66EE876A89
:104A100086EEA77ABDEEC77A438017EE103A838000
:104A200000231363536393630023D36370470380AE
:104A300043808380704700BFBC3A002000007A4466
:104A40000148FFF721BF00BFBC3A0020054A127899
:104A5000012A04D0002202604260826070472BF07D
:104A600064BC00BF005E0020054A1278012A04D011
:104A7000002202604260826070472BF086BC00BF5B
:104A8000005E002008B5094B1B78012B01D00020E7
:104A900008BD2BF003FD064A13680133136000289C
:104AA000F5D0044A136801331360F1E7005E00207B
:104AB000343B0020303B00209FED060A00F10C0340
:104AC000B0EC017AF1EC017A984207EE270AF7D1AF
:104AD000704700BF000000000122024BC3F8A02075
:104AE000704700BF00D003500122024BC3F8A02042
:104AF000704700BF00E0035070B5404D88B001AC76
:104B00000FCD0FC495E8070084E8070001240121B8
:104B10003A2003F017F83A4E0121292003F012F849
:104B2000384B304601A903938DF8124004F0A2FFE0
:104B3000234604220321022004F004FC0221224621
:104B40000846002304F0FEFB2346214604220220EF
:104B500004F0F8FB042200212346022004F0F2FBBB
:104B6000294D2A4B4FF44870C5F834374FF00213E3
:104B7000C5F8303703F58033C5F838371C23C5F83E
:104B8000203708F0ABFE1420FFF7AEFF08F0A6FEBA
:104B90002320FFF7A1FF08F0A1FEB9213046FFF75F
:104BA000A3FF2CF047FAFFF797FF002303211A46D3
:104BB000022004F0C7FB002302211A46084604F035
:104BC000C1FB234621460022022004F0BBFB002249
:104BD00023461146022004F0B5FB304604F01EFFC8
:104BE00000212920C5F83417C5F83017C5F8381743
:104BF000C5F8201702F0A6FF08B070BDB023050865
:104C000000C0055000127A0000C0035002000100ED
:104C10000348044A0449121A92102BF032BE00BF16
:104C2000D0B30508D0B30508245F002008B500F014
:104C30002FF8FFF7EDFF124B12498B4212D30020E1
:104C4000114B12498B4218D3FEF712FD186850F829
:104C50002240586840F82240013298688242F5D3D9
:104C60000C33EAE70022F8E71C6844F8220001321E
:104C70005C68A242F8D30833E4E70022F8E700BFFB
:104C8000D4AD0508E0AD0508E0AD0508E0AD0508C8
:104C90004FF480414FF0FF30114B124A10B59A602B
:104CA000D3F8882042F47002C3F888200E4A916637
:104CB0000E4901F5005210660D4850660220C3F8F7
:104CC000D000BFF34F8FBFF36F8F01244FF44033F9
:104CD0000848C0F88041D36004600B6110BD00BF7C
:104CE00000ED00E00020010800900050008000442A
:104CF000F7FF370000E100E0014B1868704700BF84
:104D000020100020084B1B6F03F00703022B04D078
:104D1000032B05D0012B05D0FEE7044B1868704724
:104D2000034BFBE703487047008000502010002031
:104D300028100020002D310108B5FFF7E3FF054BD7
:104D40001B6FC3F303330133B0FBF3F0024B186066
:104D500008BD00BF008000501C10002000487047B4
:104D600000B4C404014B1868704700BF281000202D
:104D7000054B1860054B1B6F03F00703032B01D194
:104D8000FFF7DABF704700BF2810002000800050F6
:104D900000487047002D31014FF0B4439868C0F3CC
:104DA00004400C280AD8DFE800F00B0909090909BA
:104DB000072119091B1D1F000F487047002070476D
:104DC0009B6803F04073B3F1807F11D0B3F1007F93
:104DD00010D00A4A002B08BF104670470848704799
:104DE00008487047084870470848704708487047A7
:104DF0000848704708487047405DC60000093D00FC
:104E0000C0EA210180BA8C010048E801005A620220
:104E10000024F40080841E0040420F00014B1868FB
:104E2000704700BF241000204FF000639B6A10B54C
:104E300003F17842B2F5903F11D21968094A9142C4
:104E40000DD1094C227812F0FD0F01D0002010BDC9
:104E5000DB6998470028FAD101232370F6E74FF465
:104E60008170F4E707B0CD5E015E00204FF0005383
:104E7000074A1A60BFF34F8F0649074BCA6802F40E
:104E8000E0621343CB60BFF34F8F00BFFDE700BF6D
:104E900002020FF000ED00E00400FA0538B5044608
:104EA0000D4601B118B9372103482BF0FDFC2368EA
:104EB0002B60256038BD00BF1C24050838B50446AA
:104EC0000D4601B118B9782105482BF0EDFC236897
:104ED0001BB1AB4202D12B68236038BD1C46F6E7FC
:104EE0001C2405080346054A0549106803448B4203
:104EF0008CBF4FF0FF301360704700BF2C100020B4
:104F0000000004204FF0BA420123054802F5805109
:104F10004B60086203490968D160034A1370704707
:104F200001000C1F30100020025E00204FF0BA413B
:104F3000074BCA681A600123064A53604B6813F096
:104F40000203FBD14FF0FF311162034A1370704727
:104F5000301000200020005D025E00204FF0BA42B9
:104F6000D369126A10B5134013F0F8501EBF012028
:104F7000114A1070DC070ED54FF0BA410A6950078C
:104F8000FCD50E4A4C69106820441060886951684D
:104F9000014401205160590341BF08490A6802F1E8
:104FA00080720A601A0341BF04494A6802F18072A4
:104FB0004A60034AD36110BD035E00203C3B0020E1
:104FC0000020005D0023044A04491370044A054888
:104FD0001360054A00F0B8B9035E00202D4F0108A8
:104FE000483B0020054F01085D4F010808B500F05F
:104FF00011FA4FF0BA430A4AD969136841F20150D5
:105000000B4313604FF47D32064BDA61064B1A787E
:10501000002A4FF0000208BF10461A7008BD00BFFA
:10502000483B00200020005D035E002009230E4A5B
:1050300070B5C0F810311368054601330E46136091
:10504000FFF7D4FF044660B900F0D2F94FF48A723A
:105050002846064900F0B0F91EB1BDE87040FFF7E0
:10506000C5BF204670BD00BF443B00206400005D0A
:105070000729F8B505460C4610EE107A10EE906A36
:1050800004D940F2071104482BF00EFC05EB840311
:1050900025F824705E80F8BD6A2405082DE9F84FD4
:1050A000042980460D4693469946BDF82840BDF830
:1050B0002C70BDF83060DDF838A004D94FF4917140
:1050C00034482BF0F1FBB4F5806F04D940F2231182
:1050D00030482BF0E9FBB7F5806F04D94FF492719B
:1050E0002C482BF0E1FBB6F5806F04D940F2251176
:1050F00028482BF0D9FB0D9B03F50063B3F5805FC7
:1051000004D34FF4937123482BF0CEFB0AF50063D0
:10511000B3F5805F04D340F227111E482BF0C4FB87
:105120000F9B03F50063B3F5805F04D34FF49471D4
:1051300018482BF0B9FB184B0F9A013E03EA0242C4
:10514000C6F3090616430D9A013C03EA0A4AC4F362
:10515000090403EA02431C43013F4FEA093303F405
:105160004053C7F309071C4347EA0A0708EB051336
:1051700019F0040F05F10205C3E90A7618BF44F4DB
:1051800080442B0108EB05156C6048F803B0BDE8BE
:10519000F88F00BF6A2405080000FF0F2DE9F041D9
:1051A000072905460E4614461F469DF8208004D95F
:1051B0004FF4B5710A482BF077FBDDE9062324058F
:1051C0001A43B8F1000F01D044F000440C2303FB54
:1051D0000651C1E92C72C1F8B840BDE8F08100BFAA
:1051E0006A2405082DE9F041072906460C461546B4
:1051F00098469DF8187004D940F27D1121482BF093
:1052000053FB013DABB2B3F5806F04D34FF4BF71D4
:105210001C482BF049FBB8F1070F04D940F27F116D
:1052200018482BF041FB072F04D94FF4C0711548E3
:105230002BF03AFB0C21079B06EBC40245EA033531
:10524000089B15671B03536701FB0862B845D2F83A
:10525000B8004FEA440406D10323A3400343C2F835
:10526000B830BDE8F0810123A3400343C2F8B83051
:10527000022201FB0766D6F8B830A2401343C6F8F5
:10528000B830EEE76A240508F8B500210C2504467D
:10529000D0F8743200F50976DFF854C0D0F868020F
:1052A0008B4217DA05FB030393F8BB20002142F081
:1052B000800283F8BB20FFF7B9FE4FF48A72D4F85E
:1052C0006C3283F00103C4F86C3202FB0343C4F870
:1052D0006832F8BD05FB0107D7F8B82056F804EF8F
:1052E00002EA0C0242EA0E02C7F8B8200131D7E701
:1052F0000000FFFF8B1E012B03D8044B1B6823B15A
:105300001847012901D8024BF8E77047603B00209D
:10531000643B002010B52BF027FE0446002101203D
:1053200007F03AFA20462BF023FE0022014B1A70B8
:1053300010BD00BF045E0020024B03C883E80300D9
:1053400000207047543B002038B5114C2378EBB94E
:10535000104B114D1960114B28601A604FF08042BC
:105360000F4B10489A66FFF7E7FF4FF400420E4BD1
:105370001A602B6803B198470C480D4907F0ECFA06
:105380000123002023700B4B187038BD1220FCE75E
:10539000055E0020603B0020643B00205C3B002059
:1053A00000900050543B002000E100E04C3B002006
:1053B000C4240508045E00200B4B10B51B7873B1A4
:1053C0000A4B1B786BB1002392089A4201D100204E
:1053D00010BD50F8234041F823400133F5E7112078
:1053E000F6E70E20F4E700BF055E0020045E002013
:1053F00010B52BF0B9FD01210446084607F0CCF9A1
:1054000020462BF0B5FD0122014B1A7010BD00BFE4
:10541000045E0020064B1B7843B14FF0BA4213697B
:105420005B07FCD5034A1378002BFCD1704700BF03
:10543000055E0020045E002008B5054B1B682BB1FB
:10544000984718B1BDE80840FFF764BF08BD00BF2A
:105450005C3B002000487047683B002000487047D4
:10546000683B0020F0B5044601258C4205D88D42EA
:1054700003D8002015601C60F0BD0020DFF828C0B4
:105480001CF8017BB4FBF7F607FB164EBEF1000FCC
:1054900005D1B44207FB05F504D03446E5E70130F9
:1054A0000B28EDD10120E5E7CC2405082DE9F04FCC
:1054B000174687B004460D469846FFF7CBFF17F115
:1054C000800F064602D1B8F17F0F04D0A02D12D86C
:1054D0002544A54203D1002007B0BDE8F08F94F920
:1054E00000309F4202DD27700134F2E79845B8BFD3
:1054F00084F80080F8E74FF0000940F20A2A3B46A2
:105500003A46002130462BF0D3F94346424601216A
:1055100030462BF0CDF94B464A4649463046CDE958
:105520000199CDF800A0FFF739FE40F20B232F4A76
:105530000121CDE90032304640F2D5122C4BCDF896
:105540000890FFF72BFE01212A4B40F2D512CDE93E
:10555000013130460221284BCDF800A0FFF71EFE96
:10556000B5F5006F2B4628BF4FF4006323F0030B03
:105570004FEA5B0A1FFA8AFA224600213046059359
:10558000CDF800A005232BF0B9F90523224601210F
:105590003046CDF800A02BF0B1F90223059A002186
:1055A00030460093CDE901990123C2F38F02FFF742
:1055B00019FE01213046FFF739FD00288CD1A5EBFB
:1055C0000B059F2D5C44CBD8002D84D0254414F9C5
:1055D000013B9F4204DD04F8017CA542F7D17AE744
:1055E0009845B8BF04F8018CF7E700BF0000A02180
:1055F000000102200000B021000103302DE9F04F2E
:10560000036895B00593436A066D0693836A426802
:105610000793C36A856B0893036ED0F814B009939F
:10562000C36DD0F83C900A938369DFED576A0B9302
:1056300083680BFB01FA0C93036B0D93436C0069B9
:105640004B43F41A24EAE474F71A9B1B2344534394
:105650000744AF42A8BF2F46019302FB05F3002584
:1056600002FB00F1119302FB04F30E9713911293C6
:10567000059B9D4203DB002015B0BDE8F08F0020A4
:105680000B9B129E53440493584574DB0199139B62
:1056900001351944DA440191EAE74FF000080C9B08
:1056A000734402930D9B63440393904547DB01379A
:1056B000964494440E9B9F42EFDBB9F1000F0BD050
:1056C00039F81030F2EE677A07EE103AB2EE477A08
:1056D00077EE277AF3EE677A089BF2EE677A33F873
:1056E0001030013007EE103AB2EE477A67EE277AB3
:1056F000F3EE677AF2EE677AFDEEE77A17EE901A2C
:10570000ADF80830099B1944069B9942B8BF194669
:10571000079B9942A8BF194607EE901AF8EEE77A60
:10572000F3EE677AF2EE677AFDEEE77A17EE901AFB
:10573000049B03F8011B0493119B1E44A4E7029BE6
:10574000F2EE677A13F9011B08F101080293039B3B
:105750000F9113F9011B109103930F990A9B1944A0
:10576000109B594307EE101AB8EEC77A47EE267A17
:10577000F3EE677A99E740F20003B446274607EE56
:10578000903ADDF804E095E7000000382DE9F04F8D
:105790002DED048B436CD3B02B93836D82463793EE
:1057A000436D90ED178A3893036DD0F840901F93A6
:1057B000C36C90F8486014938368C56B3993036B8E
:1057C0001C913A93C36A3B9340F20003ADF8423117
:1057D0008369469300235193FFF740FE04462EB998
:1057E0001F9B149A13431CBF21235193379B012BFA
:1057F00002D1389B012B07D0212351931C9B002BF6
:1058000040F099805198F9E31C9B002B40F0938065
:10581000519B002BF6D1DAF8043020460F93DAF8CA
:105820001430DAED188A0993DAF80C30BAEEE88A07
:105830002C93DAF83430B3EE488A2093DAF81C302F
:105840002D93DAF800303C93DAF810301593DAF83B
:1058500038301693DAF8203017932BF02EF9209A6F
:105860002C9B002DA3EB0203149A134493FBF9F332
:105870000D93DDE91532A3EB02031F9A13442B9A13
:1058800093FBF2F3179A4993099B02FB03F30F9AD8
:105890001393169B02FB03F32493249A209B02FB91
:1058A00003F30F9A3293159B02FB03F323932B9B75
:1058B00002FB03F34A93239B159A03FB09F34B93D3
:1058C000BDF824301E9308BF012343930DF5A17347
:1058D00018BF2B4647932C9B53430F9A53434C932B
:1058E000179A2D9B5343099A5343409300230E93D9
:1058F00040F2002309EE103A0E9B179A93422EDBDA
:105900001C9B002B3FF47EAFFFF770FB51900028EB
:1059100040F074833C9B2D9909985943179B9AF941
:10592000242059439AF928304143DAF81800FFF748
:10593000BDFD519066E7DDE9393213433B9A2B43B5
:105940001343DA0707D52123519340F2031182480C
:105950002AF0AAFF56E7519B002BF6D15BE70E9B7E
:105960002B9A1F995A431F9B1698D31A8A1A22EA18
:10597000E2721892159A1899D21A9042D4BFC1EBCC
:105980000001C1EB0201002B27DB0E98499D169EFA
:105990009642D8BF28462690269A0E98121A0132AF
:1059A0000A920F9A4A4318993192379A01FB0233AF
:1059B0000A993F93DDE94A320129D8BF1346239A59
:1059C0002A931343459300230C930C9B2D9A9342E7
:1059D00006DB269B01330E938EE70E9A2692DBE7B9
:1059E0000C9B149A09FB03F3991AD31A2C9A20984A
:1059F00023EAE373521A9042D4BFC3EB0000C3EB17
:105A00000200002908907DDB209991427ADCDDE9D3
:105A10000C12521A571C002A79D00A9A012A7CDDEE
:105A2000814563D044DD012FA9EB000B65DC012625
:105A30000D9A0B92BE423246A8BF3A464892139A3C
:105A4000169972432F92721E22922F9AB2F5006F0E
:105A5000229AB8BF00222E9201324E92189A03FB6E
:105A600001220F994A43249911434D910A99012922
:105A7000D8BF394689B241913A998A1842920C9A14
:105A8000149902FB09F2521A389903FB01232F9A49
:105A90002593139BB2F5006FB8BF134633930023D1
:105AA0001193119B489A93423ADB0B9B01338BE78E
:105AB000089A089992FBF9F209FB121B1646BBF1F2
:105AC000000F0ED0012F06F10106A9EB0B0B0ADD2A
:105AD0000A465A4406FB09F191421CBF2822519202
:105AE00001E0012F0CDC0D9A0B92A3E7012F14DDCE
:105AF0004A4601264FF0000BECE74A460126E9E74B
:105B0000089AE7E701270C9A0B92012602E03E462D
:105B10000D9A0B924FF0000B8CE70D9A0B92F4E765
:105B2000119BBB42C4BF28235193119BFB1A93FBCB
:105B3000F6F206FB1233002B18BF0132012A0A9B32
:105B400019920BD1012B47DD00231093109A089B6B
:105B50001344199A534309E0D7240508012B38DC74
:105B6000BBF1000F32D1089BCDF840B027934E9A7D
:105B7000199B159953433D93199B259A7343309371
:105B8000109B013B002B3E93CCBF4FF48773002347
:105B900044933F9B01FB02330F9A17995343119A89
:105BA0001D930C9B13440E9A01FB0323099A534344
:105BB0001B9300232893289B3C9A934211DB119B53
:105BC00001331193259B4B4425936AE72823519376
:105BD000C9E7CDF840B0B9E7089B2793002310939D
:105BE000C5E72F9BB3F5006F14DB139BB3F5006F74
:105BF00010DB1B9B002B4FF02803519303DA099B0A
:105C0000002BC0F2AD81309BDDF888801A93139B86
:105C1000129314E01B9BDDF8B880002BBCBF282337
:105C20005193099B002B3D9B1A93339B129301DAEE
:105C300028235193129B002B01DA28235193DDE98D
:105C400031321343459A13434D9A13431D9A13431C
:105C5000DB0700F18C81319B03EBD3735B1029933D
:105C60002A9B03EBD3735B103493239B03EBD37218
:105C7000329B521003EBD3735B103693249B03EBE0
:105C8000D3735B1035930123204621934F922AF062
:105C90008AFE219B0125002B14BF0523012351AA55
:105CA000D4F8680206924F9ABDF8A4100492349A70
:105CB00002910392BDF89C2034910192419A1D9962
:105CC0000092399A05950A4400214F932AF093FED9
:105CD00051ABCDE90553359BBDF820200493369B8D
:105CE00001920393349B294602931E9B429A009390
:105CF000D4F868024F9B2AF07EFE51AB0193439B80
:105D0000479A00930223D4F8680219462AF0ACFEA1
:105D100051AB01931E9B032100933B9A0223D4F8BD
:105D200068022AF0A1FE51ABCDE90553099B1B99EE
:105D30000493129B469A03931E9B0A440293BDF858
:105D4000283004210193BDF868300093D4F868022C
:105D50002B462AF050FEB0EE490A0021D4F8680222
:105D60002AF0C0FD219B002B00F00C81F0EE480AC8
:105D7000B0EE480A2946D4F86802FFF779F9B8EE80
:105D8000E80A0025B3EE400A0221D4F868022AF09E
:105D9000A9FD2046099951AA2AF0D2FD51AB412113
:105DA0002046994A019300954EF62C432AF007FEAF
:105DB00020460A9951AA2AF0C3FD2046199951AAF2
:105DC0002AF0BEFD2046089951AA2AF0B9FD2046C6
:105DD000299951AA2AF0B4FD51AB40F2CD112046C9
:105DE000CDE90053894A8A4B2AF0E9FD51AB40F2D4
:105DF000D711884A2046CDE900532B462AF0DFFD13
:105E000020462AF043FE0222294620462AF059FE67
:105E10000222012120462AF054FE20462AF036FEB6
:105E20000A9B012B04DC0122294620462AF049FE68
:105E3000109B002B04DD0222002120462AF041FEA7
:105E4000219B002B00F0A680109B4A21023B12935D
:105E500051AB01930023204600936F4A449B2AF0E4
:105E6000AEFD129B51AD013B1A93129B40F2CD1136
:105E7000002B4FF04F6320460093684ACCBF4FF48D
:105E80008773002301952AF09AFDB8F1000F0FDD0A
:105E90002A46414620462AF053FD00222046CF23C1
:105EA0001146019500922AF08AFD20462AF0EEFD67
:105EB0004FF0000851AD434641212046524A01951A
:105EC000CDF800802AF07BFD1A9B012B65D1194685
:105ED0002A4620462AF034FD4346424641462046A3
:105EE000CDE900852AF06BFD20462AF0CFFD022285
:105EF000414620462AF0E5FD20462AF0C7FD022251
:105F0000042120462AF0DDFD0A9B012B04DD01223D
:105F1000002120462AF0D5FD20462AF0B7FD0422B4
:105F2000204611462AF0CDFD0122204611462AF0D6
:105F3000C8FD0422022120462AF0C3FD04220321C9
:105F400020462AF0BEFD20462AF0A0FD519B002BE2
:105F500040D01C9B002B3FF455AC40F26631F6E478
:105F6000309BDDF888801A93139B129360E62A9B7E
:105F7000239A3493329B3693249B3593319B2993F8
:105F8000002381E6B0EE480A2946D4F868022AF0D8
:105F9000A9FCF4E63E9B129363E7ADDD129B2A4613
:105FA000991E20462AF0CCFC2A46204601212AF0E0
:105FB000C7FC4246414643462046CDE900852AF0CB
:105FC000FEFC20462AF062FD0222414620462AF0CD
:105FD00078FD89E71C9B5BB9289B4C9A0133289379
:105FE0001D9B13441D93409A1B9B13441B93E2E596
:105FF0002046FFF749F951900028EDD053B0BDEC91
:10600000048BBDE8F08F00BF000004500600016063
:106010000E7E0800060705500000055005030270BB
:106020002DE9F04F2DED048B04468DB040B1D0F832
:106030002CB0BBF1000F05D03621CE482AF034FC3D
:1060400021208DE1036ADFEDCC8A13F0010F14BF2C
:106050004FF480624FF400629A42C0F2EB80FFF787
:10606000F9F9D4ED057AB8EEE78AE36C276A07936D
:10607000B4F8503017F0010609EE103AE36B05460C
:106080000593236C28EE288A0693BDF814A0BDF86A
:10609000189040F0B88007EBD7784FEA6807C8F34C
:1060A0004F08CDE900A80523314622682AF036FCC6
:1060B00005230121CDE90098A26928462AF02EFC8B
:1060C000226B002A00F0AE80A38E009302231946B3
:1060D00028462AF013FCCDE900A90123A26B032175
:1060E00028462AF01BFCDFEDA40A0021B0EE600A6E
:1060F00028462AF0FDFBF0EE480AB0EE480A0121DE
:1061000028462AF0F5FBB0EE490A032128462AF07A
:10611000E9FB04212846079A2AF0D8FB4FF0000833
:1061200040F22D234246414628460093CDE901889E
:106130004346FFF733F8914B40F2D712012128462E
:106140000093CDE901888E4BFFF728F840F2D71273
:1061500002212846CDE901888A4BCDF80080FFF75F
:106160001DF8002E63D14A2203212846CDE901669D
:10617000854B0096FFF712F84FF0040800264FF009
:10618000010B824B5FFA88F840F2D712414628464D
:10619000CDE9013B00967E4BFFF700F833465246AF
:1061A00031462846CDE90166CDF80080FFF71AF8A0
:1061B00042F202034A4659462846CDE90083029638
:1061C0003346FFF70FF8022120232846CDE90013BC
:1061D00002965B46BAB2FFF705F859462846FEF725
:1061E00025FF002840F0BC80DDE90510414394F90B
:1061F000533094F95220A06B0DB0BDEC048BBDE878
:10620000F04FFFF753B91FFA87F8CDE900A8012333
:10621000594622682AF082FB0123CDE900981946ED
:10622000A2694AE701235B4A009302234FE74FF03C
:106230000308A3E7FFF70EF9D4ED057AB8EEE78A75
:10624000B4F85030054628EE288A09EE103AE36B80
:10625000F0EE680A0793236CB0EE680A594605937E
:10626000E66C276A2AF044FBF0EE480AB0EE480AD2
:10627000012128462AF03CFB03212846B0EE490ABA
:106280002AF030FB07F001083246042128462AF0A4
:106290001DFBB8F1000F68D1052307EBD770401044
:1062A00006934FF480610BAB0AAAFFF7DBF80646B2
:1062B00000287FF4C5AE314B014640F2D712CDE93C
:1062C0000100009328462E4BFEF768FF40F2D712DC
:1062D00001212846CDE901662A4B0096FEF75EFFB4
:1062E000B8F1000F44D102214A222846CDE90188A5
:1062F000254BCDF80080FEF751FF032100264FF01B
:106300000108224B40F2D7122846CDE90138009609
:106310001F4BFEF743FF334631462846BDF8282081
:10632000CDE90166CDF80080FEF75CFF22234146EF
:10633000CDE9008328463346BDF82C200296FEF7AF
:1063400051FFB246B346079B5B456EDC0598079943
:1063500094F95330414394F95220A06BFFF7A6F80B
:106360000DB0BDEC048BBDE8F08F3846012397E7F4
:106370000221C3E735250508000000380E7E08001D
:106380000600016006070550000005500000D023FC
:10639000050304509C250508A36922684B44089313
:1063A000236B3244002B3DD033F81830A16B08EE3C
:1063B000103A08EB0A03CB180993BDF82C300021E2
:1063C0000193BDF8283028460093069B2AF0A6FAD0
:1063D000BDF82C3001210193BDF828302846089AD9
:1063E0000093069B2AF09AFA0123099A009303214D
:1063F00028462AF083FAB0EE480A052128462AF0FA
:1064000071FA01212846FEF711FEB9440028A7D1F0
:1064100008F10108059B4345BEDC0BF1010B9A44D2
:106420003E4490E740F20003C0E74FF00009C84641
:10643000F0E700BF58B1031F9FED137A0020DFED96
:10644000136A9FED136A01EB4202914200D170473B
:10645000D3ED017AF8EEE77A67EE877AF4EEE67A22
:10646000F1EE10FA03F104030CDCF4EE467AF1EEDF
:1064700010FA48BF2120F3EE677A17EE90CA21F890
:1064800002CBE2E72120F6E70000003800E07F477A
:1064900000E07FC72DE9F04F2DED048B0368C1B0FC
:1064A0003293C36890ED098A21930369D0ED088A7D
:1064B00011938369D0F804A02A93C36990F83850E7
:1064C0002293036C14911693C36B1293D0E90C833F
:1064D0002393C36A2493836A259383682B93436928
:1064E0002C9300233F93FEF7B9FF0446A5B9169BF2
:1064F000129A134310D021233F93149B8BB1DDE9F3
:106500002B321343DB070ED521233F934FF47B71CE
:106510009D482AF0C9F904E0149B002BEFD13F9B62
:1065200023B13F98F4E23F9B002BEFD120462AF0A5
:10653000C4FA259A219B9B1A129A134493FBF8F3F1
:10654000249A0D93119B9B1A169A1344239A93FB3A
:10655000F2F33493229B03FB0AF31A93119B03FB80
:106560000AF318930AFB02F33593189B189A08FB59
:1065700003F33693119B03FB08F30AFB03F33893F1
:10658000219B53431A9A39932A9B53432F930023F9
:106590000E934DF6000309EE103A0E9B229A934299
:1065A00006DB149B002BBCD0FEF720FD3F90B8E724
:1065B000239A0E9B24995343169A9A1A2692169A56
:1065C000D31A23EAE373269A1793119B9B1A179AFF
:1065D0009942D4BFC2EB0102C2EB03022D92269A6C
:1065E000002A1DDB0E9A349924989842D8BF0A4697
:1065F0001D920E9A1D9B9B1A013309930999DDE99F
:1066000035320129D8BF1346189A299313433A9378
:1066100000232A9A934206DB1D9B01330E93BCE7AD
:106620000E9B1D93E5E708FB03F21299259D501A76
:106630008A1A219922EAE272091A8D42D4BFC2EB6A
:106640000505C2EB010500280A9574DB25988842F0
:1066500071DC0D99C91A4F1C002970D009990129C4
:1066600073DDA8455BD03FDD012FA8EB05095DDC9C
:1066700001250D990B91BD422946A8BF394633919A
:106680001A99681E6943B1F5006FB8BF00201590D4
:1066900001303B900998129E0128D8BF384680B23D
:1066A000309008FB03F0801B0244269E179830446C
:1066B000119E06FB02020AFB02F222981C920E9A1D
:1066C00000FB03230AFB03F328931A9BB1F5006F29
:1066D000A8BF1946002320911093109B339A934230
:1066E00036DB0B9B013394E70A9991FBF8F508FB25
:1066F0001519B9F1000F0DD0012F05F10105A8EB17
:10670000090909DD494405FB08F088421CBF28211E
:106710003F9101E0012F0CDC0D990B91ABE7012FAC
:1067200013DD414601254FF00009ECE74146012504
:10673000E9E70A99E7E701270B93012502E03D46C7
:106740000D990B914FF0000995E70D990B91F4E726
:10675000109BBB42C4BF28233F93109BFB1A93FBA3
:10676000F5F205FB1233002B18BF0132012A099BF9
:1067700019920BD1012B3DDD4FF0000B0A9B199AAA
:106780005B44534309E000BF9E250508012B2FDC25
:10679000B9F1000F29D1CB460A9B1E93199B3B9A56
:1067A000BBF1000F02FB03F39BB23193ABF1020389
:1067B000C8BF4FF0FF333793289B13931C9B1B9349
:1067C00000231F931F9B329A934280F2A681BAF155
:1067D000000F40F38B81139B002BBCBF28233F93FA
:1067E000139B279300230F9310E028233F93D2E7B6
:1067F000CB46C3E70A9B4FF0000B1E93CEE70F9BDF
:10680000139A9B18279344BF28233F93209B0F9AEA
:10681000002BBCBF28233F931B9B9A180F9B01336F
:10682000534580F228813A9B27994AEA03030B4398
:10683000134313F001030C9340F02081209B13F0CD
:1068400001030C9340F01A81012602230C93189B3C
:106850003D920C9A204693FBF2F13C912AF0A3F86A
:106860000C9A3C999AFBF2F2D4F868022E920592A7
:106870000491299A0C99002E92FBF1F10CBF01238F
:1068800005230391BDF8B410309A0291BDF8781039
:10689000009201913D9A2B993FAE0A440696002141
:1068A0003C932AF0A8F8002305932E9B0C9A04939E
:1068B000209B2C9993FBF2F201230392BDF8242034
:1068C0000293319B0192279A009306960A443C9BBF
:1068D0000121D4F868022AF08EF84DF60003F0EE9C
:1068E000490A00EE103A0021D4F86802FEF7C0FB16
:1068F000F8EEE80AF3EE600A0321B0EE600AD4F87D
:106900006802FEF7B5FBF8EEC80AF3EE600A042150
:10691000B0EE600AD4F86802FEF7AAFB32462046C1
:1069200009992AF00DF83246204619992AF008F8FC
:1069300000234FF0805200934121204601962AF017
:106940003EF8324620460A9929F0FAFF32462046A0
:106950002D9929F0F5FF002340F25311754A204686
:106960000093019640F20A232AF029F820462AF0E3
:106970008DF80222002120462AF0A3F820462AF0B2
:1069800085F8099B012B04DC0122002120462AF016
:1069900098F8BBF1000F73DD0222002120462AF097
:1069A00090F8BBF1010F6BD03FAB01934FF01D632B
:1069B00040F2D511009320464FF485735E4A29F0CA
:1069C000FEFF159BABF10206002B1DDD204615993D
:1069D0003FAA29F0B5FF012120463FAA29F0B0FFC8
:1069E00000233FAA19460093204601921A4629F037
:1069F000E6FF20462AF04AF80122204611462AF0F6
:106A000060F820462AF042F8002E17DD012E3FAA3A
:106A100047D13146204629F093FF3FAB0193002335
:106A200020461A461946009329F0C9FF20462AF04D
:106A30002DF80222002120462AF043F820462AF0B1
:106A400025F80222012120462AF03BF8099B012B60
:106A500004DD0122002120462AF033F820462AF0E6
:106A600015F83F9B002B38D0149B002B3FF459ADF9
:106A700040F25C514CE500260123E7E60026E6E6FD
:106A80003FAB01934FF01D6340F2D51100932046B8
:106A90000023294A29F093FF159B002BCEDD379E5A
:106AA00094E72046ABF1030129F04AFF20463FAAB4
:106AB000012129F045FF3FAB0193002320461A46F0
:106AC0001946009329F07BFF204629F0DFFF0222C0
:106AD0000021204629F0F5FFA8E7149B93B90F9BEE
:106AE0000C9A13449A450F933FF789AE1F9B399A2E
:106AF00001331F931B9B13441B932F9A139B134427
:106B000013935FE62046FEF7BFFB3F900028E6D0D8
:106B100041B0BDEC048BBDE8F08F109B389A013377
:106B200010931C9B13441C931A9A289B134428937C
:106B3000D3E500BF0200011003040150032838B55B
:106B400004460D4605D80A4B33F81030CB40DB071E
:106B500004D440F2CF31074829F0A6FE1422302396
:106B600013FB0423044A9858E84000F0010038BDA4
:106B7000A6260508FD25050830C0035073B5046836
:106B8000012105463A2000F0DDFF00230122617952
:106B9000207902F0D7FB61792079FFF7CFFFB0FAB7
:106BA00080F0A3794009022B20701ED100F0D6FBA3
:106BB0001D4A2B466179207900F0FAFBFF28024636
:106BC000607915D12A46184900F02EFCFF280546A9
:106BD00003D16521154829F067FE012361792079E9
:106BE000CDE900332A4602F03DFB002002B070BD23
:106BF00001232679014600933046002302F02AFC47
:106C00002A460949607900F00FFCFF28054603D1A8
:106C10007821064829F048FE002201236179207975
:106C2000CDE90023DEE700BF1D0D04084926050855
:106C300008B501213A2000F085FF01230422032139
:106C4000002002F07FFB00202AF0DFF90122354B03
:106C50003549C3F844244FF40022A3F550335A6653
:106C6000324BD3F8FC20D20146D4D1F8803023F047
:106C7000030343F00203C1F880304FF4607000F06A
:106C800089FF2A4B00F5D520D3F8F02000F2FC4014
:106C900042F00102C3F8F020D3F8FC2042F08072E9
:106CA000C3F8FC20224AA3F55D431A60214B02225F
:106CB000B0FBF3F0204B01381861C3F8F0204FF41B
:106CC0008072C3F804234FF060431C4A0020C3F8CD
:106CD000B02F1B4AC3F8802ED3F8002E42F48072E6
:106CE000C3F8002EFF2283F82020D3F8002E22F4D0
:106CF0008072C3F8002E08BDD3F8FC2022F0807209
:106D0000C3F8FC20D1F8802022F0030242F00202F6
:106D1000C1F88020D3F8FC2042F08072C3F8FC2038
:106D2000ABE700BF00D003500080005000ED00E052
:106D3000FF030040F8590D00000004E055CEACC53B
:106D4000090001004FF06043D3F8802E30B5D20720
:106D500015D501240B4D8440D5F8FC2042F08072FB
:106D6000C5F8FC20D3F8002E2243C3F8002E53F8B8
:106D70002020002AF0D003F82010002030BD112080
:106D8000FCE700BF00ED00E0032838B504460D46DF
:106D900005D8094B33F81030CB40DB0704D440F260
:106DA000FE31064829F080FD302301225C43044B6C
:106DB000AA401A5138BD00BFAE260508FD250508BA
:106DC00040E00350032838B504460D4605D8094B6A
:106DD00033F81030CB40DB0704D440F22D41064895
:106DE00029F062FD302301225C43044BAA401A5172
:106DF00038BD00BFAE260508FD25050840D003506C
:106E000038B504784578032C05D8094B33F814308D
:106E1000EB40DB0704D44FF48961064829F044FDB8
:106E2000302301225C43044BAA401A5138BD00BFF5
:106E3000AE260508FD25050840F0035070B505781D
:106E40000446032D467805D80C4B33F81530F34033
:106E5000DB0704D44FF48361094829F025FD102293
:106E6000302313FB0523074A9B58F34003F001002E
:106E7000A3780BB980F0010070BD00BFAE260508F5
:106E8000FD25050830C003502DE9F04F9A46564BBA
:106E900085B01B7806460F461546DDF83C909DF8F8
:106EA00044B0DDF85080002B00F09780072A00F2F4
:106EB00096800E9B002B00F09280B9F1000F00F03D
:106EC0008E80129BB3F5006F00F38980012803D1F7
:106ED000109B002B00F08380444B03EB05131B7BBE
:106EE000002B7ED0424C10220021684636F003FE73
:106EF00004EB45141022A7BB3946204636F0FBFDB3
:106F000043F210036380BBF1000F03D1E37843F039
:106F10000303E370364A0E9B02EB451CCCE9019358
:106F2000129B6901581E9DF84C30C0F30A0003F013
:106F300003039B0643EA001E53582E48012E00EA25
:106F400003004EEA0003CDF800A0535017D0B8F16B
:106F5000000F2ED19CF8023068F304138CF8023035
:106F600027E00021204636F0C6FD4FF444736380CD
:106F7000BBF1000FCED1E37843F03003C9E7132310
:106F80000CF1100ECCF80C309CE80F008EE80F00CE
:106F90006FF00301DCF81C20109B61F39F02012FAE
:106FA000CCF81C20CCF8143003D1CCF81890CCF8D5
:106FB000043000270D4A290102EB051342F8018035
:106FC000159A28465A60694622469F605E7302F011
:106FD000F9FA384605B0BDE8F08F0748FAE70748E8
:106FE000F8E70748F6E700BF065E0020E43E002011
:106FF000E43D00200F80FFF3028000F0018000F0EC
:10700000078000F038B5124B05461B78DBB1E0B1C4
:1070100029F0B1FF0F4A00231146147B54B92B60AD
:1070200001251A0101EB03131D738C5029F0A9FFF0
:10703000204638BD0133082B02F11002EDD129F0B2
:10704000A0FF0548F5E70548F3E70548F1E700BF6D
:10705000065E0020E43E0020048000F0028000F084
:10706000018000F038B529F086FF002305460B4A61
:10707000147B6CB90133082B02F11002F8D102F035
:1070800019FA074B28461C7029F07BFF204603E0C5
:10709000284629F076FF034838BD00BFE43E0020B3
:1070A000065E0020058000F00D4B10B51B780446ED
:1070B00093B1072812D829F05EFF0A4B03EB0413A3
:1070C0001A7B2AB100241C7329F05BFF204610BDF7
:1070D00029F057FF0448FAE70448F8E70448F6E7C0
:1070E000065E0020E43E0020068000F0028000F0F2
:1070F000018000F0154B13B51868002301908DF83E
:10710000043029F038FF124B1C7824B129F039FFE4
:10711000104802B010BD01221A7029F032FF0E4B48
:1071200001A81C731C7783F82C4083F83C4083F83B
:107130004C4083F85C4083F86C4083F87C40082323
:107140008DF8073002F0F4F92046E2E7B62605088C
:10715000065E0020038000F0E43E00200A4A08B5E5
:1071600012785AB107280BD8084A02EB00131B7B90
:1071700043B1002102F0BCF9002008BD0448FCE73F
:107180000448FAE70448F8E7065E0020E43E0020E1
:10719000028000F0018000F0078000F00A4A08B584
:1071A00012785AB107280BD8084A02EB00131B7B50
:1071B00043B1012102F09CF9002008BD0448FCE71E
:1071C0000448FAE70448F8E7065E0020E43E0020A1
:1071D000028000F0018000F0078000F00A4A08B544
:1071E000127852B107280AD8084A02EB00131B7B19
:1071F0003BB102F069FA002008BD0548FCE70548EC
:10720000FAE70548F8E700BF065E0020E43E0020EC
:10721000028000F0018000F0078000F00D4B1B7829
:1072200093B1072812D889B10B4B03EB00131B7BDA
:1072300073B10A4B1A6D01238340134214BF01231B
:10724000002300200B7070470548704705487047C1
:1072500005487047065E0020E43E00200000045010
:10726000028000F0018000F0078000F00B4A10B5AA
:1072700012780C4662B107280CD859B1084A02EBC3
:1072800000131B7B43B102F03BFA2070002010BDBD
:107290000448FCE70448FAE70448F8E7065E0020E3
:1072A000E43E0020028000F0018000F0078000F042
:1072B000184B2DE9F0411F6D5B6D1F4000D5FEE7B7
:1072C00001260025144CDFF85880374218D0236877
:1072D000C8F85060A3B1A168284601316268A16076
:1072E0009847637B012B0BD150B90C4B03EB451333
:1072F0001A7B60F341021A731A7F60F341021A7716
:107300000135082D4FEA460604F11004DDD1BDE831
:10731000F08100BF00000450E43E0020E43D002066
:107320000020045070B5044601250B4E04B970BD11
:1073300094FAA4F0B0FA80F005FA00F306EB00121C
:1073400024EA03045368002BF0D0117B11B191683B
:107350009847EBE79847E9E7643F002008B5192014
:1073600001F060F928B14FF00072074BC3F880219B
:107370001A601A2001F056F928B14FF08062024BD2
:10738000C3F880211A6008BD00E100E038B5054669
:107390000C4629F0F0FD0022044B03EB05135C6062
:1073A0001A73BDE8384029F0ECBD00BF643F0020EF
:1073B000F8B504460D4617461E4629F0DCFD1CB9FB
:1073C000052D1AD0FF2421E0012C05D1012D21D05B
:1073D000032DF7D1042410E0022C07D1052D1BD07A
:1073E000072D1BD0002DEDD1062406E0032CE9D19A
:1073F000022D15D0052DE5D10A240A4904F1100308
:1074000001EB03110123C1E901760B7329F0B9FDEA
:107410002046F8BD0324F0E70724EEE70824ECE754
:107420000924EAE7643F0020F8B505460E461746F2
:1074300029F0A1FD134B2C46D3F8242405F0FC01C0
:1074400022FA05F3DB0712D500230133DBB2042B4C
:1074500004D1FF2429F095FD2046F8BDEC1804F076
:1074600003040C4422FA04FC1CF0010FEDD1FF2CA4
:10747000F0D00122044B03EB0413C3E901671A7334
:10748000E8E700BF00C00350643F0020074BD3F87B
:107490002404D3F8202403F50053104000F05530A5
:1074A00020F05020C3F82004FFF73CBF00C0035079
:1074B000074BD3F82404D3F8202403F500531040DD
:1074C00000F0AA3020F0A020C3F82004FFF72ABF64
:1074D00000C00350024B1968024B18681BF0FEB93C
:1074E000341000205410002070B594002246054648
:1074F0000E4636F0D5FD431C0AD058B92246314617
:10750000284636F0CEFA0028034808BF002070BD98
:107510000248FCE70248FAE710E000F021E000F042
:1075200024E000F010B5044636F0B6FD431C10D040
:1075300088B902F045FA234620F00300204498421F
:1075400001D1002010BD53F8042B0132F7D00348BD
:10755000F8E70348F6E70348F4E700BF0EE000F061
:1075600021E000F024E000F008B529F0FDFC014B1B
:10757000186008BD54480020014B186829F0F8BC79
:1075800054480020044BD3F88420D206FBD4D3F80F
:107590008400C0F3811070470040005038B5124B92
:1075A0000546D3F880300C4603F00303022B0BD0C2
:1075B000032B0DD0012B0FD1FDF7A4FB0E2305B13A
:1075C000286004B1236038BDFDF7E6FB0723F6E72A
:1075D000FDF792FB0623F2E7044841F2DF1129F0A0
:1075E00063F900231846EAE700800050DD2605080D
:1075F00038B51A4B0546D3F820010C4600F00700B9
:10760000062821D8DFE800F028040C1410181C000C
:10761000FDF772FB052305B1286004B1236038BD76
:10762000FDF7A0FB0323F6E7FDF7B6FB0723F2E720
:10763000FDF7AEFB0223EEE7FDF75EFB0623EAE76C
:10764000FDF790FB0423E6E7054841F25C2129F0B1
:107650002BF900231846DEE70123DCE70080005009
:10766000DD26050838B5194B0546D3F828310C46F8
:1076700003F00703013B052B20D8DFE803F00313D9
:107680001B0F0B17FDF738FB052305B1286004B16C
:10769000236038BDFDF730FB0623F6E7FDF77CFBE2
:1076A0000723F2E7FDF75EFB0323EEE7FDF75AFB46
:1076B0000423EAE7FDF76CFB0223E6E7044841F206
:1076C000640129F0F1F800231846DEE7008000503D
:1076D000DD260508F7B50027144B0197D3F8804144
:1076E000064604F00304022C0D4614D0032C0DD0E2
:1076F000012C14D1394601A8FFF77AFF10240EB1EE
:10770000019B336005B12C6003B0F0BDFDF744FB75
:1077100007240190F3E7FDF73BFB0190EFE741F20F
:10772000B131034829F0C0F83C46E8E7008000503A
:10773000DD260508002337B50193194B0546D3F81C
:1077400020320C4603F00703042B1FD8DFE803F0B8
:1077500025030F141900002101A8FFF783FF12234E
:107760000DB1019A2A6004B1236003B030BDFDF76A
:1077700013FB07230190F3E729F090F80A23019007
:10778000EEE7FDF74BFB09230190E9E741F2230106
:10779000044829F089F80023E2E70123E0E700BF6D
:1077A00000800050DD26050838B5104B0546D3F89B
:1077B00040310C4603F00303022B0BD0032B0DD0FA
:1077C000012B0FD129F06AF80A2305B1286004B112
:1077D000236038BDFDF722FB0923F6E729F061F8A5
:1077E0000C23F2E701230020EFE700BF00800050E8
:1077F000002337B50193184B0546D3F860320C4689
:1078000003F00703013B032B1FD8DFE803F0020E50
:107810001914002101A8FFF7EBFE10230DB1019A06
:107820002A6004B1236003B030BD002101A8FFF736
:10783000BBFF1123F2E7FDF7AFFA07230190EDE755
:10784000FDF7A6FA02230190E8E741F2C8010348D8
:1078500029F02AF80023E1E700800050DD26050822
:10786000002337B50193184B0546D3F894320C46E4
:1078700003F00703013B032B1FD8DFE803F0020EE0
:107880001914002101A8FFF7B3FE10230DB1019ACE
:107890002A6004B1236003B030BD002101A8FFF7C6
:1078A00083FF1123F2E7FDF777FA07230190EDE755
:1078B000FDF76EFA02230190E8E741F2FB0103486D
:1078C00028F0F2FF0023E1E700800050DD260508E4
:1078D00073B500240F4B0194D3F87032064603F0C1
:1078E0000303012B0D4607D0022B11D041F22611C4
:1078F000094828F0D9FF04E0214601A8FFF754FF0A
:1079000011240EB1019B336005B12C6002B070BD33
:107910001524F6E700800050DD26050838B5164B23
:107920000546D3F800020C4600F00700042819D8D9
:10793000DFE800F020030B0F130028F0AFFF0A234D
:1079400005B1286004B1236038BDFDF767FA09234B
:10795000F6E728F0A6FF0C23F2E7FDF7EDF90F2379
:10796000800AEDE7054841F26F4128F09DFF0023B2
:107970001846E5E70123E3E700800050DD2605080F
:1079800038B5164B0546D3F808020C4600F0070040
:10799000042819D8DFE800F020030B0F130028F0AB
:1079A0007DFF0A2305B1286004B1236038BDFDF7CF
:1079B00035FA0923F6E728F074FF0C23F2E7FDF708
:1079C000BBF90F23800AEDE7054841F2A74128F0F3
:1079D0006BFF00231846E5E70123E3E70080005032
:1079E000DD26050838B5104B0546D3F840320C4665
:1079F00003F00303022B0BD0032B0DD0012B0FD16F
:107A000028F04CFF0A2305B1286004B1236038BD7B
:107A1000FDF704FA0923F6E728F043FF0C23F2E709
:107A200001230020EFE700BF0080005038B5104B65
:107A30000546D3F860310C4603F00303022B0BD04C
:107A4000032B0DD0012B0FD128F028FF0A2305B1FD
:107A5000286004B1236038BDFDF7E0F90923F6E79B
:107A600028F01FFF0C23F2E701230020EFE700BFFF
:107A700000800050B0F5207F10B52ED009D8B0F5A9
:107A8000007F24D003D868B1B0F5C07F0AD00024AD
:107A90001BE0B0F5607FFAD1124BD3F88040C4F3FD
:107AA000011412E00F4B1C6F230B13F00E0FC4F3E5
:107AB00003340AD0072C08D00F2C06D0032C04D096
:107AC00040F28521084828F0EFFE601C10BD054BF0
:107AD000D3F89040C4F30464F7E7024B1C6FC4F37F
