:020000040801F1
:1020000000100020F54C0108EB080408EB08040858
:10201000EB080408EB080408EB080408EB080408C4
:10202000EB080408EB080408EB080408EB080408B4
:10203000EB080408F825050871000408EB080408FB
:10204000EB080408EB080408EB080408EB08040894
:10205000EB080408EB080408EB080408EB08040884
:10206000EB080408EB080408EB080408AD3E01087F
:102070005F010408EB080408EB0804084555010853
:10208000EB080408EB080408EB080408EB08040854
:10209000EB080408BD730108EB080408EB0804080A
:1020A000EB080408BD75010899750108EB080408E0
:1020B000EB08040851910308DD9B03083FB70408AF
:1020C0003BB70408859303084BB7040843B70408DB
:1020D000B59B030847B704081D9C0308899C0308A7
:1020E000EB080408EB080408EB080408EB080408F4
:1020F00099210408EB080408EB080408EB0804081D
:10210000EB080408EB080408EB080408EB080408D3
:10211000EB080408EB080408EB080408EB080408C3
:10212000EB080408EB080408EB080408EB080408B3
:10213000EB080408EB080408EB080408EB080408A3
:10214000EB080408EB080408EB080408A7240408BB
:10215000E9790308EB080408D1B30408D7B30408ED
:10216000EB080408EB080408EB080408EB08040873
:10217000013800D0FCE77047D0B51BA7D7E900674E
:102180002DED028B04469FED1A8AD4ED007AF4EE11
:10219000C87AF1EE10FA0EDA13A7D7E900679FEDBF
:1021A000158AD4ED007AF4EEC87AF1EE10FA0ED466
:1021B000BDEC028BD0BD17EE900A2AF02DFC324602
:1021C0003B462AF0C9FA2AF041FF2060DDE717EE0E
:1021D000900A2AF021FC32463B462AF0BFFA2AF048
:1021E00035FF2060DDE700BF182D4454FB21194066
:1021F000DB0F4940DB0F49C038B50022164B51ECCC
:10220000100B2AF061FC10A3D3E9002304460D460D
:102210002AF0EAFE70B90EA3D3E90023204629462E
:102220002AF0C4FE58B9204629462BF045FA00EEA4
:10223000100A38BD47F6FF3300EE103AF9E74FF6C3
:10224000FF33F9E7AFF300800000000000FCEF402F
:102250000000000000FCEFC00000E04000000000B3
:10226000002370B5404C05468AB0E36318B100887E
:10227000236013F02FF93D4838F0DBFD3C4E3D4B19
:10228000304633603C4B736034F0B3FA0021304683
:1022900020F050FF32A3D3E90023A062C4E9062353
:1022A00034F0B2FAD4E9062319431043C4E9060115
:1022B000CDE900014FF0FF334FF0FF32A06A38F054
:1022C00005FE02224FF0FF31A06A38F004FE012023
:1022D00012F082FE4FF4007300222849A06A38F001
:1022E0004BFEB0F5007F38D100239422CDE90733AF
:1022F00009933C23CDE9033205939623A06A03A9F1
:10230000069321F035F835B3287C13F09BFA054687
:10231000F0B9A06A38F00EFF13F042FA12F03EFE58
:1023200020B14FF4807000210FF0C8FD12F046FE7E
:1023300020B14FF4006000210FF0C0FD34F028FB05
:10234000012020F04BFF0E4A0E49A06A34F04FFAEC
:1023500028460AB070BDFF20D7E70725F8E700BF81
:102360000DD501552000000050160020690345ECF2
:10237000A43300205D4E0208B4330020A4310020B5
:1023800097670408D76704082DE9F74F0446DDE98D
:102390000C7B886816469A460D462AF03DFB80461F
:1023A000B06889462AF038FB02460B46404649464B
:1023B0002AF08AFB80468946BAF1000F1BD0DAF872
:1023C00008002AF029FB02460B46404649462AF0FF
:1023D000C3F98046B86821F000492AF01DFB024687
:1023E0000B46404649462AF099FC12A3D3E9002344
:1023F0002AF0E6FD50B13B46324629462046CDF84C
:1024000030B003B0BDE8F04F27F008BE064B2046C1
:102410000093656940F24513044A0549A847012025
:1024200003B0BDE8F08F00BFE38E0508308E0508CD
:102430004C4405087B14AE47E17A943F000000004D
:102440002DE9F84F4FF000432DED028B23FA00F0F9
:1024500057EC106B59EC118B93468A462AF0CAFA56
:10246000424604460D464B46304639462AF02CFB80
:1024700002460B46204629462AF026FB02460B461A
:1024800043EC182B0AA3D3E900232AF0ADFD08B1D1
:102490009FED078B59465046B0EE480AF0EE680AA9
:1024A000BDEC028BBDE8F84F28F004B8AFF3008014
:1024B0000000C0FFFFFFDF412DE9F0432DED028B4F
:1024C00099460B7F89B0072B04460F461546129E8E
:1024D0001AD140F20241836B984740B9AC4B00934C
:1024E000272365692046AB4AAB49A84799E0B0620B
:1024F00040F202412046A36B984720B9A74B0093B6
:1025000065692B23EEE7F0622A7F3B7F072A08D11B
:10251000092B3DD0072B13D0A14B009365693123C4
:10252000E0E79A4234D0CDE902329E4B01939E4BB4
:102530000093342365692046964A9C49A84770E079
:10254000D5F80C80B8F1000F09D00023CDE9028343
:10255000974B0193974B009365693923EBE741460D
:10256000DFED950A47F6FF709FED940AB36A944A2F
:1025700029F0CAF9F36A4146DFED8F0A9FED910A0F
:10258000914A924829F0C0F9EB68F361AB68336275
:1025900097F81C80B8F1090F45D0B8F1070F40F04B
:1025A0003781FB684BB10022CDE90232804B0193A9
:1025B000874B009365695B23BDE7EA6842B1CDE9CB
:1025C00002237B4B01937B4B009365695C23B2E74D
:1025D000DFED807A95ED027AB4EEE77AF1EE10FA4B
:1025E000DFED7D6ACCBF77EE677A77EEC77AF4EEDF
:1025F000E67AF1EE10FA7EDD4FF07C53002217EE02
:10260000100ACDE904232AF007FA744BCDE9020140
:102610000193734B00935D23656920465D4A7149C0
:10262000A847012086E0287F072832D1EB6813F500
:10263000004F09D0654ACDE902326B4B01935D4BE7
:1026400000936569622376E7DFED687A95ED027A9B
:10265000B4EEE77AF1EE10FADFED656ACCBF77EE03
:10266000677A77EEC77AF4EEE67AF1EE10FA66DD75
:102670000022604B17EE100ACDE904232AF0CCF9B2
:102680005D4BCDE902010193554B009365696323CE
:10269000C3E7092812D0666927F084FC0546404646
:1026A00027F080FC554BCDE9025001933D4B009340
:1026B00066232046374A5249B047B2E7EB6813F128
:1026C000800F0AD06FF07F02CDE902324D4B0193AB
:1026D000384B0093656967232DE795ED027ADFEDAE
:1026E0004A7AB4EE677AF1EE10FA28D0474B00939D
:1026F00065696823F6E6B8682AF08EF90446D9F8C9
:1027000000000D462AF088F902460B46204629466D
:102710002AF0DAF91CA3D3E900232AF0FFFA06F124
:10272000080841EC100B404607A927F07BFE079BE9
:10273000F360002009B0BDEC028BBDE8F083B868FF
:102740002AF06AF941EC180BD9F800002AF064F974
:1027500006F1080441EC100BB0EE481AF0EE681ACE
:102760002146052007AAFFF76BFE07991F22F1609B
:10277000052039F0EFF82AF03DF901F100412AF087
:102780003DFCB061D5E700BF140014001400243FE5
:10279000E0A1050863A105084C440508F7A1050858
:1027A000878F0508CFA00508DCA00508B9440508F7
:1027B000E18E05081AA2050880000038A000203923
:1027C000EDBC040880008037DFBC04080080FFFFF8
:1027D00034A20508000000386F1203336DA205080B
:1027E00079A205084DA205088EA2050800008037D1
:1027F0006F1283320000F03E95A20508A1A20508E1
:10280000B5A00508ADA205080000803BB2A20508EE
:10281000B8F1010F0FD04046666927F0C3FB0546AB
:10282000012027F0BFFB104BCDE9025001930F4B65
:10283000009385233DE7287F01280ED0666927F0A5
:10284000B1FB0546404627F0ADFB074BCDE90250F2
:102850000193074B009386232BE7D9F800002AF059
:10286000DBF8C6E9000164E7909D0508DCA00508D7
:10287000CFA00508000000002DE9F04FC76997B010
:102880008346209E08910C92129355EC104B8DEDCF
:10289000000B7FB910202BF097FC0246CBF81C00F0
:1028A00020B9A74BEF21A7482BF056FCC0E90177D0
:1028B0000760C760DBF81C30196859B15A680123FA
:1028C000584693404A608B602CF020FBDBF81C30AC
:1028D00000221A602B1EB7BF23F000430023012201
:1028E0000193A8BF3360019F974BB8BF3260BB43D1
:1028F00019D142F20F73129A1360C7F313032343E3
:1029000000F0DB85219B53B9904B21E0904B039362
:102910000833219A1360039817B0BDE8F08F8B4BF2
:1029200003930333F5E79DED007B0022002351EC78
:10293000170B8DED0A7B2AF02FFB804650B1012347
:10294000129A1360219B13B1824B219A1360824B20
:102950000393E0E7C7F30A5614AA15A958469DED5C
:102960000A0B2CF05BFD0290002E76D00B9BA6F29A
:10297000FF36CDF84C80C3F3130343F07F53DDE9FA
:102980000A0143F4401319460022744B29F0E4FE77
:1029900065A3D3E900232AF097F865A3D3E90023C0
:1029A00029F0DCFE04460D4630462AF023F862A3E7
:1029B000D3E900232AF088F802460B462046294630
:1029C00029F0CCFE04460D462AF018FB00220746EB
:1029D0000023204629462AF0E9FA40B138462AF079
:1029E00009F822462B462AF0D7FA00B9013F162FE4
:1029F00052D85B4B03EBC703DDE90A01D3E900239F
:102A00002AF0D4FA002849D0013F00231193149BE7
:102A10009B1B5A1E4CBFC3F101030023079245BF05
:102A20000693002306930793002F39DB079B10972B
:102A30003B44079300230993089B092B66D8052B79
:102A4000C5BF043B002401240893089B023B032BD1
:102A500067D8DFE803F02D3A3859DDE914631E44E6
:102A600006F23243202BC9BFC3F14003C3F1200358
:102A70009F4006F21243D8BF04FA03F006F1FF3676
:102A8000C4BF24FA03F347EA030029F0A3FF01229D
:102A9000A1F1F873139276E70123B7E71190B6E737
:102AA000069BDB1B06937B42099300231093C3E72D
:102AB00000230D930C9B002B56DC012399461A46EC
:102AC00004930C920CE00123F3E700230D930C9B7D
:102AD000FB1803F1010904934B46012BB8BF0123F6
:102AE000DBF81C000021042202F114059D423FD9AD
:102AF000416058462CF0CAF9039000283BD1194B8D
:102B0000024640F2AF11CEE60123DFE701240023A5
:102B10000D9408934FF0FF3300229946049312233B
:102B2000CFE701230D93F5E761436F63A787D23F9A
:102B3000B3C8608B288AC63FFB799F501344D33FAC
:102B40000EAE050825AE05080000F07F589C05086C
:102B500005AE0508E28E0508E18E05080000F83F85
:102B600020AF05087EAE05080C9B99460493B7E795
:102B700001315200B8E7DBF81C30B9F10E0F039AAF
:102B80001A606FD8002C6DD0002F36DD07F00F02D1
:102B9000A04BF8054FEA271403EBC20393ED007B2B
:102BA0008DED0E7B17D59C4B04F00F044FF00308FE
:102BB000D3E90823DDE90A012AF0B0F8CDE90001E4
:102BC000954D5CB9DDE90E23DDE900012AF0A6F898
:102BD000CDE900012BE04FF00208F1E7E10709D54C
:102BE00008F10108DDE90E01D5E9002329F06CFFA9
:102BF000CDE90E0164100835E3E700F007817C425F
:102C0000844B854D4FF0020804F00F02241103EBB2
:102C1000C203DDE90A01D3E9002329F055FF0023AF
:102C2000CDE90001002C40F0E580002BD0D1119BB4
:102C3000DDE90045002B00F04C810022774B204657
:102C400029462AF0B3F9002800F04381B9F1000FBA
:102C500000F03F81049B002B00F3E480DDE90A349F
:102C6000CDE90034159B002B02DB0E2F40F342828E
:102C70000D9A002A40F06782099C0025DDF8188033
:102C8000B8F1000F0DD0079B002B0ADD4345069AD3
:102C9000A8BF4346D21AA8EB03080692079AD31A94
:102CA0000793099B0BB30D9B002B00F0A682002C11
:102CB00000F0A1822946224658462CF051FA029A89
:102CC0000146054658462CF0A1F902990646584699
:102CD0002CF01CF9099B1B1B099300F09182099AA7
:102CE000314658462CF03CFA0290012158462CF00F
:102CF00077F9109B0446002B00F084821A460146A7
:102D000058462CF02DFA089B0446012B03DC009B4F
:102D1000002B00F07C820026236904EB83031869F2
:102D20003BF0A1F8C0F120001096079B184410F06A
:102D30001F0000F09182C0F12003042B40F3818238
:102D4000C0F11C00069B034480440693079B034488
:102D50000793069B002B05DD1A46029958462CF076
:102D600059FA0290079B002B05DD21461A4658466A
:102D70002CF050FA0446119B002B00F0768221467D
:102D800002983BF0BFF8002880F26F8200230A22ED
:102D9000029958462CF0DCF80D9B7E1E0290002B09
:102DA00000F05C82002329460A2258462CF0D0F815
:102DB000049B0546002B03DC089B022B00F35E827C
:102DC000B8F1000F05DD2946424658462CF022FA9C
:102DD0000546109B002B00F0D082696858462CF005
:102DE00055F80746002840F07F820D4B024640F21E
:102DF000EF2158E5E20706D508F10108D5E90023DF
:102E000029F062FE0123641008350BE74FF0020839
:102E10000DE700BF20AF0508F8AE05080000F03F41
:102E20007EAE050820460022AC4B294629F04CFE18
:102E30007E1E08F10108049CCDE90001404629F0FE
:102E4000D9FDDDE9002329F03FFEA54B002229F042
:102E500085FCA1F15073CDE90E010F93002C3BD1FD
:102E60000022A04BDDE9000129F076FC02460B466A
:102E7000CDE90023DDE90E232AF0B6F8002840F062
:102E80005781DDE90E2101F10043DDE900012AF05F
:102E90008DF800283FF4E2AE002425460C9BDDF8B7
:102EA0000CA0DE434FF00008214658462CF02EF8C7
:102EB000002D00F0A980B8F1000F05D0A84503D07F
:102EC000414658462CF022F8294658462CF01EF868
:102ED0009AE03E464C46B1E7834B03EBC40353E90B
:102EE0000201039B1C440D9B002B4AD002460B465B
:102EF00000207E4929F012FFDDE90E2329F02CFC89
:102F0000DDF80CA0CDE90E01DDE900012AF076F82C
:102F1000054629F06FFD024630350B46DDE900011C
:102F200029F01AFC0AF8015B02460B46CDE90001C4
:102F3000DDE90E012AF058F8002865D100206C491F
:102F4000DDE9002329F008FC02460B46DDE90E010D
:102F50002AF04AF8002840F00D81A24500F0EA80EE
:102F600000225E4BDDE90E0129F0AEFD00225B4B35
:102F7000CDE90E01DDE9000129F0A6FDCDE9000152
:102F8000C2E7DDE90E2329F09FFDA046DDF80CA085
:102F9000CDE90E01DDE900012AF030F8054629F0FF
:102FA00029FD024630350B46DDE9000129F0D4FB4E
:102FB0000AF8015B02460B46A245CDE900234FF01B
:102FC000000223D1494BDDE90E0129F0C7FB02467F
:102FD0000B46DDE900012AF007F8002840F0CA801E
:102FE00000204249DDE90E2329F0B6FB02460B46DC
:102FF000DDE9000129F0DAFF70B1C24608F1FF38BF
:103000001AF8013C302BF8D0374655E0334B29F005
:103010005BFDCDE90001BDE7DDE90A34CDE900340F
:10302000159B002BFFF628AE0E2F3FF725AE2E4B3B
:1030300003EBC70393ED007B0C9B002B8DED047B12
:1030400002DAB9F1000F64D0DDF80CA0DDE900452B
:10305000DDE904232046294629F060FE29F0CEFF51
:10306000064629F0C7FCDDE9042329F02DFD0246C0
:10307000204606F130040B46294629F06DFB0AF87C
:10308000014B039C02460B46AAEB0404A14540F009
:10309000828029F063FB04460D46DDE9042329F014
:1030A000A3FF002865D120462946DDE9042329F045
:1030B00073FF08B1F3075CD4029958462BF026FF42
:1030C000002301378AF80030129B1F60219B002BE0
:1030D0003FF421ACC3F800A01DE400BF0000244071
:1030E00000001C400000144020AF05080000E03F35
:1030F0000000F03FA24B03EBC70393ED007B0C9B5A
:10310000002B8DED047B9FDAB9F1000F9CDC7FF47E
:10311000C3AE00229B4BDDE9040129F0D5FCDDE9BB
:10312000002329F057FF044600287FF4B5AE3E4641
:103130002546B4E0DDE90A34CDE90034159B002BC7
:1031400001DB0E2FD6DD089A012A36DC139A82B3F2
:1031500003F23343099CDDF81880069A0121584692
:103160001A440692079A1A4407922BF039FF054633
:1031700086E53E4653469A4613F8012D392A06D174
:10318000039A9A42F7D13022039901360A701A78CD
:1031900001321A7038E700227B4B29F095FC00229F
:1031A000002304460D4629F0F7FE00283FF450AFF7
:1031B00082E7149BC3F13603CCE709F1FF34099B86
:1031C000A34208DBB9F1000FA3EB04040EDBDDF82A
:1031D00018804B46C1E7099B109AE31A0994DDF861
:1031E000188000241A444B461092B6E7069BA3EBC6
:1031F00009080023B1E7029E71E5099A029970E57A
:10320000029672E5089B012B17DC009BABB9019B72
:10321000C3F313039BB9019B23F00046360D36051B
:1032200036B1069B012601330693079B01330793B2
:10323000109B002B7FF470AD1096012075E50026E1
:10324000F6E73FF486AD1C33069A1A44984406927A
:10325000079A1A4407927CE50346F4E7049B002B87
:103260002BDC089B022B09DC27E0B9F1000F1DDCE9
:10327000089B022B1ADD3E46CDF81090049B002BD4
:103280007FF40CAE2146052258462BF061FE014624
:10329000044602983AF036FE00287FF7FFADDDF8CD
:1032A0000CA0312301360AF8013BFBE50D9B3E469D
:1032B000CDF81090002B7FF483AD039F2146029838
:1032C0003AF044FD039B00F13009049A07F8019B92
:1032D000FB1A9A4240F3CB8000230A2202995846F7
:1032E0002BF036FE0290E9E72A6905F10C010C305B
:1032F000023292003AF015FD0122394658462BF071
:1033000089FF039BA846054603F1010ADDE9032373
:1033100013440793009B03F0010309930AF1FF3361
:103320002146029804933AF011FD4146069000F1BF
:10333000300902983AF0E6FD2A46214607465846EB
:103340002BF0D4FFC268014602B358462BF0DEFDD5
:10335000002F3ADA0122029958462BF05BFF2146F2
:1033600002903AF0CFFD002803DC29D119F0010FBB
:1033700026D0B9F1390F1DD132E02846C1E700BF90
:1033800020AF050800001440000024400A90029875
:103390003AF0B8FD0A990C9058462BF0B7FD0C9AFC
:1033A0005ABB089B53B9099B43B9B9F1390F17D0E0
:1033B000002F05DD069B03F1310901E0002F2ADA19
:1033C000DDF810A00AF8019B6EE5089B3B4304D191
:1033D000009B03F00103002BBCD0B9F1390F36D1AB
:1033E000049F392307F8013BBA46013F1AF8013C14
:1033F000392B5AD001333B7056E5002F06DB089B72
:103400003B4306D1009B03F0010313B9002AA1DC62
:10341000D6E7002AE1DC079B57460AF8019C534592
:103420002ED000230A22029958462BF091FDA84580
:1034300002904FF000034FF00A02414658460BD16C
:103440002BF086FD804605460AF1010A66E7DDF8A5
:1034500010A009F10109B5E72BF07AFD2946804655
:1034600000230A2258462BF073FD0546ECE7049B27
:103470004FF00008002BCCBF1F460127039B1F44C1
:103480000122029958462BF0C5FE214602903AF0DF
:1034900039FD0028A8DC02D119F0010FA4D1BA46E9
:1034A00017F8013D302BFAD0FEE4039BBB429BD1C1
:1034B0003123039A01361370F6E4219B002B7FF42D
:1034C00025AA014BFFF744BA05AE0508000000002D
:1034D00051EC100BC1F30A532DE9F041A3F2FF3573
:1034E0000C460646132D32DC002D20DB384B0F46F0
:1034F00043FA05F801EA080303432DD032A3D3E9C8
:10350000002329F02BF90022002329F06DFD40B1A2
:10351000002C03DA4FF480132B411F4427EA0804E0
:1035200000262346324643EC102BBDE8F08126A34B
:10353000D3E9002329F012F90022002329F054FDD9
:103540000028EED0002C2ADB00263446E9E7332D94
:1035500006DDB5F5806F1BD041EC100BBDE8F081A6
:10356000A3F213434FF0FF37DF400742F4D016A316
:10357000D3E9002329F0F2F80022002329F034FDDA
:103580000028CED0002C334610DB23EA0706C8E71C
:1035900002460B4629F0E2F841EC100BDEE724F07E
:1035A000004426430DD14FF00044BAE7142D06D055
:1035B000C5F134050122AA401344B342E5D20134D7
:1035C000E3E70026034CACE79C7500883CE4377EBB
:1035D000FFFF0F000000F0BF0348044B834202D0FE
:1035E000034B03B118477047E0150020E015002099
:1035F00000000000064B0749C91A891048BF013175
:10360000491003D0044B0BB101481847704700BF65
:10361000E0150020E01500200000000010B5064C69
:10362000237843B9FFF7D8FF044B13B10448AFF335
:1036300000800123237010BD4840002000000000DE
:1036400054B0050808B5054B1BB105490548AFF353
:103650000080BDE80840FFF7CDBF00BF00000000BC
:10366000C018002054B00508A3F5803A704700BF89
:10367000174B002B08BF134B9D46FFF7F5FF0021AA
:103680008B460F461348144A121A3AF0EBFA0E4BC7
:10369000002B00D098470D4B002B00D098470020FE
:1036A000002104000D000D48002802D00C48AFF3A3
:1036B00000802BF047FB200029002CF0CDFC2AF0E5
:1036C00071FD00BF000008000000000000000000C5
:1036D00000100020E0150020A8410020000000009C
:1036E000000000000122014B1A7070474940002081
:1036F00008B504482DF05AFCBDE8084002482DF0FA
:1037000055BC00BF341A00204C1A00201FB54FF4DE
:103710007A7003A909F012FF034638B90122039910
:10372000CDE90002034A04482EF069FE05B05DF8B9
:1037300004FB00BFF1360108E018002008B50A4874
:103740002BF02EFA09482BF02BFA09482BF028FA17
:1037500008482BF025FA08482BF022FABDE808406B
:1037600006482BF01DBA00BF60E204088FE204088F
:10377000BDE20408EAE2040816E3040841E3040891
:1037800013B531482BF00CFA0BF066FF2F4C20607C
:103790000BF05CFF2E4B22681860536919680429EE
:1037A0000BD15868012808D198685A2805D1DB68E0
:1037B000032B02D1137F012B23D026482BF0DEF9F7
:1037C000236825485B6959682BF0D8F9236823489A
:1037D0005B6999682BF0D2F9236821485B69D96845
:1037E0002BF0CCF923681F48197F2BF0C7F91E482E
:1037F0002BF0D6F946211D4802B0BDE810402DF04F
:103800001DB993691A4A9B08136000F0EFF820B1C4
:1038100018482BF0C5F95021EDE70021084600F0CB
:103820000BF903460028F8D1134AC8211070CDE9DE
:103830000000124A124809F09FFE124802B0BDE88B
:1038400010402BF0ADB900BF6BE30408DC1800207A
:10385000D818002091E30408B4E30408DAE304086C
:1038600001E4040827E4040854E4040881E404089B
:103870002019002091E4040849400020E5360108A1
:1038800000190020B6E4040807B501468DF80700CA
:1038900006482BF073F901211B200DF1070214F0EB
:1038A000E9FE00B1FEE703B05DF804FBC2E40408E2
:1038B0002C4B70B51B681D692B4B28461C680323D5
:1038C00094FBF3F4214600F0B7F8012849D0274BC8
:1038D0001A78002A45D00022254E1A70306827F049
:1038E00063F8014620B1BDE8704022482BF058B97A
:1038F000306826F04FFE22462946006900F044F960
:1039000003282ED8DFE800F0020F1C261A482BF0FF
:1039100035F91A482DF047FBFFF7F8FE0120BDE806
:103920007040FFF7B1BF16482BF028F913482DF06F
:103930003AFB14482DF037FBFFF7E8FE0220EEE7D4
:1039400011482BF01BF90F482DF02DFBFFF7DEFE81
:103950000320E4E70D482DF026FBBDE87040FFF79B
:10396000D5BE70BDDC180020201900204940002081
:10397000D8180020D7E40408F0E40408341A002022
:1039800004E504084C1A00201BE504081C1A00205A
:1039900037B501F0DBF800B301F0B6F8684601F086
:1039A00079F806220E490F4C0B68BDF800505A43B7
:1039B000A018A552BDF8022001334280BDF80420B2
:1039C000592B82800B6008DDC72B4FF00100C8BF68
:1039D0000023054AC8BF0B60107003B030BD00BFA4
:1039E00024190020443B00204A40002013B500F079
:1039F000E1FF0446C8B9B3EE090A01F005F8012257
:103A000023461146104605F023FD224609490120B0
:103A100003F090FDFF2802464FF0010108D0234635
:103A20000846CDE9001105F0A3FC204602B010BD08
:103A30000C46FAE791390108F8B51D4B04461B788E
:103A40000E4693B32DF05AFB4FF0060C194B1A4952
:103A50001A682346951BB41A6219964203DC2DF0AE
:103A600051FB0020F8BD2A46002DB8BF05F1C80261
:103A70000CFB02F28F18B7F902E08A5EB7F9047006
:103A800007EE10EA07EE907A06EE902AB8EEC77AB3
:103A9000F8EEE66AF8EEE77AC3ED006A83ED017AA4
:103AA000C3ED027A01350C33D6E70120DAE700BF17
:103AB0004A40002024190020443B002008B5FFF7AD
:103AC0003DFE05482DF06FFAFFF75AFEBDE80840AD
:103AD000024803F0D9B800BF1C1A0020A8E8040867
:103AE00008B508482DF0F8F90128074805D12DF050
:103AF0005AFABDE80840FFF7DBBEBDE808402DF0EC
:103B000055BA00BFA8E804081C1A002003681B4A25
:103B100023F47F4323F00703934213B504D0184ADC
:103B200093421DD002B010BD164C204614F012FD79
:103B300000B1FEE70221207814F046FD034600B1F3
:103B4000FEE7A02200901146207814F01BFD00B182
:103B5000FEE70221207814F04BFD0028E2D0FEE7BA
:103B6000084C0221207814F02FFD00B1FEE702215D
:103B7000207814F03DFD0028D4D0FEE7A00001001D
:103B8000A0000601C01300209FED2B7A0FC8F0B5EE
:103B90002A4F2B4C3D68F0EE475A6E1C052EA8BFED
:103BA000002604EB051585E80F00B1EE046A2346F4
:103BB00000224FF0FF303E60F3EC017AD3ED036A50
:103BC00077EEA57A77EEA67AD3ED076A77EEA67A36
:103BD000D3ED0B6A77EEA67AD3ED0F6A77EEA67A6D
:103BE000411CC7EE866A04D0F4EEC76AF1EE10FA03
:103BF00002DDB0EE667A10460132042ADCD1114BA8
:103C00001A68002AC4BF02F1FF321A60032810D0DC
:103C1000DFED0D7AB4EEE77AF1EE10FA0AD40B4A32
:103C20001168814202D11968002903DC1221106059
:103C30001960F0BD0320FCE7000000002C190020F3
:103C400030190020281900206666663F0410002005
:103C50007FB50368244A23F47F4323F0070393428C
:103C60003ED1002108221420204B14F0D5FC01463F
:103C700000B1FEE7032216201D4B14F0CDFC0146D7
:103C800000B1FEE7052218201A4B14F0C5FC00B164
:103C9000FEE70DF1070102A814F002FD014600B194
:103CA000FEE7BDF80C3008225BBAADF810309DF885
:103CB0000B3012208DF81230FF238DF81330FE23C5
:103CC0008DF814309DF80A308DF81530BDF80830A5
:103CD0005BBAADF8163004AB14F09EFC00B1FEE701
:103CE00007B05DF804FB00BFA00001002FE5040849
:103CF00038E504083CE5040808B509F09BFE18B156
:103D00002A2106482CF09AFE14F0CAFA28B1BDE820
:103D10000840302101482CF091BE08BD3EE804085F
:103D200010B5274C04F0E4F904F0D6FC236F23F01F
:103D3000070343F0030323672DF0CBF9214B002049
:103D40009B6ADB015EBF4FF480321F4B9A62D4F84E
:103D5000203123F0070343F00203C4F82031D4F8E4
:103D6000283123F0070343F00203C4F82831D4F8C4
:103D7000403123F0030343F00203C4F84031D4F888
:103D8000603123F0030343F00203C4F86031D4F838
:103D9000403223F0030343F00203C4F84032D4F866
:103DA000003223F0070343F00203C4F80032D4F8D2
:103DB000083223F0070343F00203C4F8083210BDB1
:103DC000008000500040005A0060005A30B5234D7A
:103DD0009DB008AC0FCD0FC495E80F0084E80F002C
:103DE0002C22002111A839F03DFF1D4B0124109316
:103DF000562312930523159306230E2200210DF15D
:103E000012008DF84540179339F02CFF4FF47020C5
:103E1000144B08AACDE902030B238DF810300C23B4
:103E20008DF81130104B1148059320230693104B49
:103E300002A9009310AB8DF81D4007F0FDFF04466A
:103E400018B17C210B482CF0F9FD00214FF4E13032
:103E50002CF034FA20461DB030BD00BF88E80408BD
:103E60000000015B3C00015B4B400020F01900208A
:103E70008019002058E80408022905D8034B1B6864
:103E8000186808B1436A1847704700BF081000203F
:103E900008B50449044808F0E5FDBDE80840FFF70F
:103EA00095BF00BF0C100020141A002001482EF00E
:103EB000C8B900BFF0190020014B1A6A18681047F2
:103EC000F019002001482CF0EDBF00BFA8E804085D
:103ED000DFF860C0F8B56446114D124F0FCD0FC426
:103EE00095E8030084E803003C460F4D0F4E0FCDCC
:103EF0000FC495E8030084E8030034460C4D0FCD51
:103F00000FC495E8030084E8030060462DF048F8EC
:103F100038462DF045F83046BDE8F8402DF040B861
:103F2000D8E80408341A0020F0E804081C1A00201D
:103F3000C0E804084C1A0020044B1878082803D065
:103F4000023818BF012070470020704781400020D0
:103F5000054B1B78082B04D0022B14BF0120042032
:103F600070470420704700BF8140002008B5044B13
:103F7000044A1978187011702CF035F908BD00BF8B
:103F80008140002082400020034B1B780A2B01D186
:103F900000F0E8BF704700BF8140002010B500F07E
:103FA000BFFF044690B90120FFF7E0FF234601223E
:103FB00009484370094B02701B78C0F802408371B6
:103FC000074B1B78C3712CF00FF910BD0B20FFF7C6
:103FD000CDFF0323EBE700BF6B40002081400020B2
:103FE0008240002003686F4A23F47F4323F00703D5
:103FF00093422DE9F047044600F09A8002F1827264
:1040000093424FD1B0F8059090F80480B9F11F0F9A
:104010004AD1C77A032F6DD0042F70D0002F70D1F2
:10402000614B1B78042B71D1604B1A68FF2A01D0B9
:1040300042456BD10024062625465D4AC3F8008020
:1040400014600223DFF878A18AF80030584B5046FC
:104050001B688AF80140CAF80A30CAF802508AF888
:1040600006802CF0C1F83A464F4F4946404614F0BE
:10407000E9FA3B78B34215D03046FFF777FF0123CA
:104080008AF800303B7850468AF80630494B8AF867
:1040900001401B78CAF802508AF807302CF0A4F8C7
:1040A0002CF0A1F8BDE8F087B9F1210FFAD13F4B10
:1040B0001B684345F6D13C4B1E78062E2AD13C4F57
:1040C0003D4B3D685B68AB4229D9827A00F10B0118
:1040D0003A4839F026FE29460020A37A374A2CF0C8
:1040E00042FC054600BB3A68A37A044613443B6091
:1040F0000746A6E70726002425462746A1E705260A
:10410000F9E700263446354637469AE70B26012460
:104110003D4696E700240B262546812791E70B268E
:104120000424002582278CE70B260324832788E7B5
:104130001E4E837932689A42B4D11B4F204D3B7892
:10414000072B22D10820FFF711FF4FF42A7200201D
:104150001A492CF04CFC044610BB154B68701860D3
:1041600008203B78834201D0FFF700FF01232B702A
:104170003B781348AB710F4BC5F802401B78EB71CD
:104180002CF032F8FF2333608AE7062B09BF0223A5
:1041900000240B20002416BF01206B706C70E0E738
:1041A0000B20DEE7A0000601814000201410002053
:1041B0000C1D002082400020101D0020641A0020E9
:1041C0006B4000202DE9F0416C4D2E78731E082BBA
:1041D0003CD8DFE803F005407C3B3B3B3B85B90026
:1041E000DFF8B081664F404600F082FE394600207D
:1041F0002CF08FFB634C064650BB98F800302070C3
:10420000A371D8F804306070C4F80A307B68A070DD
:10421000C4F812303B68E070207160712046C4F829
:104220000E3037462BF0E0FF0220FFF79FFE012300
:1042300023702B785348A371534B67701B78C4F8D5
:104240000260E3712BF0D0FF2BF0CDFFBDE8F081D1
:104250000B200327E9E74A4B5B68FF2B23F0FF079E
:1042600030D90026DFF824814FF48073424631466E
:1042700000202CF061FB044630BB444A0134402C42
:1042800052F8040B03D00130F8D0012002E00130D5
:1042900018BF012006F5807608B9BE42E4D3002499
:1042A0002646C0F10400C0B2FFF760FE0123354886
:1042B00003702B7846708371334BC0F802401B7833
:1042C000C371BFE70020EAE70B200326ECE70020DC
:1042D0002CF060FB041E0ABF00260B200420E3E73D
:1042E00000212A482CF097FB40F201239842284BEA
:1042F0001ED11A682E7880321A6000220321214CC8
:104300001B68C4F802002046C4F8063021706270B1
:104310002BF06AFF2B78B34296D03046FFF726FE8B
:1043200001232370184B20461B78A671E37189E79F
:1043300040F20322904204D11A68092680321A60A2
:10434000DBE70B260322D9E700202CF036FB041E06
:1043500015BF0B200A2003260026FFF707FE0123C6
:10436000084803702B7846708371074BC0F80240F1
:104370001B78C3712BF038FF68E700BF8140002035
:10438000101D00206B40002082400020641A002095
:104390000C1D0020181D0020082808B504D00FDCD3
:1043A000022809DC002809DD01230422092102205A
:1043B00005F04EF8002008BD0428F5D0D82106E00D
:1043C0002028F1D0402807D01028F7D1B92104487F
:1043D0002CF034FB0E20EEE7012304220821E6E74F
:1043E000F02405088022014B1A64704700E0035056
:1043F00070B514460D4640F080010A48FFF7F2FF01
:104400002CF0B4FE074E2544AC4204D18022064B6A
:1044100000201A6470BD002130462CF0A7FE04F87D
:10442000010BF1E700000A5000D0035038B50C46EC
:10443000084D00F07F012846FFF7D4FF2CF096FED0
:10444000214628462CF092FE8022034B00201A645D
:1044500038BD00BF00000A5000D0035070B5264C94
:104460008EB0264601AD0FCE14340FC50FCC06AD6D
:104470000FC594E80F0085E80F00204B012103933E
:1044800006AB05934FF480735720ADF81C3003F052
:10449000DFFB01213A2003F0DBFB00230422032190
:1044A000022004F0D5FF022100230846012204F077
:1044B000CFFF002304220121022004F0C9FF0123C1
:1044C00004220721002004F0C3FF0D4801A904F0D5
:1044D000F7FD0C4B0C4A0020C3F8CC244FF002121D
:1044E000C3F8C424A2F58032C3F8C8241C22C3F840
:1044F000B4240EB070BD00BFA8250508A05A320034
:1045000000000A5000C003500200030010B52DED5A
:10451000028B9FED188AB7EE007AC8EE007A77EE2C
:10452000C77A9FED157AF4EEC77AF1EE10FA82B0F1
:1045300019DCF5EEC07AF1EE10FA17D4FCEEE77A4A
:10454000CDED017A9DF8044019202146FFF76EFF5A
:10455000631C00EE103AB8EEC00A88EE000A02B002
:10456000BDEC028B10BDF0EE477AE7E7DFED037A92
:10457000E4E700BF00007A4400007F430000000031
:1045800013B5044601211C200DF10702FFF730FF8F
:104590009DF8073003F01803102B8DF8073012D068
:1045A00009D89BB1082B14D00B484FF4AA712CF0FA
:1045B00045FA012005E0182BF6D14FF06853002092
:1045C000236002B010BD4FF06653F8E74FF062531E
:1045D000F5E74FF06453F2E74B25050813B50446A1
:1045E00001211B200DF10702FFF702FF9DF80730A4
:1045F00003F01803102B8DF8073011D009D88BB1B8
:10460000082B11D0094840F279112CF017FA01203B
:1046100004E0182BF6D1064B0020236002B010BD39
:10462000044BF9E7044BF7E7044BF5E74B25050886
:1046300000007A3D0000FA3C0000FA3B00007A3CA2
:1046400001212DE9F043002285B0804608462BF079
:1046500027FF9FED6D0AFFF759FF05202BF085FE20
:1046600000202BF00AFF6846FFF7B8FF322008F061
:1046700049FF40211A20FFF7D9FE44216A20FFF7A5
:10468000D5FE78212320FFF7D1FE052008F03AFF60
:104690000221722001AAFFF7ABFEBDF804305BBA1D
:1046A0009BB2B3F5FC7FF0D37822002123202BF0BE
:1046B00020FE0221722001AAFFF79AFE4FF00009A6
:1046C0000C23BDF804704C467FBABFB2B7FBF3F7BA
:1046D0004D464E461FFA89F3BB4278D396FBF7F658
:1046E00007EE906A9DED007AF8EEE77A95FBF7F514
:1046F00067EE877AC8ED007A07EE905AF8EEE77A0F
:1047000094FBF7F467EE877AC8ED017A07EE904ADA
:10471000F8EEE77A67EE877A01AAC8ED027A0221FD
:104720001320FFF765FE9DF904309DF8058001AA6E
:104730000221152048EA0328FFF75AFE9DF90430AC
:104740009DF8057001AA0221172047EA0327FFF709
:104750004FFE002E9DF904209DF80530B8BF0336AA
:10476000002DA8EBA606B8BF0335002C43EA0223B0
:10477000B8BF0334C6F307211320A3EBA404A7EBAF
:10478000A505FFF753FEF1B21420FFF74FFEC5F366
:1047900007211520FFF74AFEE9B21620FFF746FE73
:1047A000C4F307211720FFF741FEE1B21820FFF7FD
:1047B0003DFE402200216A202BF09BFD0022114685
:1047C00010462BF06DFE002005B0BDE8F08301AA75
:1047D0000C217420FFF70CFE9DF90A209DF80B3088
:1047E00009F1010943EA02231E449DF90C209DF8BA
:1047F0000D3043EA02231D449DF90E209DF80F3031
:1048000043EA02231C4465E700007A44B7EE007ACD
:10481000C7EE007A9FED057AC0ED157AC7EE007AF3
:1048200080ED140AC0ED167A704700BF35FA8E3C51
:10483000F0B52DED048B0F4600F15C050446D0ED7C
:10484000098A90ED0A9AD0ED0B9A85B02846164653
:10485000B0EE408A2BF0D9FF002F48D094ED097AB2
:10486000DFED386AB4EEE67AF1EE10FA3FDBDFED09
:10487000367AB4EEE77AF1EE10FA38D894ED0A7A87
:10488000B4EEE67AF1EE10FA31DBB4EEE77AF1EE4F
:1048900010FA2CD8F5EEC09AF1EE10FAF1EE688A13
:1048A000B1EE490A04F1680725DB2AF05FFF8DEDC0
:1048B000010AB0EE680A2AF059FFB1EE400A284614
:1048C0003A4601A98DED020A8DED038A2BF0D5FF42
:1048D00028462BF08DFF0EB900236366D4ED147AC1
:1048E000B6EE000A284680EE270A2BF0A6FF05B098
:1048F000BDEC048BF0BD2AF039FF9FED149A39EE20
:10490000400A8DED010AB0EE680A2AF02FFF38EE5A
:10491000098AB1EE400A01A88DED020A8DED038AE5
:104920002BF066FF3A46284601A92BF0A6FF284641
:104930002BF05EFFD4ED187AF1EE677AC4ED187AA9
:10494000C9E700BFDA1B7CBFDA1B7C3FDB0F4940A5
:1049500070B5044600F052F80128054626D104F14E
:104960002406304600F0D6F83146204604F14406CD
:104970002BF0C7FE304600F0DBF8D4ED117AF1EEF3
:10498000677AC4ED117AD4ED127AF1EE677A314686
:104990002046C4ED127A2BF0D0FE29462046BDE811
:1049A00070409FED030A0022FFF742BF70BD00BFB9
:1049B000000000007FB502250E4E0F4835702BF029
:1049C0007EFE2BF0AEFC044660B90DF103002BF027
:1049D000A8FD044630B9032301A83370FFF730FE69
:1049E000044610B12BF079FC00252046357004B048
:1049F00070BD00BF83400020241D0020014B1878AB
:104A0000704700BF8340002070B501212DED028B5F
:104A10000223B0EE408A1C4E82B00022084633705A
:104A20002BF03EFDB0EE480AFFF770FD174D082051
:104A300085ED000A2BF0A9FC03202BF096FC00204A
:104A40002BF008FD00202BF018FD322008F05AFD55
:104A50000F4C002101202BF03CFD01A82BF047FD5D
:104A600095ED000A20462BF049FE95ED000A204600
:104A7000FFF7CCFE20462BF07CFE0123337002B002
:104A8000BDEC028B70BD00BF83400020A01D002044
:104A9000241D00201A4AD36B6BB392ED0C6A9FED74
:104AA000197A07EE903A26EE076AF8EE677AC6EEB4
:104AB000276A92ED0D6AFDEEE66A26EE076A16EEAB
:104AC000903AC6EE276AFDEEE66A038016EE903A4B
:104AD000D2ED0E6A66EE876A86EEA77ABDEEC77AD9
:104AE000438017EE103A838000231363536393636C
:104AF0000023D3637047038043808380704700BFE7
:104B0000241D002000007A440148FFF721BF00BFA8
:104B1000241D0020054A1278012A04D000220260D8
:104B20004260826070472BF035BC00BF834000209C
:104B3000054A1278012A04D0002202604260826095
:104B400070472BF057BC00BF8340002008B5094BCD
:104B50001B78012B01D0002008BD2BF0D4FC064AA5
:104B60001368013313600028F5D0044A1368013339
:104B70001360F1E7834000209C1D0020981D002059
:104B80009FED060A00F10C03B0EC017AF1EC017A1A
:104B9000984207EE270AF7D1704700BF00000000D7
:104BA0000122024BC3F8A020704700BF00D0035081
:104BB0000122024BC3F8A020704700BF00E0035061
:104BC00070B5404D88B001AC0FCD0FC495E807001B
:104BD00084E80700012401213A2003F039F83A4E15
:104BE0000121292003F034F8384B304601A9039302
:104BF0008DF8124004F0C4FF234604220321022052
:104C000004F026FC022122460846002304F020FC82
:104C1000234621460422022004F01AFC042200212B
:104C20002346022004F014FC294D2A4B4FF448700F
:104C3000C5F834374FF00213C5F8303703F5803329
:104C4000C5F838371C23C5F8203708F0C7FE1420F4
:104C5000FFF7AEFF08F0C2FE2320FFF7A1FF08F028
:104C6000BDFEB9213046FFF7A3FF2CF0ADFAFFF7E8
:104C700097FF002303211A46022004F0E9FB0023DA
:104C800002211A46084604F0E3FB2346214600228F
:104C9000022004F0DDFB002223461146022004F02E
:104CA000D7FB304604F040FF00212920C5F8341717
:104CB000C5F83017C5F83817C5F8201702F0C8FF37
:104CC00008B070BDDC25050800C0055000127A0050
:104CD00000C00350020001000348044A0449121AAC
:104CE00092102BF003BE00BF48B6050848B6050871
:104CF000A841002008B500F02FF8FFF7EDFF124B98
:104D000012498B4212D30020114B12498B4218D307
:104D1000FEF7AEFC186850F82240586840F8224070
:104D2000013298688242F5D30C33EAE70022F8E7B3
:104D30001C6844F8220001325C68A242F8D30833B0
:104D4000E4E70022F8E700BF5CB0050868B005089A
:104D500068B0050868B005084FF480414FF0FF3097
:104D6000114B124A10B59A60D3F8882042F47002B1
:104D7000C3F888200E4A91660E4901F5005210666C
:104D80000D4850660220C3F8D000BFF34F8FBFF329
:104D90006F8F01244FF440330848C0F88041D3603E
:104DA00004600B6110BD00BF00ED00E000200108B1
:104DB0000090005000800044F7FF370000E100E061
:104DC000014B1868704700BF1C100020084B1B6F78
:104DD00003F00703022B04D0032B05D0012B05D0D1
:104DE000FEE7044B18687047034BFBE70348704726
:104DF000008000501C10002024100020002D3101E4
:104E000008B5FFF7E3FF054B1B6FC3F30333013313
:104E1000B0FBF3F0024B186008BD00BF00800050EB
:104E2000181000200048704700B4C404014B1868F3
:104E3000704700BF24100020054B1860054B1B6F06
:104E400003F00703032B01D1FFF7DABF704700BF60
:104E5000241000200080005000487047002D3101D0
:104E60004FF0B4439868C0F304400C280AD8DFE838
:104E700000F00B0909090909072119091B1D1F0069
:104E80000F487047002070479B6803F04073B3F1F0
:104E9000807F11D0B3F1007F10D00A4A002B08BFE9
:104EA00010467047084870470848704708487047E0
:104EB00008487047084870470848704708487047D6
:104EC000405DC60000093D00C0EA210180BA8C01A6
:104ED0000048E801005A62020024F40080841E00A9
:104EE00040420F00014B1868704700BF201000209F
:104EF0004FF000639B6A03F17842B2F5903F03D212
:104F00001968064A914203D00023037083607047FA
:104F1000012202709A689B694260F7E707B0CD5E94
:104F20004FF000639B6A10B503F17842B2F5903FF1
:104F300011D21968094A91420DD1094C227812F018
:104F4000FD0F01D0002010BDDB6998470028FAD181
:104F500001232370F6E74FF48170F4E707B0CD5ECC
:104F6000844000204FF00053074A1A60BFF34F8F70
:104F70000649074BCA6802F4E0621343CB60BFF3F3
:104F80004F8F00BFFDE700BF02020FF000ED00E011
:104F90000400FA0538B504460D4601B118B93721A9
:104FA00003482BF04BFD23682B60256038BD00BF04
:104FB0004826050838B504460D4601B118B97821D0
:104FC00005482BF03BFD23681BB1AB4202D12B6897
:104FD000236038BD1C46F6E7482605080249034A07
:104FE0000160521A42607047A8410020000004206E
:104FF0000346054A0549106803448B428CBF4FF0B5
:10500000FF301360704700BF28100020000004200C
:105010004FF0BA420123054802F580514B60086207
:1050200003490968D160034A1370704701000C1FDF
:105030002C100020854000204FF0BA41074BCA6871
:105040001A600123064A53604B6813F00203FBD138
:105050004FF0FF311162034A137070472C1000208B
:105060000020005D854000204FF0BA42D369126AEB
:1050700010B5134013F0F8501EBF0120114A1070F4
:10508000DC070ED54FF0BA410A695007FCD50E4A2D
:105090004C691068204410608869516801440120FF
:1050A0005160590341BF08490A6802F180720A60E1
:1050B0001A0341BF04494A6802F180724A60034AF8
:1050C000D36110BD86400020A41D00200020005D9B
:1050D0000023044A04491370044A05481360054A32
:1050E00000F0B8B98640002039500108B01D0020FA
:1050F000115001086950010808B500F011FA4FF08D
:10510000BA430A4AD969136841F201500B4313604C
:105110004FF47D32064BDA61064B1A78002A4FF0C5
:10512000000208BF10461A7008BD00BFB01D002065
:105130000020005D8640002009230E4A70B5C0F8AB
:1051400010311368054601330E461360FFF7D4FF94
:10515000044660B900F0D2F94FF48A722846064935
:1051600000F0B0F91EB1BDE87040FFF7C5BF2046A2
:1051700070BD00BFAC1D00206400005D0729F8B5BC
:1051800005460C4610EE107A10EE906A04D940F2F3
:10519000071104482BF052FC05EB840325F824701A
:1051A0005E80F8BD972605082DE9F84F0429804652
:1051B0000D4693469946BDF82840BDF82C70BDF8C1
:1051C0003060DDF838A004D94FF4917134482BF0E9
:1051D00035FCB4F5806F04D940F2231130482BF030
:1051E0002DFCB7F5806F04D94FF492712C482BF049
:1051F00025FCB6F5806F04D940F2251128482BF024
:105200001DFC0D9B03F50063B3F5805F04D34FF4E1
:10521000937123482BF012FC0AF50063B3F5805F0D
:1052200004D340F227111E482BF008FC0F9B03F516
:105230000063B3F5805F04D34FF4947118482BF0EA
:10524000FDFB184B0F9A013E03EA0242C6F3090622
:1052500016430D9A013C03EA0A4AC4F3090403EA1F
:1052600002431C43013F4FEA093303F44053C7F3A1
:1052700009071C4347EA0A0708EB051319F0040F56
:1052800005F10205C3E90A7618BF44F480442B01F6
:1052900008EB05156C6048F803B0BDE8F88F00BF57
:1052A000972605080000FF0F2DE9F0410729054664
:1052B0000E4614461F469DF8208004D94FF4B57160
:1052C0000A482BF0BBFBDDE9062324051A43B8F19D
:1052D000000F01D044F000440C2303FB0651C1E948
:1052E0002C72C1F8B840BDE8F08100BF97260508D0
:1052F0002DE9F041072906460C46154698469DF8CB
:10530000187004D940F27D1121482BF097FB013D24
:10531000ABB2B3F5806F04D34FF4BF711C482BF0D0
:105320008DFBB8F1070F04D940F27F1118482BF01C
:1053300085FB072F04D94FF4C07115482BF07EFB75
:105340000C21079B06EBC40245EA0335089B156751
:105350001B03536701FB0862B845D2F8B8004FEA57
:10536000440406D10323A3400343C2F8B830BDE888
:10537000F0810123A3400343C2F8B830022201FBAD
:105380000766D6F8B830A2401343C6F8B830EEE747
:1053900097260508F8B500210C250446D0F874328C
:1053A00000F50976DFF854C0D0F868028B4217DAAE
:1053B00005FB030393F8BB20002142F0800283F831
:1053C000BB20FFF7B9FE4FF48A72D4F86C3283F039
:1053D0000103C4F86C3202FB0343C4F86832F8BD21
:1053E00005FB0107D7F8B82056F804EF02EA0C02D3
:1053F00042EA0E02C7F8B8200131D7E70000FFFFEC
:105400008B1E012B03D8044B1B6823B118470129BD
:1054100001D8024BF8E77047C81D0020CC1D0020C2
:1054200010B52BF06BFE04460021012007F03AFA7C
:1054300020462BF067FE0022014B1A7010BD00BF02
:1054400087400020024B03C883E803000020704718
:10545000BC1D002038B5114C2378EBB9104B114D11
:105460001960114B28601A604FF080420F4B1048B2
:105470009A66FFF7E7FF4FF400420E4B1A602B6865
:1054800003B198470C480D4907F0ECFA01230020BE
:1054900023700B4B187038BD1220FCE788400020A9
:1054A000C81D0020CC1D0020C41D0020009000500D
:1054B000BC1D002000E100E0B41D0020F02605081E
:1054C000874000200B4B10B51B7873B10A4B1B783B
:1054D0006BB1002392089A4201D1002010BD50F810
:1054E000234041F823400133F5E71120F6E70E2071
:1054F000F4E700BF884000208740002010B52BF063
:10550000FDFD01210446084607F0CCF920462BF0AA
:10551000F9FD0122014B1A7010BD00BF8740002029
:10552000064B1B7843B14FF0BA4213695B07FCD5B9
:10553000034A1378002BFCD1704700BF884000203D
:105540008740002008B5054B1B682BB1984718B160
:10555000BDE80840FFF764BF08BD00BFC41D0020C0
:1055600000487047D01D002000487047D01D002023
:10557000F0B5044601258C4205D88D4203D80020A1
:1055800015601C60F0BD0020DFF828C01CF8017B0E
:10559000B4FBF7F607FB164EBEF1000F05D1B4427F
:1055A00007FB05F504D03446E5E701300B28EDD1C3
:1055B0000120E5E7F82605082DE9F04F174687B0EA
:1055C00004460D469846FFF7CBFF17F1800F0646BD
:1055D00002D1B8F17F0F04D0A02D12D82544A542E6
:1055E00003D1002007B0BDE8F08F94F900309F424E
:1055F00002DD27700134F2E79845B8BF84F80080D7
:10560000F8E74FF0000940F20A2A3B463A460021EB
:1056100030462BF017FA43464246012130462BF024
:1056200011FA4B464A4649463046CDE90199CDF834
:1056300000A0FFF739FE40F20B232F4A0121CDE9EC
:105640000032304640F2D5122C4BCDF80890FFF7CF
:105650002BFE01212A4B40F2D512CDE90131304613
:105660000221284BCDF800A0FFF71EFEB5F5006F14
:105670002B4628BF4FF4006323F0030B4FEA5B0A6D
:105680001FFA8AFA2246002130460593CDF800A081
:1056900005232BF0FDF90523224601213046CDF8E4
:1056A00000A02BF0F5F90223059A00213046009363
:1056B000CDE901990123C2F38F02FFF719FE012101
:1056C0003046FFF739FD00288CD1A5EB0B059F2D47
:1056D0005C44CBD8002D84D0254414F9013B9F4273
:1056E00004DD04F8017CA542F7D17AE79845B8BFFC
:1056F00004F8018CF7E700BF0000A02100010220A0
:105700000000B021000103302DE9F04F036895B08F
:105710000593436A066D0693836A42680793C36ADA
:10572000856B0893036ED0F814B00993C36DD0F85D
:105730003C900A938369DFED576A0B9383680BFBF8
:1057400001FA0C93036B0D93436C00694B43F41AFD
:1057500024EAE474F71A9B1B234453430744AF42E3
:10576000A8BF2F46019302FB05F3002502FB00F1C1
:10577000119302FB04F30E9713911293059B9D4224
:1057800003DB002015B0BDE8F08F00200B9B129EBC
:1057900053440493584574DB0199139B0135194414
:1057A000DA440191EAE74FF000080C9B734402933E
:1057B0000D9B63440393904547DB01379644944423
:1057C0000E9B9F42EFDBB9F1000F0BD039F8103080
:1057D000F2EE677A07EE103AB2EE477A77EE277A62
:1057E000F3EE677A089BF2EE677A33F810300130F7
:1057F00007EE103AB2EE477A67EE277AF3EE677A51
:10580000F2EE677AFDEEE77A17EE901AADF80830FF
:10581000099B1944069B9942B8BF1946079B9942B8
:10582000A8BF194607EE901AF8EEE77AF3EE677A0A
:10583000F2EE677AFDEEE77A17EE901A049B03F812
:10584000011B0493119B1E44A4E7029BF2EE677AAE
:1058500013F9011B08F101080293039B0F9113F93F
:10586000011B109103930F990A9B1944109B5943F4
:1058700007EE101AB8EEC77A47EE267AF3EE677A8B
:1058800099E740F20003B446274607EE903ADDF868
:1058900004E095E7000000382DE9F04F2DED048B72
:1058A000436CD3B02B93836D82463793436D90ED59
:1058B000178A3893036DD0F840901F93C36C90F80B
:1058C000486014938368C56B3993036B1C913A93BA
:1058D000C36A3B9340F20003ADF8423183694693BB
:1058E00000235193FFF740FE04462EB91F9B149AE4
:1058F00013431CBF21235193379B012B02D1389BAB
:10590000012B07D0212351931C9B002B40F0998041
:105910005198F9E31C9B002B40F09380519B002B86
:10592000F6D1DAF8043020460F93DAF81430DAEDC5
:10593000188A0993DAF80C30BAEEE88A2C93DAF870
:105940003430B3EE488A2093DAF81C302D93DAF81D
:1059500000303C93DAF810301593DAF838301693AB
:10596000DAF8203017932BF072F9209A2C9B002D37
:10597000A3EB0203149A134493FBF9F30D93DDE9AF
:105980001532A3EB02031F9A13442B9A93FBF2F3F5
:10599000179A4993099B02FB03F30F9A1393169BE3
:1059A00002FB03F32493249A209B02FB03F30F9A38
:1059B0003293159B02FB03F323932B9B02FB03F310
:1059C0004A93239B159A03FB09F34B93BDF82430AC
:1059D0001E9308BF012343930DF5A17318BF2B46F7
:1059E00047932C9B53430F9A53434C93179A2D9BE9
:1059F0005343099A5343409300230E9340F20023EC
:105A000009EE103A0E9B179A93422EDB1C9B002B3B
:105A10003FF47EAFFFF770FB5190002840F0748395
:105A20003C9B2D9909985943179B9AF92420594377
:105A30009AF928304143DAF81800FFF7BDFD51907C
:105A400066E7DDE9393213433B9A2B431343DA0708
:105A500007D52123519340F2031182482AF0EEFF2B
:105A600056E7519B002BF6D15BE70E9B2B9A1F99B3
:105A70005A431F9B1698D31A8A1A22EAE272189286
:105A8000159A1899D21A9042D4BFC1EB0001C1EB0C
:105A90000201002B27DB0E98499D169E9642D8BF27
:105AA00028462690269A0E98121A01320A920F9AC8
:105AB0004A4318993192379A01FB02330A993F936E
:105AC000DDE94A320129D8BF1346239A2A931343AA
:105AD000459300230C930C9B2D9A934206DB269B47
:105AE00001330E938EE70E9A2692DBE70C9B149AF5
:105AF00009FB03F3991AD31A2C9A209823EAE3732B
:105B0000521A9042D4BFC3EB0000C3EB020000293D
:105B100008907DDB209991427ADCDDE90C12521A63
:105B2000571C002A79D00A9A012A7CDD814563D06E
:105B300044DD012FA9EB000B65DC01260D9A0B92C9
:105B4000BE423246A8BF3A464892139A169972430B
:105B50002F92721E22922F9AB2F5006F229AB8BF2E
:105B600000222E9201324E92189A03FB01220F99C5
:105B70004A43249911434D910A990129D8BF3946C6
:105B800089B241913A998A1842920C9A149902FB6F
:105B900009F2521A389903FB01232F9A2593139B7C
:105BA000B2F5006FB8BF1346339300231193119BD6
:105BB000489A93423ADB0B9B01338BE7089A08998A
:105BC00092FBF9F209FB121B1646BBF1000F0ED037
:105BD000012F06F10106A9EB0B0B0ADD0A465A4418
:105BE00006FB09F191421CBF2822519201E0012FCE
:105BF0000CDC0D9A0B92A3E7012F14DD4A46012617
:105C00004FF0000BECE74A460126E9E7089AE7E780
:105C100001270C9A0B92012602E03E460D9A0B9248
:105C20004FF0000B8CE70D9A0B92F4E7119BBB42EF
:105C3000C4BF28235193119BFB1A93FBF6F206FB7A
:105C40001233002B18BF0132012A0A9B19920BD183
:105C5000012B47DD00231093109A089B1344199AD7
:105C6000534309E003270508012B38DCBBF1000F83
:105C700032D1089BCDF840B027934E9A199B1599C5
:105C800053433D93199B259A73433093109B013BDB
:105C9000002B3E93CCBF4FF48773002344933F9B6C
:105CA00001FB02330F9A17995343119A1D930C9BD2
:105CB00013440E9A01FB0323099A53431B930023B9
:105CC0002893289B3C9A934211DB119B013311933B
:105CD000259B4B4425936AE728235193C9E7CDF8C8
:105CE00040B0B9E7089B279300231093C5E72F9B8B
:105CF000B3F5006F14DB139BB3F5006F10DB1B9B38
:105D0000002B4FF02803519303DA099B002BC0F2BC
:105D1000AD81309BDDF888801A93139B129314E0B9
:105D20001B9BDDF8B880002BBCBF28235193099B37
:105D3000002B3D9B1A93339B129301DA2823519336
:105D4000129B002B01DA28235193DDE931321343F2
:105D5000459A13434D9A13431D9A1343DB0700F1F1
:105D60008C81319B03EBD3735B1029932A9B03EB4C
:105D7000D3735B103493239B03EBD372329B52108B
:105D800003EBD3735B103693249B03EBD3735B104D
:105D900035930123204621934F922AF0CEFE219B7A
:105DA0000125002B14BF0523012351AAD4F8680252
:105DB00006924F9ABDF8A4100492349A029103926D
:105DC000BDF89C2034910192419A1D990092399A14
:105DD00005950A4400214F932AF0D7FE51ABCDE937
:105DE0000553359BBDF820200493369B0192039305
:105DF000349B294602931E9B429A0093D4F8680272
:105E00004F9B2AF0C2FE51AB0193439B479A0093EC
:105E10000223D4F8680219462AF0F0FE51AB019330
:105E20001E9B032100933B9A0223D4F868022AF0B8
:105E3000E5FE51ABCDE90553099B1B990493129BD9
:105E4000469A03931E9B0A440293BDF8283004210E
:105E50000193BDF868300093D4F868022B462AF00D
:105E600094FEB0EE490A0021D4F868022AF004FE3C
:105E7000219B002B00F00C81F0EE480AB0EE480A9E
:105E80002946D4F86802FFF779F9B8EEE80A002548
:105E9000B3EE400A0221D4F868022AF0EDFD204654
:105EA000099951AA2AF016FE51AB41212046994A80
:105EB000019300954EF62C432AF04BFE20460A999A
:105EC00051AA2AF007FE2046199951AA2AF002FE8B
:105ED0002046089951AA2AF0FDFD2046299951AA89
:105EE0002AF0F8FD51AB40F2CD112046CDE9005328
:105EF000894A8A4B2AF02DFE51AB40F2D711884ACD
:105F00002046CDE900532B462AF023FE20462AF0F6
:105F100087FE0222294620462AF09DFE0222012108
:105F200020462AF098FE20462AF07AFE0A9B012B92
:105F300004DC0122294620462AF08DFE109B002B0E
:105F400004DD0222002120462AF085FE219B002B41
:105F500000F0A680109B4A21023B129351AB0193A3
:105F60000023204600936F4A449B2AF0F2FD129BC7
:105F700051AD013B1A93129B40F2CD11002B4FF013
:105F80004F6320460093684ACCBF4FF487730023C9
:105F900001952AF0DEFDB8F1000F0FDD2A464146DB
:105FA00020462AF097FD00222046CF231146019576
:105FB00000922AF0CEFD20462AF032FE4FF0000873
:105FC00051AD434641212046524A0195CDF800800B
:105FD0002AF0BFFD1A9B012B65D119462A4620469F
:105FE0002AF078FD4346424641462046CDE90085E9
:105FF0002AF0AFFD20462AF013FE02224146204639
:106000002AF029FE20462AF00BFE02220421204617
:106010002AF021FE0A9B012B04DD012200212046EB
:106020002AF019FE20462AF0FBFD042220461146E4
:106030002AF011FE0122204611462AF00CFE04220D
:10604000022120462AF007FE0422032120462AF0DE
:1060500002FE20462AF0E4FD519B002B40D01C9B01
:10606000002B3FF455AC40F26631F6E4309BDDF88E
:1060700088801A93139B129360E62A9B239A349389
:10608000329B3693249B3593319B2993002381E6E1
:10609000B0EE480A2946D4F868022AF0EDFCF4E68E
:1060A0003E9B129363E7ADDD129B2A46991E204664
:1060B0002AF010FD2A46204601212AF00BFD424617
:1060C000414643462046CDE900852AF042FD204660
:1060D0002AF0A6FD0222414620462AF0BCFD89E7AF
:1060E0001C9B5BB9289B4C9A013328931D9B13443E
:1060F0001D93409A1B9B13441B93E2E52046FFF738
:1061000049F951900028EDD053B0BDEC048BBDE8A7
:10611000F08F00BF00000450060001600E7E0800F2
:106120000607055000000550050302702DE9F04FE9
:106130002DED048B04468DB040B1D0F82CB0BBF1EE
:10614000000F05D03621CE482AF078FC21208DE1C1
:10615000036ADFEDCC8A13F0010F14BF4FF48062A5
:106160004FF400629A42C0F2EB80FFF7F9F9D4EDE8
:10617000057AB8EEE78AE36C276A0793B4F85030E3
:1061800017F0010609EE103AE36B05460593236C00
:1061900028EE288A0693BDF814A0BDF8189040F0A8
:1061A000B88007EBD7784FEA6807C8F34F08CDE906
:1061B00000A80523314622682AF07AFC0523012134
:1061C000CDE90098A26928462AF072FC226B002AC9
:1061D00000F0AE80A38E00930223194628462AF0D1
:1061E00057FCCDE900A90123A26B032128462AF020
:1061F0005FFCDFEDA40A0021B0EE600A28462AF019
:1062000041FCF0EE480AB0EE480A012128462AF087
:1062100039FCB0EE490A032128462AF02DFC04215E
:106220002846079A2AF01CFC4FF0000840F22D2364
:106230004246414628460093CDE901884346FFF790
:1062400033F8914B40F2D712012128460093CDE953
:1062500001888E4BFFF728F840F2D712022128461A
:10626000CDE901888A4BCDF80080FFF71DF8002E9C
:1062700063D14A2203212846CDE90166854B009669
:10628000FFF712F84FF0040800264FF0010B824B85
:106290005FFA88F840F2D71241462846CDE9013B23
:1062A00000967E4BFFF700F83346524631462846AB
:1062B000CDE90166CDF80080FFF71AF842F202033B
:1062C0004A4659462846CDE9008302963346FFF7F1
:1062D0000FF8022120232846CDE9001302965B46E1
:1062E000BAB2FFF705F859462846FEF725FF002801
:1062F00040F0BC80DDE90510414394F9533094F936
:106300005220A06B0DB0BDEC048BBDE8F04FFFF741
:1063100053B91FFA87F8CDE900A80123594622682E
:106320002AF0C6FB0123CDE900981946A2694AE785
:1063300001235B4A009302234FE74FF00308A3E7D2
:10634000FFF70EF9D4ED057AB8EEE78AB4F85030CD
:10635000054628EE288A09EE103AE36BF0EE680A4B
:106360000793236CB0EE680A59460593E66C276ADA
:106370002AF088FBF0EE480AB0EE480A01212846D0
:106380002AF080FB03212846B0EE490A2AF074FB6C
:1063900007F001083246042128462AF061FBB8F1D3
:1063A000000F68D1052307EBD770401006934FF418
:1063B00080610BAB0AAAFFF7DBF8064600287FF4E2
:1063C000C5AE314B014640F2D712CDE90100009332
:1063D00028462E4BFEF768FF40F2D71201212846CF
:1063E000CDE901662A4B0096FEF75EFFB8F1000F7B
:1063F00044D102214A222846CDE90188254BCDF817
:106400000080FEF751FF032100264FF00108224BC8
:1064100040F2D7122846CDE9013800961F4BFEF70F
:1064200043FF334631462846BDF82820CDE90166B2
:10643000CDF80080FEF75CFF22234146CDE90083C2
:1064400028463346BDF82C200296FEF751FFB2468F
:10645000B346079B5B456EDC0598079994F953306A
:10646000414394F95220A06BFFF7A6F80DB0BDECA4
:10647000048BBDE8F08F3846012397E70221C3E77C
:1064800062270508000000380E7E08000600016043
:1064900006070550000005500000D02305030450F6
:1064A000CA270508A36922684B440893236B32442A
:1064B000002B3DD033F81830A16B08EE103A08EBF2
:1064C0000A03CB180993BDF82C3000210193BDF8C5
:1064D000283028460093069B2AF0EAFABDF82C30B3
:1064E00001210193BDF828302846089A0093069BA5
:1064F0002AF0DEFA0123099A0093032128462AF0A4
:10650000C7FAB0EE480A052128462AF0B5FA01215B
:106510002846FEF711FEB9440028A7D108F101086A
:10652000059B4345BEDC0BF1010B9A443E4490E7CA
:1065300040F20003C0E74FF00009C846F0E700BF93
:1065400058B1031F9FED137A0020DFED136A9FED12
:10655000136A01EB4202914200D17047D3ED017AF8
:10656000F8EEE77A67EE877AF4EEE67AF1EE10FA63
:1065700003F104030CDCF4EE467AF1EE10FA48BFA6
:106580002120F3EE677A17EE90CA21F802CBE2E7FA
:106590002120F6E70000003800E07F4700E07FC7D9
:1065A0002DE9F04F2DED048B0368C1B03293C36821
:1065B00090ED098A21930369D0ED088A11938369CC
:1065C000D0F804A02A93C36990F838502293036C42
:1065D00014911693C36B1293D0E90C832393C36A6F
:1065E0002493836A259383682B9343692C93002318
:1065F0003F93FEF7B9FF0446A5B9169B129A1343C1
:1066000010D021233F93149B8BB1DDE92B32134330
:10661000DB070ED521233F934FF47B719D482AF071
:106620000DFA04E0149B002BEFD13F9B23B13F9860
:10663000F4E23F9B002BEFD120462AF008FB259A7D
:10664000219B9B1A129A134493FBF8F3249A0D93FF
:10665000119B9B1A169A1344239A93FBF2F33493DB
:10666000229B03FB0AF31A93119B03FB0AF3189373
:106670000AFB02F33593189B189A08FB03F3369331
:10668000119B03FB08F30AFB03F33893219B53434D
:106690001A9A39932A9B53432F9300230E934DF656
:1066A000000309EE103A0E9B229A934206DB149BDC
:1066B000002BBCD0FEF720FD3F90B8E7239A0E9B3D
:1066C00024995343169A9A1A2692169AD31A23EAB1
:1066D000E373269A1793119B9B1A179A9942D4BF7A
:1066E000C2EB0102C2EB03022D92269A002A1DDBA7
:1066F0000E9A349924989842D8BF0A461D920E9A51
:106700001D9B9B1A013309930999DDE93532012953
:10671000D8BF1346189A299313433A9300232A9A11
:10672000934206DB1D9B01330E93BCE70E9B1D932A
:10673000E5E708FB03F21299259D501A8A1A219960
:1067400022EAE272091A8D42D4BFC2EB0505C2EB00
:10675000010500280A9574DB2598884271DC0D99A3
:10676000C91A4F1C002970D00999012973DDA84569
:106770005BD03FDD012FA8EB05095DDC01250D99FC
:106780000B91BD422946A8BF394633911A99681E1C
:106790006943B1F5006FB8BF0020159001303B9000
:1067A0000998129E0128D8BF384680B2309008FB65
:1067B00003F0801B0244269E17983044119E06FB6E
:1067C00002020AFB02F222981C920E9A00FB03239B
:1067D0000AFB03F328931A9BB1F5006FA8BF194673
:1067E000002320911093109B339A934236DB0B9B2E
:1067F000013394E70A9991FBF8F508FB1519B9F1F3
:10680000000F0DD0012F05F10105A8EB090909DDE5
:10681000494405FB08F088421CBF28213F9101E054
:10682000012F0CDC0D990B91ABE7012F13DD4146D5
:1068300001254FF00009ECE741460125E9E70A99F7
:10684000E7E701270B93012502E03D460D990B91E7
:106850004FF0000995E70D990B91F4E7109BBB42AF
:10686000C4BF28233F93109BFB1A93FBF5F205FB53
:106870001233002B18BF0132012A099B19920BD148
:10688000012B3DDD4FF0000B0A9B199A5B445343EB
:1068900009E000BFCC270508012B2FDCB9F1000F60
:1068A00029D1CB460A9B1E93199B3B9ABBF1000F43
:1068B00002FB03F39BB23193ABF10203C8BF4FF06D
:1068C000FF333793289B13931C9B1B9300231F9329
:1068D0001F9B329A934280F2A681BAF1000F40F3D7
:1068E0008B81139B002BBCBF28233F93139B2793C3
:1068F00000230F9310E028233F93D2E7CB46C3E752
:106900000A9B4FF0000B1E93CEE70F9B139A9B1828
:10691000279344BF28233F93209B0F9A002BBCBF93
:1069200028233F931B9B9A180F9B0133534580F2FA
:1069300028813A9B27994AEA03030B43134313F038
:1069400001030C9340F02081209B13F001030C9372
:1069500040F01A81012602230C93189B3D920C9A59
:10696000204693FBF2F13C912AF0E7F80C9A3C990F
:106970009AFBF2F2D4F868022E9205920491299AB9
:106980000C99002E92FBF1F10CBF0123052303911A
:10699000BDF8B410309A0291BDF8781000920191C0
:1069A0003D9A2B993FAE0A44069600213C932AF06B
:1069B000ECF8002305932E9B0C9A0493209B2C99B2
:1069C00093FBF2F201230392BDF824200293319B42
:1069D0000192279A009306960A443C9B0121D4F821
:1069E00068022AF0D2F84DF60003F0EE490A00EEF4
:1069F000103A0021D4F86802FEF7C0FBF8EEE80A6E
:106A0000F3EE600A0321B0EE600AD4F86802FEF7E4
:106A1000B5FBF8EEC80AF3EE600A0421B0EE600A96
:106A2000D4F86802FEF7AAFB3246204609992AF0FC
:106A300051F83246204619992AF04CF800234FF0BD
:106A4000805200934121204601962AF082F8324676
:106A500020460A992AF03EF8324620462D992AF01F
:106A600039F8002340F25311754A204600930196ED
:106A700040F20A232AF06DF820462AF0D1F80222CB
:106A8000002120462AF0E7F820462AF0C9F8099BA1
:106A9000012B04DC0122002120462AF0DCF8BBF1A6
:106AA000000F73DD0222002120462AF0D4F8BBF14A
:106AB000010F6BD03FAB01934FF01D6340F2D51136
:106AC000009320464FF485735E4A2AF042F8159BE6
:106AD000ABF10206002B1DDD204615993FAA29F0D7
:106AE000F9FF012120463FAA29F0F4FF00233FAA25
:106AF00019460093204601921A462AF02AF82046A9
:106B00002AF08EF80122204611462AF0A4F82046E9
:106B10002AF086F8002E17DD012E3FAA47D1314614
:106B2000204629F0D7FF3FAB0193002320461A46A9
:106B3000194600932AF00DF820462AF071F8022237
:106B4000002120462AF087F820462AF069F8022220
:106B5000012120462AF07FF8099B012B04DD012248
:106B6000002120462AF077F820462AF059F83F9B6A
:106B7000002B38D0149B002B3FF459AD40F25C51F0
:106B80004CE500260123E7E60026E6E63FAB01934D
:106B90004FF01D6340F2D511009320460023294A8F
:106BA00029F0D7FF159B002BCEDD379E94E72046BA
:106BB000ABF1030129F08EFF20463FAA012129F005
:106BC00089FF3FAB0193002320461A4619460093E4
:106BD00029F0BFFF20462AF023F802220021204698
:106BE0002AF039F8A8E7149B93B90F9B0C9A134429
:106BF0009A450F933FF789AE1F9B399A01331F9334
:106C00001B9B13441B932F9A139B134413935FE610
:106C10002046FEF7BFFB3F900028E6D041B0BDEC18
:106C2000048BBDE8F08F109B389A013310931C9BA6
:106C300013441C931A9A289B13442893D3E500BF4E
:106C40000200011003040150032838B504460D4624
:106C500005D80A4B33F81030CB40DB0704D440F2A0
:106C6000CF31074829F0EAFE1422302313FB042316
:106C7000044A9858E84000F0010038BDD8280508BB
:106C80002C28050830C0035073B50468012105465F
:106C90003A2000F0DDFF002301226179207902F023
:106CA000D7FB61792079FFF7CFFFB0FA80F0A379A5
:106CB0004009022B20701ED100F0D6FB1D4A2B4646
:106CC0006179207900F0FAFBFF280246607915D13E
:106CD0002A46184900F02EFCFF28054603D16521FD
:106CE000154829F0ABFE012361792079CDE9003305
:106CF0002A4602F03DFB002002B070BD0123267938
:106D0000014600933046002302F02AFC2A46094936
:106D1000607900F00FFCFF28054603D17821064872
:106D200029F08CFE0022012361792079CDE900232E
:106D3000DEE700BFB10E04087928050808B5012177
:106D40003A2000F085FF012304220321002002F0F5
:106D50007FFB00202AF023FA0122354B3549C3F886
:106D600044244FF40022A3F550335A66324BD3F833
:106D7000FC20D20146D4D1F8803023F0030343F045
:106D80000203C1F880304FF4607000F089FF2A4B95
:106D900000F5D520D3F8F02000F2FC4042F00102CB
:106DA000C3F8F020D3F8FC2042F08072C3F8FC2036
:106DB000224AA3F55D431A60214B0222B0FBF3F097
:106DC000204B01381861C3F8F0204FF48072C3F8EB
:106DD00004234FF060431C4A0020C3F8B02F1B4A25
:106DE000C3F8802ED3F8002E42F48072C3F8002E30
:106DF000FF2283F82020D3F8002E22F48072C3F8FB
:106E0000002E08BDD3F8FC2022F08072C3F8FC20CD
:106E1000D1F8802022F0030242F00202C1F8802063
:106E2000D3F8FC2042F08072C3F8FC20ABE700BF2F
:106E300000D003500080005000ED00E0FF03004050
:106E4000F8590D00000004E055CEACC50900010062
:106E50004FF06043D3F8802E30B5D20715D501240A
:106E60000B4D8440D5F8FC2042F08072C5F8FC2020
:106E7000D3F8002E2243C3F8002E53F82020002A16
:106E8000F0D003F82010002030BD1120FCE700BF37
:106E900000ED00E0032838B504460D4605D8094B3F
:106EA00033F81030CB40DB0704D440F2FE31064803
:106EB00029F0C4FD302301225C43044BAA401A513F
:106EC00038BD00BFE02805082C28050840E0035025
:106ED000032838B504460D4605D8094B33F8103061
:106EE000CB40DB0704D440F22D41064829F0A6FD33
:106EF000302301225C43044BAA401A5138BD00BF25
:106F0000E02805082C28050840D0035038B504783F
:106F10004578032C05D8094B33F81430EB40DB07D8
:106F200004D44FF48961064829F088FD30230122FA
:106F30005C43044BAA401A5138BD00BFE028050845
:106F40002C28050840F0035070B505780446032D41
:106F5000467805D80C4B33F81530F340DB0704D4E2
:106F60004FF48361094829F069FD1022302313FB97
:106F70000523074A9B58F34003F00100A3780BB99F
:106F800080F0010070BD00BFE02805082C2805082E
:106F900030C003502DE9F04F9A46564B85B01B7810
:106FA00006460F461546DDF83C909DF844B0DDF8E6
:106FB0005080002B00F09780072A00F296800E9BED
:106FC000002B00F09280B9F1000F00F08E80129B30
:106FD000B3F5006F00F38980012803D1109B002BCB
:106FE00000F08380444B03EB05131B7B002B7ED00A
:106FF000424C10220021684636F034FE04EB451462
:107000001022A7BB3946204636F02CFE43F210036F
:107010006380BBF1000F03D1E37843F00303E37017
:10702000364A0E9B02EB451CCCE90193129B690189
:10703000581E9DF84C30C0F30A0003F003039B0672
:1070400043EA001E53582E48012E00EA03004EEA80
:107050000003CDF800A0535017D0B8F1000F2ED187
:107060009CF8023068F304138CF8023027E000210A
:10707000204636F0F7FD4FF444736380BBF1000FF8
:10708000CED1E37843F03003C9E713230CF1100E9F
:10709000CCF80C309CE80F008EE80F006FF0030175
:1070A000DCF81C20109B61F39F02012FCCF81C2000
:1070B000CCF8143003D1CCF81890CCF80430002769
:1070C0000D4A290102EB051342F80180159A284662
:1070D0005A60694622469F605E7302F0F9FA3846AC
:1070E00005B0BDE8F08F0748FAE70748F8E707481A
:1070F000F6E700BF894000204C2100204C200020F2
:107100000F80FFF3028000F0018000F0078000F0A4
:1071100038B5124B05461B78DBB1E0B129F0F5FF1D
:107120000F4A00231146147B54B92B6001251A0124
:1071300001EB03131D738C5029F0EDFF204638BD81
:107140000133082B02F11002EDD129F0E4FF0548CC
:10715000F5E70548F3E70548F1E700BF894000205F
:107160004C210020048000F0028000F0018000F03B
:1071700038B529F0CAFF002305460B4A147B6CB9C9
:107180000133082B02F11002F8D102F019FA074B73
:1071900028461C7029F0BFFF204603E0284629F04E
:1071A000BAFF034838BD00BF4C21002089400020B1
:1071B000058000F00D4B10B51B78044693B10728ED
:1071C00012D829F0A2FF0A4B03EB04131A7B2AB151
:1071D00000241C7329F09FFF204610BD29F09BFF5F
:1071E0000448FAE70448F8E70448F6E78940002035
:1071F0004C210020068000F0028000F0018000F0A9
:10720000154B13B51868002301908DF8043029F050
:107210007CFF124B1C7824B129F07DFF104802B08E
:1072200010BD01221A7029F076FF0E4B01A81C73C5
:107230001C7783F82C4083F83C4083F84C4083F85B
:107240005C4083F86C4083F87C4008238DF807305D
:1072500002F0F4F92046E2E7E8280508894000201A
:10726000038000F04C2100200A4A08B512785AB178
:1072700007280BD8084A02EB00131B7B43B10021FF
:1072800002F0BCF9002008BD0448FCE70448FAE716
:107290000448F8E7894000204C210020028000F0DB
:1072A000018000F0078000F00A4A08B512785AB150
:1072B00007280BD8084A02EB00131B7B43B10121BE
:1072C00002F09CF9002008BD0448FCE70448FAE7F6
:1072D0000448F8E7894000204C210020028000F09B
:1072E000018000F0078000F00A4A08B5127852B118
:1072F00007280AD8084A02EB00131B7B3BB102F0B7
:1073000069FA002008BD0548FCE70548FAE705488A
:10731000F8E700BF894000204C210020028000F0E7
:10732000018000F0078000F00D4B1B7893B1072817
:1073300012D889B10B4B03EB00131B7B73B10A4BC3
:107340001A6D01238340134214BF01230023002040
:107350000B707047054870470548704705487047EF
:10736000894000204C21002000000450028000F0E1
:10737000018000F0078000F00B4A10B512780C462F
:1073800062B107280CD859B1084A02EB00131B7BE5
:1073900043B102F03BFA2070002010BD0448FCE726
:1073A0000448FAE70448F8E7894000204C2100200F
:1073B000028000F0018000F0078000F0184B2DE9FA
:1073C000F0411F6D5B6D1F4000D5FEE701260025D3
:1073D000144CDFF85880374218D02368C8F8506042
:1073E000A3B1A168284601316268A1609847637B18
:1073F000012B0BD150B90C4B03EB45131A7B60F3F7
:1074000041021A731A7F60F341021A770135082D81
:107410004FEA460604F11004DDD1BDE8F08100BF5B
:10742000000004504C2100204C200020002004507B
:1074300070B5044601250B4E04B970BD94FAA4F052
:10744000B0FA80F005FA00F306EB001224EA030418
:107450005368002BF0D0117B11B191689847EBE78E
:107460009847E9E7CC21002008B5192001F060F920
:1074700028B14FF00072074BC3F880211A601A2020
:1074800001F056F928B14FF08062024BC3F8802119
:107490001A6008BD00E100E038B505460C4629F049
:1074A00034FE0022044B03EB05135C601A73BDE845
:1074B000384029F030BE00BFCC210020F8B504468A
:1074C0000D4617461E4629F020FE1CB9052D1AD080
:1074D000FF2421E0012C05D1012D21D0032DF7D16E
:1074E000042410E0022C07D1052D1BD0072D1BD042
:1074F000002DEDD1062406E0032CE9D1022D15D094
:10750000052DE5D10A240A4904F1100301EB03110A
:107510000123C1E901760B7329F0FDFD2046F8BD7A
:107520000324F0E70724EEE70824ECE70924EAE760
:10753000CC210020F8B505460E46174629F0E5FD9A
:10754000134B2C46D3F8242405F0FC0122FA05F352
:10755000DB0712D500230133DBB2042B04D1FF2457
:1075600029F0D9FD2046F8BDEC1804F003040C44C2
:1075700022FA04FC1CF0010FEDD1FF2CF0D0012207
:10758000044B03EB0413C3E901671A73E8E700BF78
:1075900000C00350CC210020074BD3F82404D3F8BB
:1075A000202403F50053104000F0553020F0502007
:1075B000C3F82004FFF73CBF00C00350074BD3F8CB
:1075C0002404D3F8202403F50053104000F0AA301F
:1075D00020F0A020C3F82004FFF72ABF00C003500A
:1075E000024B1968024B18681BF0B6B93010002026
:1075F0005010002070B59400224605460E4636F025
:107600000FFE431C0AD058B922463146284636F0B0
:10761000FFFA0028034808BF002070BD0248FCE7BD
:107620000248FAE710E000F021E000F024E000F06A
:1076300010B5044636F0F0FD431C10D088B902F0B6
:1076400045FA234620F003002044984201D100204F
:1076500010BD53F8042B0132F7D00348F8E7034874
:10766000F6E70348F4E700BF0EE000F021E000F089
:1076700024E000F008B529F041FD014B186008BD79
:10768000BC2A0020014B186829F03CBDBC2A002010
:10769000044BD3F88420D206FBD4D3F88400C0F383
:1076A000811070470040005038B5124B0546D3F8A2
:1076B00080300C4603F00303022B0BD0032B0DD0BC
:1076C000012B0FD1FDF782FB0E2305B1286004B119
:1076D000236038BDFDF7C4FB0723F6E7FDF770FB19
:1076E0000623F2E7044841F2DF1129F0A7F900234D
:1076F0001846EAE7008000500D29050838B51A4BF6
:107700000546D3F820010C4600F00700062821D8D2
:10771000DFE800F028040C1410181C00FDF750FBE3
:10772000052305B1286004B1236038BDFDF77EFB59
:107730000323F6E7FDF794FB0723F2E7FDF78CFB45
:107740000223EEE7FDF73CFB0623EAE7FDF76EFBBD
:107750000423E6E7054841F25C2129F06FF9002394
:107760001846DEE70123DCE7008000500D290508FC
:1077700038B5194B0546D3F828310C4603F00703FA
:10778000013B052B20D8DFE803F003131B0F0B1779
:10779000FDF716FB052305B1286004B1236038BD51
:1077A000FDF70EFB0623F6E7FDF75AFB0723F2E78A
:1077B000FDF73CFB0323EEE7FDF738FB0423EAE784
:1077C000FDF74AFB0223E6E7044841F2640129F091
:1077D00035F900231846DEE7008000500D29050822
:1077E000F7B50027144B0197D3F88041064604F003
:1077F0000304022C0D4614D0032C0DD0012C14D1FF
:10780000394601A8FFF77AFF10240EB1019B3360BF
:1078100005B12C6003B0F0BDFDF722FB07240190F9
:10782000F3E7FDF719FB0190EFE741F2B1310348AF
:1078300029F004F93C46E8E7008000500D290508CE
:10784000002337B50193194B0546D3F820320C4677
:1078500003F00703042B1FD8DFE803F025030F1400
:107860001900002101A8FFF783FF12230DB1019A2F
:107870002A6004B1236003B030BDFDF7F1FA07239D
:107880000190F3E729F03FF80A230190EEE7FDF7B6
:1078900029FB09230190E9E741F22301044829F07B
:1078A000CDF80023E2E70123E0E700BF00800050AD
:1078B0000D29050838B5104B0546D3F840310C4664
:1078C00003F00303022B0BD0032B0DD0012B0FD1A0
:1078D00029F019F80A2305B1286004B1236038BDE6
:1078E000FDF700FB0923F6E729F010F80C23F2E777
:1078F00001230020EFE700BF00800050002337B5D0
:107900000193184B0546D3F860320C4603F0070389
:10791000013B032B1FD8DFE803F0020E19140021EE
:1079200001A8FFF7EBFE10230DB1019A2A6004B104
:10793000236003B030BD002101A8FFF7BBFF112376
:10794000F2E7FDF78DFA07230190EDE7FDF784FAE2
:1079500002230190E8E741F2C801034829F06EF8DC
:107960000023E1E7008000500D290508002337B50A
:107970000193184B0546D3F894320C4603F00703E5
:10798000013B032B1FD8DFE803F0020E191400217E
:1079900001A8FFF7B3FE10230DB1019A2A6004B1CC
:1079A000236003B030BD002101A8FFF783FF11233E
:1079B000F2E7FDF755FA07230190EDE7FDF74CFAE2
:1079C00002230190E8E741F2FB01034829F036F871
:1079D0000023E1E7008000500D29050873B500245D
:1079E0000F4B0194D3F87032064603F00303012BCA
:1079F0000D4607D0022B11D041F22611094829F07B
:107A00001DF804E0214601A8FFF754FF11240EB130
:107A1000019B336005B12C6002B070BD1524F6E700
:107A2000008000500D29050838B5164B0546D3F8DF
:107A300000020C4600F00700042819D8DFE800F027
:107A400020030B0F130028F05EFF0A2305B1286006
:107A500004B1236038BDFDF745FA0923F6E728F0A5
:107A600055FF0C23F2E7FDF7CBF90F23800AEDE772
:107A7000054841F26F4128F0E1FF00231846E5E791
:107A80000123E3E7008000500D29050838B5164BA7
:107A90000546D3F808020C4600F00700042819D860
:107AA000DFE800F020030B0F130028F02CFF0A235F
:107AB00005B1286004B1236038BDFDF713FA09232E
:107AC000F6E728F023FF0C23F2E7FDF799F90F23DF
:107AD000800AEDE7054841F2A74128F0AFFF0023F7
