:020000040800F2
:1000000000100020E91B00080F8900080F89000874
:100010000F8900080F8900080F8900080F89000860
:100020000F8900080F8900080F8900080F89000850
:100030000F8900080F8900080F8900080F89000840
:100040000F8900080F8900080F8900080F89000830
:100050000F8900080F8900080F8900080F89000820
:100060000F8900080F8900080F8900084112000855
:100070002B8200080F8900080F8900085D1F000807
:100080000F8900080F8900080F8900080F890008F0
:100090000F890008ED2600080F8900080F89000865
:1000A0000F890008ED280008C92800080F890008FA
:1000B0000F8900080F8900080F8900080F890008C0
:1000C0000F8900080F8900080F8900080F890008B0
:1000D0000F8900080F8900080F8900080F890008A0
:1000E0000F8900080F8900080F8900080F89000890
:1000F0000F8900080F8900080F8900080F89000880
:100100000F8900080F8900080F8900080F8900086F
:100110000F8900080F8900080F8900080F8900085F
:100120000F8900080F8900080F8900080F8900084F
:100130000F8900080F8900080F8900080F8900083F
:100140000F8900080F8900080F890008038E000836
:100150000F8900080F8900080F8900080F8900081F
:100160000F8900080F8900080F8900080F8900080F
:10017000013800D0FCE77047D0B51BA7D7E900676E
:100180002DED028B04469FED1A8AD4ED007AF4EE31
:10019000C87AF1EE10FA0EDA13A7D7E900679FEDDF
:1001A000158AD4ED007AF4EEC87AF1EE10FA0ED486
:1001B000BDEC028BD0BD17EE900A05F071FD324602
:1001C0003B4605F00DFC06F085F82060DDE717EEF4
:1001D000900A05F065FD32463B4605F003FC06F04B
:1001E00079F82060DDE700BF182D4454FB21194049
:1001F000DB0F4940DB0F49C02DE9F04FC76997B0CD
:100200008346209E08910C92129355EC104B8DED75
:10021000000B7FB9102006F06DFA0246CBF81C00E7
:1002200020B9A74BEF21A74806F034FAC0E90177BF
:100230000760C760DBF81C30196859B15A680123A0
:10024000584693404A608B6007F0AAF8DBF81C30F0
:1002500000221A602B1EB7BF23F0004300230122A7
:100260000193A8BF3360019F974BB8BF3260BB4377
:1002700019D142F20F73129A1360C7F31303234389
:1002800000F0DB85219B53B9904B21E0904B039309
:100290000833219A1360039817B0BDE8F08F8B4B99
:1002A00003930333F5E79DED007B0022002351EC1F
:1002B000170B8DED0A7B05F0B3FF804650B101238B
:1002C000129A1360219B13B1824B219A1360824BC7
:1002D0000393E0E7C7F30A5614AA15A958469DED03
:1002E0000A0B07F0E5FA0290002E76D00B9BA6F2DF
:1002F000FF36CDF84C80C3F3130343F07F53DDE9A1
:100300000A0143F4401319460022744B05F068FBC0
:1003100065A3D3E9002305F01BFD65A3D3E9002302
:1003200005F060FB04460D46304605F0A7FC62A3CD
:10033000D3E9002305F00CFD02460B462046294672
:1003400005F050FB04460D4605F09CFF00220746D1
:1003500000232046294605F06DFF40B1384605F0E0
:100360008DFC22462B4605F05BFF00B9013F162F9E
:1003700052D85B4B03EBC703DDE90A01D3E9002345
:1003800005F058FF002849D0013F00231193149B2A
:100390009B1B5A1E4CBFC3F101030023079245BFAC
:1003A0000693002306930793002F39DB079B1097D2
:1003B0003B44079300230993089B092B66D8052B20
:1003C000C5BF043B002401240893089B023B032B78
:1003D00067D8DFE803F02D3A3859DDE914631E448D
:1003E00006F23243202BC9BFC3F14003C3F12003FF
:1003F0009F4006F21243D8BF04FA03F006F1FF361D
:10040000C4BF24FA03F347EA030005F027FC0122E6
:10041000A1F1F873139276E70123B7E71190B6E7DD
:10042000069BDB1B06937B42099300231093C3E7D3
:1004300000230D930C9B002B56DC012399461A4692
:1004400004930C920CE00123F3E700230D930C9B23
:10045000FB1803F1010904934B46012BB8BF01239C
:10046000DBF81C000021042202F114059D423FD953
:100470004160584606F054FF039000283BD1194BC9
:10048000024640F2AF11CEE60123DFE7012400234C
:100490000D9408934FF0FF330022994604931223E2
:1004A000CFE701230D93F5E761436F63A787D23F41
:1004B000B3C8608B288AC63FFB799F501344D33F53
:1004C0000EA2000825A200080000F07F0AA2000882
:1004D00001A20008DEA10008DDA100080000F83F2D
:1004E00020A300087EA200080C9B99460493B7E75E
:1004F00001315200B8E7DBF81C30B9F10E0F039A56
:100500001A606FD8002C6DD0002F36DD07F00F0277
:10051000A04BF8054FEA271403EBC20393ED007BD1
:100520008DED0E7B17D59C4B04F00F044FF00308A4
:10053000D3E90823DDE90A0105F034FDCDE9000126
:10054000954D5CB9DDE90E23DDE9000105F02AFDDA
:10055000CDE900012BE04FF00208F1E7E10709D5F2
:1005600008F10108DDE90E01D5E9002305F0F0FBF3
:10057000CDE90E0164100835E3E700F007817C4205
:10058000844B854D4FF0020804F00F02241103EB59
:10059000C203DDE90A01D3E9002305F0D9FB0023FA
:1005A000CDE90001002C40F0E580002BD0D1119B5B
:1005B000DDE90045002B00F04C810022774B2046FE
:1005C000294605F037FE002800F04381B9F1000FFD
:1005D00000F03F81049B002B00F3E480DDE90A3446
:1005E000CDE90034159B002B02DB0E2F40F3428235
:1005F0000D9A002A40F06782099C0025DDF81880DA
:10060000B8F1000F0DD0079B002B0ADD4345069A79
:10061000A8BF4346D21AA8EB03080692079AD31A3A
:100620000793099B0BB30D9B002B00F0A682002CB7
:1006300000F0A18229462246584606F0DBFF029AC6
:1006400001460546584606F02BFF029906465846D5
:1006500006F0A6FE099B1B1B099300F09182099AE4
:100660003146584606F0C6FF02900121584606F072
:1006700001FF109B0446002B00F084821A460146BD
:10068000584606F0B7FF089B0446012B03DC009B8D
:10069000002B00F07C820026236904EB8303186999
:1006A00008F0D8FEC0F120001096079B184410F007
:1006B0001F0000F09182C0F12003042B40F38182DF
:1006C000C0F11C00069B034480440693079B03442F
:1006D0000793069B002B05DD1A460299584606F043
:1006E000E3FF0290079B002B05DD21461A46584682
:1006F00006F0DAFF0446119B002B00F076822146BB
:10070000029808F0F6FE002880F26F8200230A2289
:100710000299584606F066FE0D9B7E1E0290002B45
:1007200000F05C82002329460A22584606F05AFE51
:10073000049B0546002B03DC089B022B00F35E8222
:10074000B8F1000F05DD29464246584606F0ACFFD9
:100750000546109B002B00F0D0826968584606F0D1
:10076000DFFD0746002840F07F820D4B024640F235
:10077000EF2158E5E20706D508F10108D5E9002385
:1007800005F0E6FA0123641008350BE74FF0020884
:100790000DE700BF20A30008F8A200080000F03F0A
:1007A0007EA2000820460022AC4B294605F0D0FA74
:1007B0007E1E08F10108049CCDE90001404605F0C9
:1007C0005DFADDE9002305F0C3FAA54B002205F030
:1007D00009F9A1F15073CDE90E010F93002C3BD123
:1007E0000022A04BDDE9000105F0FAF802460B46B5
:1007F000CDE90023DDE90E2305F03AFD002840F0A5
:100800005781DDE90E2101F10043DDE9000105F02A
:1008100011FD00283FF4E2AE002425460C9BDDF8D4
:100820000CA0DE434FF000082146584606F0B8FD04
:10083000002D00F0A980B8F1000F05D0A84503D025
:100840004146584606F0ACFD2946584606F0A8FD3C
:100850009AE03E464C46B1E7834B03EBC40353E9B1
:100860000201039B1C440D9B002B4AD002460B4601
:1008700000207E4905F096FBDDE90E2305F0B0F877
:10088000DDF80CA0CDE90E01DDE9000105F0FAFC70
:10089000054605F0F3F9024630350B46DDE9000167
:1008A00005F09EF80AF8015B02460B46CDE900010F
:1008B000DDE90E0105F0DCFC002865D100206C4963
:1008C000DDE9002305F08CF802460B46DDE90E0158
:1008D00005F0CEFC002840F00D81A24500F0EA8032
:1008E00000225E4BDDE90E0105F032FA00225B4B7F
:1008F000CDE90E01DDE9000105F02AFACDE900019C
:10090000C2E7DDE90E2305F023FAA046DDF80CA0CE
:10091000CDE90E01DDE9000105F0B4FC054605F066
:10092000ADF9024630350B46DDE9000105F058F817
:100930000AF8015B02460B46A245CDE900234FF0C1
:10094000000223D1494BDDE90E0105F04BF80246C8
:100950000B46DDE9000105F08BFC002840F0CA8061
:1009600000204249DDE90E2305F03AF802460B4625
:10097000DDE9000105F05EFC70B1C24608F1FF3808
:100980001AF8013C302BF8D0374655E0334B05F0D0
:10099000DFF9CDE90001BDE7DDE90A34CDE9003436
:1009A000159B002BFFF628AE0E2F3FF725AE2E4BE2
:1009B00003EBC70393ED007B0C9B002B8DED047BB9
:1009C00002DAB9F1000F64D0DDF80CA0DDE90045D2
:1009D000DDE904232046294605F0E4FA05F052FC3F
:1009E000064605F04BF9DDE9042305F0B1F90246AE
:1009F000204606F130040B46294604F0F1FF0AF8C0
:100A0000014B039C02460B46AAEB0404A14540F0AF
:100A1000828004F0E7FF04460D46DDE9042305F07B
:100A200027FC002865D120462946DDE9042305F08E
:100A3000F7FB08B1F3075CD40299584606F0B0FC06
:100A4000002301378AF80030129B1F60219B002B86
:100A50003FF421ACC3F800A01DE400BF0000244017
:100A600000001C400000144020A300080000E03FEC
:100A70000000F03FA24B03EBC70393ED007B0C9B00
:100A8000002B8DED047B9FDAB9F1000F9CDC7FF425
:100A9000C3AE00229B4BDDE9040105F059F9DDE905
:100AA000002305F0DBFB044600287FF4B5AE3E468C
:100AB0002546B4E0DDE90A34CDE90034159B002B6E
:100AC00001DB0E2FD6DD089A012A36DC139A82B399
:100AD00003F23343099CDDF81880069A0121584639
:100AE0001A440692079A1A44079206F0C3FC054678
:100AF00086E53E4653469A4613F8012D392A06D11B
:100B0000039A9A42F7D13022039901360A701A7873
:100B100001321A7038E700227B4B05F019F90022E8
:100B2000002304460D4605F07BFB00283FF450AF40
:100B300082E7149BC3F13603CCE709F1FF34099B2C
:100B4000A34208DBB9F1000FA3EB04040EDBDDF8D0
:100B500018804B46C1E7099B109AE31A0994DDF807
:100B6000188000241A444B461092B6E7069BA3EB6C
:100B700009080023B1E7029E71E5099A029970E520
:100B8000029672E5089B012B17DC009BABB9019B19
:100B9000C3F313039BB9019B23F00046360D3605C2
:100BA00036B1069B012601330693079B0133079359
:100BB000109B002B7FF470AD1096012075E5002688
:100BC000F6E73FF486AD1C33069A1A449844069221
:100BD000079A1A4407927CE50346F4E7049B002B2E
:100BE0002BDC089B022B09DC27E0B9F1000F1DDC90
:100BF000089B022B1ADD3E46CDF81090049B002B7B
:100C00007FF40CAE21460522584606F0EBFB014668
:100C10000446029808F06DFC00287FF7FFADDDF870
:100C20000CA0312301360AF8013BFBE50D9B3E4643
:100C3000CDF81090002B7FF483AD039F21460298DE
:100C400008F07BFB039B00F13009049A07F8019B35
:100C5000FB1A9A4240F3CB8000230A22029958469D
:100C600006F0C0FB0290E9E72A6905F10C010C309F
:100C70000232920008F04CFB01223946584606F039
:100C800013FD039BA846054603F1010ADDE9032392
:100C900013440793009B03F0010309930AF1FF3308
:100CA00021460298049308F048FB4146069000F163
:100CB0003009029808F01DFC2A462146074658468E
:100CC00006F05EFDC268014602B3584606F068FBB6
:100CD000002F3ADA01220299584606F0E5FC214637
:100CE000029008F006FC002803DC29D119F0010F5E
:100CF00026D0B9F1390F1DD132E02846C1E700BF37
:100D000020A3000800001440000024400A9002982C
:100D100008F0EFFB0A990C90584606F041FB0C9A3C
:100D20005ABB089B53B9099B43B9B9F1390F17D086
:100D3000002F05DD069B03F1310901E0002F2ADABF
:100D4000DDF810A00AF8019B6EE5089B3B4304D137
:100D5000009B03F00103002BBCD0B9F1390F36D151
:100D6000049F392307F8013BBA46013F1AF8013CBA
:100D7000392B5AD001333B7056E5002F06DB089B18
:100D80003B4306D1009B03F0010313B9002AA1DC09
:100D9000D6E7002AE1DC079B57460AF8019C534539
:100DA0002ED000230A220299584606F01BFBA845C4
:100DB00002904FF000034FF00A02414658460BD113
:100DC00006F010FB804605460AF1010A66E7DDF8E9
:100DD00010A009F10109B5E706F004FB2946804699
:100DE00000230A22584606F0FDFA0546ECE7049B6C
:100DF0004FF00008002BCCBF1F460127039B1F4468
:100E000001220299584606F04FFC2146029008F054
:100E100070FB0028A8DC02D119F0010FA4D1BA465A
:100E200017F8013D302BFAD0FEE4039BBB429BD167
:100E30003123039A01361370F6E4219B002B7FF4D3
:100E400025AA014BFFF744BA01A200080348044B4E
:100E5000834202D0034B03B11847704708120020A9
:100E60000812002000000000064B0749C91A89102B
:100E700048BF0131491003D0044B0BB1014818475A
:100E8000704700BF08120020081200200000000078
:100E900010B5064C237843B9FFF7D8FF044B13B1C4
:100EA0000448AFF300800123237010BD3A180020DE
:100EB0000000000040A4000808B5054B1BB105491F
:100EC0000548AFF30080BDE80840FFF7CDBF00BF85
:100ED000000000000812002040A40008A3F5803A9A
:100EE000704700BF174B002B08BF134B9D46FFF701
:100EF000F5FF00218B460F461348144A121A08F0DA
:100F0000C4F90E4B002B00D098470D4B002B00D09E
:100F100098470020002104000D000D48002802D051
:100F20000C48AFF3008006F08DF92000290007F08F
:100F30003DF905F0CDFB00BF0000080000000000F7
:100F4000000000000010002008120020701800208F
:100F50000000000000000000F0B5044685B019480C
:100F600007F004FD0546012D174828D107F065FD5F
:100F7000B4F9000004F082FE0646B4F904000F46FE
:100F800004F07CFECDE90201B4F9020004F076FE23
:100F90003B46CDE9000132460C4806F06FF80C4B99
:100FA0001D70084807F0E2FC044630B9084D2B7864
:100FB0001BB1084806F074F82C7005B0F0BD07F0BE
:100FC0003FFDEEE7E4990008149A000840980008F5
:100FD0003B1800207299000813B500F065FC044628
:100FE000C8B9B3EE090A00F089FC01222346114674
:100FF000104603F01BFA22460949012001F032FC99
:10100000FF2802464FF0010108D023460846CDE9EB
:10101000001103F09BF9204602B010BD0C46FAE720
:101020008D81000810B5084C00F018F8204607F034
:1010300004FD064800F0C0FF00F02CF82046BDE893
:10104000104007F0FDBC00BF149A0008E4990008A6
:101050000122014B1A7070473C18002008B508485F
:1010600006F01EF8074806F01BF8074806F018F8C7
:10107000064806F015F8BDE80840054806F010B827
:101080005498000884980008B4980008E398000871
:101090001099000807B5FFF79FFF034648B10C48B9
:1010A00005F0FEFF33210B4803B05DF804EB07F0B9
:1010B00042BC094AC8211070CDE90000074A08481F
:1010C00004F0EAFA074803B05DF804EB05F0E8BF66
:1010D0003C9900085E9900083C1800205110000857
:1010E000201200207099000810B5274C02F040F93A
:1010F00002F068FB236F23F0070343F00303236729
:1011000007F000FD214B00209B6ADB015EBF4FF41E
:1011100080321F4B9A62D4F8203123F0070343F04A
:101120000203C4F82031D4F8283123F0070343F038
:101130000203C4F82831D4F8403123F0030343F00C
:101140000203C4F84031D4F8603123F0030343F0C4
:101150000203C4F86031D4F8403223F0030343F0B3
:101160000203C4F84032D4F8003223F0070343F0FE
:101170000203C4F80032D4F8083223F0070343F026
:101180000203C4F8083210BD008000500040005A2D
:101190000060005A30B5234D9DB008AC0FCD0FC490
:1011A00095E80F0084E80F002C22002111A808F018
:1011B0006CF81D4B012410935623129305231593AD
:1011C00006230E2200210DF112008DF845401793E1
:1011D00008F05BF84FF47020144B08AACDE9020325
:1011E0000B238DF810300C238DF81130104B114863
:1011F000059320230693104B02A9009310AB8DF8A2
:101200001D4003F03DFD044618B17C210B4807F05A
:1012100092FB00214FF4E13007F062F820461DB048
:1012200030BD00BFAC9900080000015B3C00015BD1
:101230003D180020A4120020401200207B990008D5
:10124000014807F04CBD00BFA412002008B50448B7
:1012500007F072FBBDE80840024807F06DBB00BF15
:10126000E4990008CC99000808B5054807F0E2FBAE
:10127000044807F0DFFBBDE80840034807F0DABB8D
:101280002C9A0008149A0008FC990008082808B550
:1012900004D00FDC022809DC002809DD0123042228
:1012A0000921022003F0C2F8002008BD0428F5D06F
:1012B000D82106E02028F1D0402807D01028F7D107
:1012C000B921044807F037FB0E20EEE70123042282
:1012D0000821E6E7449A00088022014B1A6470470F
:1012E00000E0035070B514460D4640F080010A48F6
:1012F000FFF7F2FF07F050FC074E2544AC4204D143
:101300008022064B00201A6470BD0021304607F091
:1013100043FC04F8010BF1E700000A5000D0035031
:1013200038B50C46084D00F07F012846FFF7D4FF82
:1013300007F032FC2146284607F02EFC8022034BA2
:1013400000201A6438BD00BF00000A5000D00350CE
:1013500070B5264C8EB0264601AD0FCE14340FC5A5
:101360000FCC06AD0FC594E80F0085E80F00204BA9
:101370000121039306AB05934FF480735720ADF81A
:101380001C3001F0A5FD01213A2001F0A1FD002350
:1013900004220321022003F049F802210023084619
:1013A000012203F043F8002304220121022003F06C
:1013B0003DF8012304220721002003F037F80D48EF
:1013C00001A902F06BFE0C4B0C4A0020C3F8CC24A0
:1013D0004FF00212C3F8C424A2F58032C3F8C82427
:1013E0001C22C3F8B4240EB070BD00BFF89A0008E8
:1013F000A05A320000000A5000C00350020003004F
:1014000010B52DED028B9FED188AB7EE007AC8EE6D
:10141000007A77EEC77A9FED157AF4EEC77AF1EE8F
:1014200010FA82B019DCF5EEC07AF1EE10FA17D49A
:10143000FCEEE77ACDED017A9DF8044019202146B3
:10144000FFF76EFF631C00EE103AB8EEC00A88EE9C
:10145000000A02B0BDEC028B10BDF0EE477AE7E760
:10146000DFED037AE4E700BF00007A4400007F4329
:101470000000000013B5044601211C200DF10702F5
:10148000FFF730FF9DF8073003F01803102B8DF89D
:10149000073012D009D89BB1082B14D00B484FF459
:1014A000AA7107F048FA012005E0182BF6D14FF099
:1014B00068530020236002B010BD4FF06653F8E778
:1014C0004FF06253F5E74FF06453F2E79E9A00083D
:1014D00013B5044601211B200DF10702FFF702FF9F
:1014E0009DF8073003F01803102B8DF8073011D04A
:1014F00009D88BB1082B11D0094840F2791107F0B7
:101500001AFA012004E0182BF6D1064B00202360C4
:1015100002B010BD044BF9E7044BF7E7044BF5E7C5
:101520009E9A000800007A3D0000FA3C0000FA3B59
:1015300000007A3C01212DE9F043002285B080466D
:10154000084606F0BFFF9FED6D0AFFF759FF052023
:1015500006F01DFF002006F0A2FF6846FFF7B8FF67
:10156000322004F05FF840211A20FFF7D9FE442111
:101570006A20FFF7D5FE78212320FFF7D1FE052052
:1015800004F050F80221722001AAFFF7ABFEBDF86B
:1015900004305BBA9BB2B3F5FC7FF0D37822002114
:1015A000232006F0B8FE0221722001AAFFF79AFE5E
:1015B0004FF000090C23BDF804704C467FBABFB24F
:1015C000B7FBF3F74D464E461FFA89F3BB4278D37B
:1015D00096FBF7F607EE906A9DED007AF8EEE77A53
:1015E00095FBF7F567EE877AC8ED007A07EE905A1B
:1015F000F8EEE77A94FBF7F467EE877AC8ED017AA4
:1016000007EE904AF8EEE77A67EE877A01AAC8ED0E
:10161000027A02211320FFF765FE9DF904309DF840
:10162000058001AA0221152048EA0328FFF75AFE87
:101630009DF904309DF8057001AA0221172047EAA0
:101640000327FFF74FFE002E9DF904209DF805307B
:10165000B8BF0336002DA8EBA606B8BF0335002C93
:1016600043EA0223B8BF0334C6F307211320A3EBD8
:10167000A404A7EBA505FFF753FEF1B21420FFF772
:101680004FFEC5F307211520FFF74AFEE9B21620E9
:10169000FFF746FEC4F307211720FFF741FEE1B232
:1016A0001820FFF73DFE402200216A2006F033FE9D
:1016B00000221146104606F005FF002005B0BDE8E7
:1016C000F08301AA0C217420FFF70CFE9DF90A207B
:1016D0009DF80B3009F1010943EA02231E449DF9EC
:1016E0000C209DF80D3043EA02231D449DF90E2085
:1016F0009DF80F3043EA02231C4465E700007A445A
:10170000B7EE007AC7EE007A9FED057AC0ED157A44
:10171000C7EE007A80ED140AC0ED167A704700BF5C
:1017200035FA8E3CF0B52DED048B0F4600F15C05CB
:101730000446D0ED098A90ED0A9AD0ED0B9A85B057
:1017400028461646B0EE408A07F071F8002F48D0C0
:1017500094ED097ADFED386AB4EEE67AF1EE10FA2C
:101760003FDBDFED367AB4EEE77AF1EE10FA38D8E7
:1017700094ED0A7AB4EEE67AF1EE10FA31DBB4EECB
:10178000E77AF1EE10FA2CD8F5EEC09AF1EE10FAE5
:10179000F1EE688AB1EE490A04F1680725DB06F02C
:1017A0002FFA8DED010AB0EE680A06F029FAB1EEC3
:1017B000400A28463A4601A98DED020A8DED038ABA
:1017C00007F06DF8284607F025F80EB90023636688
:1017D000D4ED147AB6EE000A284680EE270A07F008
:1017E0003EF805B0BDEC048BF0BD06F009FA9FEDA4
:1017F000149A39EE400A8DED010AB0EE680A06F03F
:10180000FFF938EE098AB1EE400A01A88DED020A0F
:101810008DED038A06F0FEFF3A46284601A907F03F
:101820003EF8284606F0F6FFD4ED187AF1EE677A16
:10183000C4ED187AC9E700BFDA1B7CBFDA1B7C3F16
:10184000DB0F494070B5044600F052F80128054608
:1018500026D104F12406304600F0D6F83146204661
:1018600004F1440606F05FFF304600F0DBF8D4EDEB
:10187000117AF1EE677AC4ED117AD4ED127AF1EEB5
:10188000677A31462046C4ED127A06F068FF294691
:101890002046BDE870409FED030A0022FFF742BFDB
:1018A00070BD00BF000000007FB502250E4E0F483E
:1018B000357006F016FF06F046FD044660B90DF1DE
:1018C000030006F040FE044630B9032301A833703C
:1018D000FFF730FE044610B106F011FD002520464A
:1018E000357004B070BD00BF5D180020BC12002030
:1018F000014B1878704700BF5D18002070B50121BA
:101900002DED028B0223B0EE408A1C4E82B00022E5
:101910000846337006F0D6FDB0EE480AFFF770FDBA
:10192000174D082085ED000A06F041FD032006F062
:101930002EFD002006F0A0FD002006F0B0FD3220B4
:1019400003F070FE0F4C0021012006F0D4FD01A829
:1019500006F0DFFD95ED000A204606F0E1FE95ED6C
:10196000000A2046FFF7CCFE204606F014FF0123B4
:10197000337002B0BDEC028B70BD00BF5D1800205B
:1019800038130020BC1200201A4AD36B6BB392EDBF
:101990000C6A9FED197A07EE903A26EE076AF8EE88
:1019A000677AC6EE276A92ED0D6AFDEEE66A26EECC
:1019B000076A16EE903AC6EE276AFDEEE66A0380E5
:1019C00016EE903AD2ED0E6A66EE876A86EEA77A38
:1019D000BDEEC77A438017EE103A8380002313636D
:1019E000536393630023D3637047038043808380F2
:1019F000704700BFBC12002000007A440148FFF786
:101A000021BF00BFBC120020054A1278012A04D071
:101A10000022026042608260704706F0CDBC00BFC9
:101A20005D180020054A1278012A04D000220260C5
:101A300042608260704706F0EFBC00BF5D18002076
:101A400008B5094B1B78012B01D0002008BD06F01A
:101A50006CFD064A1368013313600028F5D0044A70
:101A6000136801331360F1E75D1800203413002080
:101A7000301300209FED060A00F10C03B0EC017A50
:101A8000F1EC017A984207EE270AF7D1704700BFC0
:101A9000000000000122024BC3F8A020704700BFE5
:101AA00000D003500122024BC3F8A020704700BFB2
:101AB00000E0035070B5404D88B001AC0FCD0FC4AD
:101AC00095E8070084E80700012401213A2001F08D
:101AD000FFF93A4E0121292001F0FAF9384B30463E
:101AE00001A903938DF8124002F0F0FE2346042270
:101AF0000321022002F09AFC02212246084600231C
:101B000002F094FC234621460422022002F08EFCBF
:101B1000042200212346022002F088FC294D2A4B92
:101B20004FF44870C5F834374FF00213C5F830371A
:101B300003F58033C5F838371C23C5F8203703F088
:101B40001FFF1420FFF7AEFF03F01AFF2320FFF75B
:101B5000A1FF03F015FFB9213046FFF7A3FF07F0FF
:101B600035F8FFF797FF002303211A46022002F001
:101B70005DFC002302211A46084602F057FC23466A
:101B800021460022022002F051FC00222346114689
:101B9000022002F04BFC304602F06CFE00212920AE
:101BA000C5F83417C5F83017C5F83817C5F8201729
:101BB00001F08EF908B070BD2C9B000800C00550E4
:101BC00000127A0000C00350020001000348044ADA
:101BD0000449121A921006F09BBE00BF5CA60008D2
:101BE0005CA600087018002008B500F02FF8FFF779
:101BF000EDFF124B12498B4212D30020114B1249B8
:101C00008B4218D3FFF76EF9186850F822405868D5
:101C100040F82240013298688242F5D30C33EAE75B
:101C20000022F8E71C6844F8220001325C68A242F6
:101C3000F8D30833E4E70022F8E700BF48A400081F
:101C400054A4000854A4000854A400084FF4804190
:101C50004FF0FF30114B124A10B59A60D3F888202C
:101C600042F47002C3F888200E4A91660E4901F5CD
:101C7000005210660D4850660220C3F8D000BFF332
:101C80004F8FBFF36F8F01244FF440330848C0F8E3
:101C90008041D36004600B6110BD00BF00ED00E027
:101CA000000000080090005000800044F7FF37005B
:101CB00000E100E0014B1868704700BF04100020ED
:101CC000084B1B6F03F00703022B04D0032B05D036
:101CD000012B05D0FEE7044B18687047034BFBE768
:101CE0000348704700800050041000200C100020B2
:101CF000002D310108B5FFF7E3FF054B1B6FC3F360
:101D000003330133B0FBF3F0024B186008BD00BF92
:101D100000800050001000200048704700B4C40448
:101D2000014B1868704700BF0C100020054B18606D
:101D3000054B1B6F03F00703032B01D1FFF7DABF3D
:101D4000704700BF0C100020008000500048704712
:101D5000002D31014FF0B4439868C0F304400C28C3
:101D60000AD8DFE800F00B09090909090721190958
:101D70001B1D1F000F487047002070479B6803F031
:101D80004073B3F1807F11D0B3F1007F10D00A4AC5
:101D9000002B08BF10467047084870470848704736
:101DA0000848704708487047084870470848704717
:101DB00008487047405DC60000093D00C0EA2101A7
:101DC00080BA8C010048E801005A62020024F40045
:101DD00080841E0040420F00014B1868704700BF0E
:101DE000081000200346054A0549106803448B4249
:101DF0008CBF4FF0FF301360704700BF1010002001
:101E0000000004204FF0BA420123054802F580513A
:101E10004B60086203490968D160034A1370704738
:101E200001000C1F141000205E1800204FF0BA4172
:101E3000074BCA681A600123064A53604B6813F0C7
:101E40000203FBD14FF0FF311162034A1370704758
:101E5000141000200020005D5E1800204FF0BA42F0
:101E6000D369126A10B5134013F0F8501EBF012059
:101E7000114A1070DC070ED54FF0BA410A695007BD
:101E8000FCD50E4A4C69106820441060886951687E
:101E9000014401205160590341BF08490A6802F119
:101EA00080720A601A0341BF04494A6802F18072D5
:101EB0004A60034AD36110BD5F1800203C13002024
:101EC0000020005D0023044A04491370044A0548B9
:101ED0001360054A00F012B85F1800202D1E00089C
:101EE00044130020051E00085D1E0008024B03C8B5
:101EF00083E80300002070474813002038B50F4CDA
:101F00002378CBB90E4B0F4D19600F4B28601A6028
:101F10004FF080420D4B0E489A66FFF7E7FF4FF4F3
:101F200000420C4B1A602B6803B198470123002034
:101F30002370094B187038BD1220FCE7611800208F
:101F4000541300205813002050130020009000501C
:101F50004813002000E100E06018002008B5044BA1
:101F60001B6823B1984710B10022024B1A7008BDBC
:101F70005013002060180020032838B504460D4691
:101F800005D80A4B33F81030CB40DB0704D440F2BD
:101F9000CF31074806F0CFFC1422302313FB042373
:101FA000044A9858E84000F0010038BDF29B000850
:101FB000489B000830C0035073B5046801210546F2
:101FC0003A2000F085FF002301226179207902F098
:101FD0002DFA61792079FFF7CFFFB0FA80F0A3796D
:101FE0004009022B20701ED100F0D6FB1D4A2B4663
:101FF0006179207900F0FAFBFF280246607915D15B
:102000002A46184900F02EFCFF28054603D1652119
:10201000154806F090FC012361792079CDE9003361
:102020002A4602F093F9002002B070BD0123267900
:10203000014600933046002302F080FA2A460949FF
:10204000607900F00FFCFF28054603D1782106488F
:1020500006F071FC0022012361792079CDE900238B
:10206000DEE700BF45890008949B000808B5012100
:102070003A2000F02DFF012304220321002002F06A
:10208000D5F9002006F0A1FD0122354B3549C3F8F2
:1020900044244FF40022A3F550335A66324BD3F850
:1020A000FC20D20146D4D1F8803023F0030343F062
:1020B0000203C1F880304FF4607000F031FF2A4B0A
:1020C00000F5D520D3F8F02000F2FC4042F00102E8
:1020D000C3F8F020D3F8FC2042F08072C3F8FC2053
:1020E000224AA3F55D431A60214B0222B0FBF3F0B4
:1020F000204B01381861C3F8F0204FF48072C3F808
:1021000004234FF060431C4A0020C3F8B02F1B4A41
:10211000C3F8802ED3F8002E42F48072C3F8002E4C
:10212000FF2283F82020D3F8002E22F48072C3F817
:10213000002E08BDD3F8FC2022F08072C3F8FC20EA
:10214000D1F8802022F0030242F00202C1F8802080
:10215000D3F8FC2042F08072C3F8FC20ABE700BF4C
:1021600000D003500080005000ED00E0FF0300406D
:10217000F8590D00000004E055CEACC5090001007F
:102180004FF06043D3F8802E30B5D20715D5012427
:102190000B4D8440D5F8FC2042F08072C5F8FC203D
:1021A000D3F8002E2243C3F8002E53F82020002A33
:1021B000F0D003F82010002030BD1120FCE700BF54
:1021C00000ED00E0032838B504460D4605D8094B5C
:1021D00033F81030CB40DB0704D440F2FE31064820
:1021E00006F0A9FB302301225C43044BAA401A519C
:1021F00038BD00BFFA9B0008489B000840E0035030
:10220000032838B504460D4605D8094B33F810307D
:10221000CB40DB0704D440F22D41064806F08BFB8F
:10222000302301225C43044BAA401A5138BD00BF41
:10223000FA9B0008489B000840D0035038B504784A
:102240004578032C05D8094B33F81430EB40DB07F5
:1022500004D44FF48961064806F06DFB3023012257
:102260005C43044BAA401A5138BD00BFFA9B0008DA
:10227000489B000840F0035070B505780446032DD4
:10228000467805D80C4B33F81530F340DB0704D4FF
:102290004FF48361094806F04EFB1022302313FBF4
:1022A0000523074A9B58F34003F00100A3780BB9BC
:1022B00080F0010070BD00BFFA9B0008489B000839
:1022C00030C003502DE9F04F9A46564B85B01B782D
:1022D00006460F461546DDF83C909DF844B0DDF803
:1022E0005080002B00F09780072A00F296800E9B0A
:1022F000002B00F09280B9F1000F00F08E80129B4D
:10230000B3F5006F00F38980012803D1109B002BE7
:1023100000F08380444B03EB05131B7B002B7ED026
:10232000424C10220021684606F0AFFF04EB451432
:102330001022A7BB3946204606F0A7FF43F2100340
:102340006380BBF1000F03D1E37843F00303E37034
:10235000364A0E9B02EB451CCCE90193129B6901A6
:10236000581E9DF84C30C0F30A0003F003039B068F
:1023700043EA001E53582E48012E00EA03004EEA9D
:102380000003CDF800A0535017D0B8F1000F2ED1A4
:102390009CF8023068F304138CF8023027E0002127
:1023A000204606F072FF4FF444736380BBF1000FC8
:1023B000CED1E37843F03003C9E713230CF1100EBC
:1023C000CCF80C309CE80F008EE80F006FF0030192
:1023D000DCF81C20109B61F39F02012FCCF81C201D
:1023E000CCF8143003D1CCF81890CCF80430002786
:1023F0000D4A290102EB051342F80180159A28467F
:102400005A60694622469F605E7302F04FF9384673
:1024100005B0BDE8F08F0748FAE70748F8E7074836
:10242000F6E700BF621800205C1400205C13002057
:102430000F80FFF3028000F0018000F0078000F0C1
:1024400038B5124B05461B78DBB1E0B106F076FBE0
:102450000F4A00231146147B54B92B6001251A0141
:1024600001EB03131D738C5006F06EFB204638BD44
:102470000133082B02F11002EDD106F065FB05488F
:10248000F5E70548F3E70548F1E700BF62180020CB
:102490005C140020048000F0028000F0018000F055
:1024A00038B506F04BFB002305460B4A147B6CB98C
:1024B0000133082B02F11002F8D102F06FF8074B3C
:1024C00028461C7006F040FB204603E0284606F034
:1024D0003BFB034838BD00BF5C140020621800209D
:1024E000058000F00D4B10B51B78044693B107280A
:1024F00012D806F023FB0A4B03EB04131A7B2AB114
:1025000000241C7306F020FB204610BD06F01CFBC7
:102510000448FAE70448F8E70448F6E762180020A0
:102520005C140020068000F0028000F0018000F0C2
:10253000154B13B51868002301908DF8043006F090
:10254000FDFA124B1C7824B106F0FEFA104802B0D6
:1025500010BD01221A7006F0F7FA0E4B01A81C7389
:102560001C7783F82C4083F83C4083F84C4083F878
:102570005C4083F86C4083F87C4008238DF807307A
:1025800002F04AF82046E2E7029C000862180020A8
:10259000038000F05C1400200A4A08B512785AB192
:1025A00007280BD8084A02EB00131B7B43B100211C
:1025B00002F012F8002008BD0448FCE70448FAE7DE
:1025C0000448F8E7621800205C140020028000F044
:1025D000018000F0078000F00A4A08B512785AB16D
:1025E00007280BD8084A02EB00131B7B43B10121DB
:1025F00001F0F2FF002008BD0448FCE70448FAE7B8
:102600000448F8E7621800205C140020028000F003
:10261000018000F0078000F00A4A08B5127852B134
:1026200007280AD8084A02EB00131B7B3BB102F0D3
:10263000BFF8002008BD0548FCE70548FAE7054853
:10264000F8E700BF621800205C140020028000F050
:10265000018000F0078000F00D4B1B7893B1072834
:1026600012D889B10B4B03EB00131B7B73B10A4BE0
:102670001A6D01238340134214BF0123002300205D
:102680000B7070470548704705487047054870470C
:10269000621800205C14002000000450028000F04A
:1026A000018000F0078000F00B4A10B512780C464C
:1026B00062B107280CD859B1084A02EB00131B7B02
:1026C00043B102F091F82070002010BD0448FCE7EF
:1026D0000448FAE70448F8E7621800205C14002078
:1026E000028000F0018000F0078000F0184B2DE917
:1026F000F0411F6D5B6D1F4000D5FEE701260025F0
:10270000144CDFF85880374218D02368C8F850605E
:10271000A3B1A168284601316268A1609847637B34
:10272000012B0BD150B90C4B03EB45131A7B60F313
:1027300041021A731A7F60F341021A770135082D9E
:102740004FEA460604F11004DDD1BDE8F08100BF78
:10275000000004505C1400205C1300200020045092
:1027600070B5044601250B4E04B970BD94FAA4F06F
:10277000B0FA80F005FA00F306EB001224EA030435
:102780005368002BF0D0117B11B191689847EBE7AB
:102790009847E9E7DC14002008B5192001F034F867
:1027A00028B14FF00072074BC3F880211A601A203D
:1027B00001F02AF828B14FF08062024BC3F8802163
:1027C0001A6008BD00E100E038B505460C4606F089
:1027D000B5F90022044B03EB05135C601A73BDE8E6
:1027E000384006F0B1B900BFDC140020F8B504464B
:1027F0000D4617461E4606F0A1F91CB9052D1AD044
:10280000FF2421E0012C05D1012D21D0032DF7D18A
:10281000042410E0022C07D1052D1BD0072D1BD05E
:10282000002DEDD1062406E0032CE9D1022D15D0B0
:10283000052DE5D10A240A4904F1100301EB031127
:102840000123C1E901760B7306F07EF92046F8BD3D
:102850000324F0E70724EEE70824ECE70924EAE77D
:10286000DC140020F8B505460E46174606F066F95A
:10287000134B2C46D3F8242405F0FC0122FA05F36F
:10288000DB0712D500230133DBB2042B04D1FF2474
:1028900006F05AF92046F8BDEC1804F003040C4485
:1028A00022FA04FC1CF0010FEDD1FF2CF0D0012224
:1028B000044B03EB0413C3E901671A73E8E700BF95
:1028C00000C00350DC140020074BD3F82404D3F8D5
:1028D000202403F50053104000F0553020F0502024
:1028E000C3F82004FFF73CBF00C00350074BD3F8E8
:1028F0002404D3F8202403F50053104000F0AA303C
:1029000020F0A020C3F82004FFF72ABF00C0035026
:10291000044BD3F88420D206FBD4D3F88400C0F350
:10292000811070470040005038B5124B0546D3F86F
:1029300080300C4603F00303022B0BD0032B0DD089
:10294000012B0FD1FFF7BCF90E2305B1286004B1AC
:10295000236038BDFFF7FEF90723F6E7FFF7AAF972
:102960000623F2E7044841F2DF1105F0E4FF0023FB
:102970001846EAE700800050069C000838B51A4B5C
:102980000546D3F820010C4600F00700062821D8A0
:10299000DFE800F028040C1410181C00FFF78AF977
:1029A000052305B1286004B1236038BDFFF7B8F9ED
:1029B0000323F6E7FFF7CEF90723F2E7FFF7C6F99F
:1029C0000223EEE7FFF776F90623EAE7FFF7A8F917
:1029D0000423E6E7054841F25C2105F0ACFF002343
:1029E0001846DEE70123DCE700800050069C000863
:1029F00038B5194B0546D3F828310C4603F00703C8
:102A0000013B052B20D8DFE803F003131B0F0B1746
:102A1000FFF750F9052305B1286004B1236038BDE4
:102A2000FFF748F90623F6E7FFF794F90723F2E7E3
:102A3000FFF776F90323EEE7FFF772F90423EAE7DD
:102A4000FFF784F90223E6E7044841F2640105F048
:102A500072FF00231846DEE700800050069C000845
:102A6000F7B50027144B0197D3F88041064604F0D0
:102A70000304022C0D4614D0032C0DD0012C14D1CC
:102A8000394601A8FFF77AFF10240EB1019B33608D
:102A900005B12C6003B0F0BDFFF75CF9072401908D
:102AA000F3E7FFF753F90190EFE741F2B131034843
:102AB00005F041FF3C46E8E700800050069C000816
:102AC000002337B50193194B0546D3F820320C4645
:102AD00003F00703042B1FD8DFE803F025030F14CE
:102AE0001900002101A8FFF783FF12230DB1019AFD
:102AF0002A6004B1236003B030BDFFF72BF9072330
:102B00000190F3E705F011FF0A230190EEE7FFF7CC
:102B100063F909230190E9E741F22301044805F034
:102B20000AFF0023E2E70123E0E700BF0080005036
:102B3000069C000838B5104B0546D3F840310C46CA
:102B400003F00303022B0BD0032B0DD0012B0FD16D
:102B500005F0EBFE0A2305B1286004B1236038BDFF
:102B6000FFF73AF90923F6E705F0E2FE0C23F2E756
:102B700001230020EFE700BF00800050002337B59D
:102B80000193184B0546D3F860320C4603F0070357
:102B9000013B032B1FD8DFE803F0020E19140021BC
:102BA00001A8FFF7EBFE10230DB1019A2A6004B1D2
:102BB000236003B030BD002101A8FFF7BBFF112344
:102BC000F2E7FFF7C7F807230190EDE7FFF7BEF83C
:102BD00002230190E8E741F2C801034805F0ABFE8B
:102BE0000023E1E700800050069C0008002337B571
:102BF0000193184B0546D3F894320C4603F00703B3
:102C0000013B032B1FD8DFE803F0020E191400214B
:102C100001A8FFF7B3FE10230DB1019A2A6004B199
:102C2000236003B030BD002101A8FFF783FF11230B
:102C3000F2E7FFF78FF807230190EDE7FFF786F83B
:102C400002230190E8E741F2FB01034805F073FE1F
:102C50000023E1E700800050069C000873B50024C3
:102C60000F4B0194D3F87032064603F00303012B97
:102C70000D4607D0022B11D041F22611094805F06C
:102C80005AFE04E0214601A8FFF754FF11240EB1BB
:102C9000019B336005B12C6002B070BD1524F6E7CE
:102CA00000800050069C000838B5164B0546D3F846
:102CB00000020C4600F00700042819D8DFE800F0F5
:102CC00020030B0F130005F030FE0A2305B1286026
:102CD00004B1236038BDFFF77FF80923F6E705F05C
:102CE00027FE0C23F2E7FFF705F80F23800AEDE734
:102CF000054841F26F4105F01EFE00231846E5E746
:102D00000123E3E700800050069C000838B5164B0D
:102D10000546D3F808020C4600F00700042819D82D
:102D2000DFE800F020030B0F130005F0FEFD0A237F
:102D300005B1286004B1236038BDFFF74DF80923C1
:102D4000F6E705F0F5FD0C23F2E7FEF7D3FF0F23BE
:102D5000800AEDE7054841F2A74105F0ECFD0023AC
:102D60001846E5E70123E3E700800050069C0008D1
:102D700038B5104B0546D3F840320C4603F0030338
:102D8000022B0BD0032B0DD0012B0FD105F0CDFD65
:102D90000A2305B1286004B1236038BDFFF71CF891
:102DA0000923F6E705F0C4FD0C23F2E70123002018
:102DB000EFE700BF0080005038B5104B0546D3F850
:102DC00060310C4603F00303022B0BD0032B0DD014
:102DD000012B0FD105F0A9FD0A2305B1286004B12C
:102DE000236038BDFEF7F8FF0923F6E705F0A0FDE4
:102DF0000C23F2E701230020EFE700BF0080005022
:102E0000B0F5207F10B52ED009D8B0F5007F24D0C2
:102E100003D868B1B0F5C07F0AD000241BE0B0F53C
:102E2000607FFAD1124BD3F88040C4F3011412E052
:102E30000F4B1C6F230B13F00E0FC4F303340AD097
:102E4000072C08D00F2C06D0032C04D040F285218B
:102E5000084805F070FD601C10BD054BD3F890408C
:102E6000C4F30464F7E7024B1C6FC4F38024F2E759
:102E700000800050069C00084FF4803238B5104B9B
:102E800004469A6600200D46FFF7BAFF41F67132FC
:102E90000C4B6043DC69DA635A6804F4803422F432
:102EA00040125DB90849884294BF00200120000506
:102EB00002435A600CB10022DA6338BD0349F2E7DD
:102EC0000090005000000350005A6202002D3101B2
:102ED00038B5430904460D460ED140F22F310D4856
:102EE00005F029FD002304F01F0485B103F580538C
:102EF0000122A2401A6038BD012B04D0022B04D05D
:102F000040F23D31EBE7044BEDE7044BEBE703F513
:102F10000053EDE7069C0008648000506880005074
:102F2000002130B5802885B00446CDE9001100F0BD
:102F30009F8035D85E2846D85E2844D8DFE800F068
:102F40009E434343434343434343434343434343F6
:102F50004343434343434343434343434343434341
:102F60009EAB9EABBBBBBBBBBBABC550DB7450AB1E
:102F7000ABAB4343434343434343ABABAB7CE5ABD6
:102F800043434343434343434343434343BB9E9EE3
:102F90009EE05050EA8B61C04343434343939E00FD
:102FA000B0F5B06F00F0918030D8B0F5207F72D0CE
:102FB0000FD8B0F5C07F61D0B0F5007F61D0B0F51B
:102FC000807F00F0878040F29441554805F0B3FCC3
:102FD00051E0B0F5607F69D00DD8B0F5407FF2D1F7
:102FE000FEF788FE04464FF42070FFF709FFB4FB9C
:102FF000F0F4640858E0B0F5806F5CD0B0F5A06FD5
:10300000E1D100216846FFF75BFD34E0B0F5106FB9
:1030100076D016D8B0F5E06F77D00AD8B0F5C06F8B
:1030200069D0B0F5D06FCED100216846FFF73CFEE5
:1030300021E0B0F5F06FC6D100216846FFF7BCFE75
:1030400019E0B0F5406F3BD00AD8B0F5206F61D0E1
:10305000B0F5286FB7D100216846FFF7FFFD0AE001
:10306000B0F5486FAFD100216846FFF7BFFD02E021
:10307000FEF726FE0090009805B030BDFEF73AFE40
:10308000F8E7FEF71DFE05462046FFF7B9FEB5FB43
:10309000F0F50095EFE7FEF72DFE04464FF42070A3
:1030A000FFF7AEFEB4FBF0F40094E4E701A8FFF7ED
:1030B0003BFC019DE8E700216846FFF75FFCDAE78B
:1030C00000216846FFF794FCD5E700216846FFF72A
:1030D000C7FCD0E74FF0E02302911B695B0705D5E1
:1030E000FEF708FE0290029B0093C4E703A902A822
:1030F000FFF720FDF7E700216846FFF71BFDBAE761
:1031000000216846FFF702FEB5E700216846FFF799
:103110002FFEB0E700216846FFF730FDABE700BFA8
:10312000069C000808B58020FFF7FAFE034B984282
:103130009EBF4FF48032024B1A6708BD005A6202EC
:1031400000A000501FB503460020B3F5807F01901A
:1031500000F0C28063D85D2B54D84C2B06D82D2BA1
:1031600046D8232B2AD840F27951A4E04D3B102BAE
:10317000F9D801A252F823F0CF32000867310008D5
:1031800067310008673100088132000867310008A4
:1031900067310008533300089F32000845320008A9
:1031A00049330008673100086731000867310008BB
:1031B00067310008673100085D330008243B092BA4
:1031C000D1D801A252F823F0CF320008CF32000844
:1031D000CF320008CF320008CF3200086731000834
:1031E000BF3200086731000861320008053300086B
:1031F0003D2B00F082803E2BB5D1002001A9FFF7C6
:10320000B7FD60E0802BAED1574B1B6F03F0070377
:10321000013B032B4DD8DFE803F04A47878FB3F516
:10322000F06F6AD021D8B3F5B06F48D00FD8B3F59E
:10323000607F00F0858096D3B3F5806F47D0B3F5FB
:10324000A06F90D1002001A9FFF73AFC3BE0B3F555
:10325000D06F57D0B3F5E06FCFD0B3F5C06F82D148
:10326000002001A9FFF766FC2DE0B3F5206F70D0B8
:103270000BD8B3F5086F4AD0B3F5106F7FF473AF76
:10328000002001A9FFF742FD1DE0B3F5406F5BD0C0
:10329000B3F5486F62D0B3F5286F7FF464AF0020B8
:1032A00001A9FFF7DBFC0EE0052301930BE00223ED
:1032B000FBE740F2C6412D4805F03DFB03E000204E
:1032C00001A9FFF7CDFB019805B05DF804FB0020D4
:1032D00001A9FFF753FBF6E74FF0E02302901B69CB
:1032E0005B0705D5FEF706FD0D230393039BDCE783
:1032F00003A902A8FFF71EFCF8E7002001A9FFF7C9
:103300005BFDE0E7002001A9FFF7CEFCDBE7164BF1
:10331000D3F8003103F00303022B07D0032B09D0AD
:10332000012B0BD1FEF7FCFC0323BEE7FEF754FD97
:103330000923BAE705F0F7FA0823B6E70123B4E753
:1033400001A9FFF7F1FABEE7002001A9FFF750FB42
:10335000B9E7002001A9FFF711FCB4E7002001A99B
:10336000FFF744FCAFE700BF00800050069C000858
:103370004FF48012034B5A664FF48032024B9A622C
:10338000704700BF009000500050005A38B50368E5
:1033900004460F2B04D940F66D317C4805F0CBFA7A
:1033A00063680F2B04D94FF43761784805F0C3FAEE
:1033B000A3680F2B04D940F67331744805F0BBFAAB
:1033C000237B0F2B04D940F67631704805F0B3FA11
:1033D000637B0F2B04D940F679316C4805F0ABFACA
:1033E000A37B3F2B04D940F67C31684805F0A3FA53
:1033F000E37B3F2B04D940F67F31644805F09BFA0C
:103400002369032B04D940F68231604805F093FA12
:103410006369032B04D940F685315C4805F08BFACB
:10342000E369032B04D940F68831584805F083FA44
:103430008020FFF787FE032800F083804FF480127E
:10344000534B4FF0A0615A6645F60E02514BC3F83C
:103450008020514A91624FF4803102F5805291628E
:103460009A6DD203FCD4996D11F08041FBD1D4E95F
:103470000002120542EA0062E07B0243207B42EA3E
:103480000042607B42EA0032A07B42EA80121A616D
:103490009869D4E90452120642EA856200F00040BD
:1034A0000243A07EE57E0243207E42EA0042607E27
:1034B00042EA00229A611A6AE06922F00F0242EAA7
:1034C0008502364D00283DD11A6294F82420996A6D
:1034D00094F82000D200294042EA40120A4394F8AE
:1034E000211042EA011242F480329A622C49294AA0
:1034F000936D31EA0303FBD14FF08071264881625E
:103500001369A56823F4700343EA055313614FF070
:103510000043836194F822300BB9224B996294F8EE
:1035200023303BB94FF480321E4B9A62194A936D97
:103530005B00FCD494F825301BB1164B1A4AC3F833
:10354000802038BD024342F0080202281A6208D1E6
:1035500019614FF40852996114484FF47F4105F006
:10356000AFFA0C4994F822308A6A94F820001B06BE
:103570002A4043EA4013134394F8242043EAC20349
:1035800094F8232043EA02438B62D3E7069C0008A9
:10359000009000500040005A0050005AC7FFFEFE45
:1035A000030001000060005AF1A7FFFF3440005AF9
:1035B000014B93F900007047FD110020436810B5DE
:1035C000072B044604D940F6B3512A4805F0B3F955
:1035D000A368032B04D940F6B551264805F0ABF992
:1035E0002378032B04D940F6B751224805F0A3F9FC
:1035F00094F90130002B04DA40F6B9511D4805F06A
:103600009AF94FF400011C4A637851664FF4D15186
:10361000022002F5B832516218494F2B48604FF032
:10362000010028BF4F2301F5805148601169C9038B
:10363000FCD4217843EA01235361D4E901131B012F
:1036400043EA0123617B0B43217B43EA41039360FF
:10365000E37BA17B1B0143EA4113617C0B43217C8B
:1036600043EA41035360A37C13B16FF4D153536217
:1036700010BD00BF069C00080090005000100250D2
:10368000014B1880704700BFF2110020014B1880D9
:10369000704700BFF0110020B0F5207F38B577D01B
:1036A0000ED8B0F5007F61D003D890B3B0F5C07FDD
:1036B0002FD040F21231BDE838403D4805F03BB90B
:1036C000B0F5607FF5D13B4A4C1ED2F8FC5015F0A6
:1036D00080751EBFD2F8FC3023F08073C2F8FC3036
:1036E000032C04D940F2F221314805F024F9324A82
:1036F000D2F8803023F0300343EA0413C2F880305C
:1037000035B12C4AD2F8FC3043F08073C2F8FC305B
:1037100038BD4C1E012C0AD9102903D8274BCB40A9
:10372000DB0704D440F2C721214805F004F905F075
:10373000D6F905F0E2F94FF48031214B1E4A1967A2
:10374000136F23F4704343EA04331367FEF7D2FA8E
:103750000446FFF7DDF8C0F10201204605F0C7F985
:1037600000F040F8BDE83840FFF7DCBC4C1E1F2CD1
:1037700004D940F206310E4805F0DDF80E4AD2F8C1
:10378000903023F0F85343EA0463C2F89030BFE767
:103790004C1E012C04D94FF44371054805F0CBF8B9
:1037A000054A136F23F4806343EA84231367AFE76A
:1037B000069C000800ED00E00080005010010100B0
:1037C0000090005008B50121022000F049F805F0F2
:1037D00086F905F092F94FF48032014B1A6708BD63
:1037E0000090005008B54FF4C070FFF799FBBDE89A
:1037F00008400449884294BF012102214FF42070FF
:10380000FFF74ABF80F0FA02C3B24B2B10B5044653
:1038100004D94FF44D71074805F08DF8064B620945
:1038200053F8220004F01F04E040C04300F0010000
:1038300010BD00BF519C000800E100E0024A536B3C
:103840000342FCD1704700BF00400950034A017990
:10385000D36E23F030030B43D36670470040005013
:10386000F8B50446244BD3F88420D006FBD4D3F813
:103870008430C3F381139C423CD0FEF721FA012C23
:1038800005460BD11D4B984204D940F292711C4859
:1038900005F051F80121284605F029F905F047F90E
:1038A0004FF00072174B07465A66204605F04FF955
:1038B0004FF48063104E621E93403367736E9A011B
:1038C00003D4D6F884309B060AD5384605F033F980
:1038D000022C0FD12846BDE8F840002105F007B9B9
:1038E000D6F884309906E9D54FF4F461044805F020
:1038F00022F8E3E7F8BD00BF00400050005A620222
:103900009D9C00080060005010B50C4608B9FEF7F9
:10391000D7F9074B21461B783BB1064B984204D898
:103920000120BDE81040FFF79BBF0220F9E700BF70
:1039300063180020005A62024FF0004238B5244B51
:10394000244C5A664AF6CD33656C014605F00105F4
:10395000236428BB0120FFF771FF6368DB0715D5DF
:103960001D4B586008461D4B226BD2070CD4984261
:1039700008D1072415B1174B194A1A6405F0E8F865
:10398000204638BD0130EFE79842F2D00024F1E73D
:103990000132236B13F0080305D08A42F8D1E8E71F
:1039A00000220E49F5E78A42E3D020210A4A9162BB
:1039B0000121A2F5805251600649084A886A8006B2
:1039C00003D49342D5D00133F8E79342DDE700BF3B
:1039D00000900050004009500060095040420F0024
:1039E0003254FFFF4FF0004238B5164B01465A667D
:1039F0004AF6CD33144C154A656C236443780B208A
:103A00005B0043F00103D363FFF718FF63688A7814
:103A100023F4F87343EA02136360CA784B7943EAEC
:103A20000223A3600A798B7943EA02232361087891
:103A3000FFF782FFEB0744BF054B236405F088F8CE
:103A4000012038BD00900050004009500040005057
:103A50003254FFFF0F2870B5044605D940F62D619A
:103A6000124804F068FF0F244FF00042104B114938
:103A70005D6E03F580535A664AF6CD334E6C802056
:103A80000B64FFF7DBFE0B6A23F00F0323430B628B
:103A9000F30744BF084B0B64002DA2BF4FF0004258
:103AA000064B5A6605F054F870BD00BF9D9C000897
:103AB00000800050004009503254FFFF00A0005029
:103AC00010B505F04AF8042300F5805100F50052C6
:103AD0000B6113610B6113610B6113610B61136166
:103AE000202341F2020103610023C360836041612E
:103AF0004FF4A0218361836541620549C36103627C
:103B00008362C36243630365D164036310BD00BF76
:103B1000FF3F0D0338B5174B044698420D4607D0BA
:103B2000154B984204D04FF4B371144804F003FFCE
:103B300025B92046BDE8384005F00FB8012204F54C
:103B400080535A6040F6FF71204605F00F0205F0E1
:103B500000F8A263782104F0FCFF05F001036A0776
:103B600048BF43F00203A26C02F003029A42FAD16A
:103B700038BD00BF0000015B00000A50E89C00084F
:103B8000F8B505460C46164622B94FF409716B4844
:103B900004F0D1FE6A4B9D4202D19CB956240DE03F
:103BA000684B9D4247D040F22721644804F0C3FE91
:103BB00044B940F27631614804F0BDFE2046FFF77B
:103BC000AFF90446AB68D80745D5B44204D240F2F9
:103BD00031215A4804F0AFFEB4FBF6F46F68013CA3
:103BE000FF2C07F0010704D940F23921534804F0B3
:103BF000A2FE24064FB32821284604F0AAFFAB6C8E
:103C000099071CD1AB6CDA071BD4AE6C16F0020618
:103C100019D140F24621494804F08DFE284604F0AF
:103C20009CFF2B69314623F07F4323432B61BDE882
:103C3000F840FFF76FBF002CC4D15724BEE705261C
:103C4000ECE70926EAE70626E8E72B6923F07F433D
:103C500023432B61F8BD6B68012B04D040F259213E
:103C6000364804F068FEAB6DDB07AB6848BF7600F2
:103C700003F0E003402B42D009D893B1202B1AD097
:103C800040F29B21BDE8F8402C4804F054BE602B64
:103C900042D0802BF4D106EB4603A34247D8012340
:103CA0000DE0B6EB141F04D940F28121234804F043
:103CB00042FE102303E0B6EBD40F1AD80823734357
:103CC0006401B4FBF3F4204F203CB7EBC40F4FEA80
:103CD000C40604D240F2A621184804F02CFE28465F
:103CE0003E40012104F035FF2E63BDE8F84004F0AA
:103CF00030BF40F28621114804F01DFEDEE70623A6
:103D0000B4FBF3F3B34201D30623D8E740F28B218F
:103D10000A4804F010FEF7E7B6EB940F01D804232D
:103D2000CDE74FF42471054804F005FEF7E740F2B3
:103D30009521024804F0FFFDB1E700BFE89C0008B0
:103D40000000015B00000A50F8FF7F002DE9F04100
:103D50009846436804460E4617461BB140F6FF716D
:103D600004F0F7FE2046FFF7ABFEF189737B626932
:103D70000B43318A22F44C520B4322F00F021343BF
:103D80006361A168337E327B21F0804121F0E20142
:103D90001A430A4371690A43A260B2681AB9A26859
:103DA00042F00042A260F069002874D0857A027A5D
:103DB0006D04A16845EA82556C4A0A401543828821
:103DC00002F4C0421543427845EA8205427B45EA47
:103DD000C205827B45EA0215827845EA8225A56004
:103DE000D0E90421E5680A43614929400A43817901
:103DF00042EA8122C17942EA4122E26002785D49C9
:103E0000012A14D1E26842F00402E2608C4200F020
:103E10009180594A94420CBF01224FF0FF32520167
:103E200002F1A04242F2944102F5703214E0032AFA
:103E30007AD1E26842F00402E2608C4278D04E4AC5
:103E400094420CBF01224FF0FF3241F294415201E3
:103E500002F1A04202F5703202255550427A04F573
:103E600080518A621AB1E26842F40062E260C27A6A
:103E70005AB1E26842F40042E2603E4A94425BD1A9
:103E8000027B3E4902F00F024A67626AC17B22F060
:103E900003020A4362623FB197F8202004F5805084
:103EA000002A53D001220262B8F1000F27D004F596
:103EB000805113B14FF400438B652E4BB8F82200AC
:103EC0009C4298F821304ED02B4A94420DD10122C9
:103ED000112B34BF01270227294DB0F5006FAF54D5
:103EE00094BF01270227274DAF54A26D034322F44C
:103EF000F95222F01E021343A36501238B650521AD
:103F00002046FFF707FEB2681AB120467168FFF736
:103F100037FE20463178FFF7FDFDA36CDB4313F439
:103F2000405FFAD1BDE8F081023A012A85D96DE7F8
:103F300000228AE7002272E70F4A944201BF027B07
:103F40000E4902F00F02C1F880209EE7E16997F860
:103F5000222097F8215021F009012A430A4342F018
:103F60000102C261A0E70022B2E700BFE39BBDFFF0
:103F7000FFF9F0870000015B00000A500090035039
:103F80006618002064180020134B70B5984205464F
:103F90000C4606D0114B984203D07021104804F013
:103FA000CAFC1CB972210E4804F0C5FC237B802B8F
:103FB00003D176210A4804F0BEFC637B032B03D9AE
:103FC0007921074804F0B7FC002321462846BDE8C4
:103FD00070401A46FFF7BABE0000015B00000A50AD
:103FE000E89C00082B4B70B5984205460C4643D11F
:103FF00019B98C21284804F09EFC5620FFF7A2F83E
:104000000C2807D0A0F10903012B03D9A0F111035B
:10401000012B3AD8637B032B03D9AA211E4804F055
:104020008AFC237B802B03D0AC211B4804F083FC4B
:104030006369B3F1804F03D0AE21174804F07BFCD5
:10404000238A23F400539BB2B3F5805F03D0B021E1
:10405000114804F070FCA368013BB3F5165F03D36D
:10406000B2210D4804F067FC002321462846BDE834
:1040700070401A46FFF76ABE8A21074804F05BFCCD
:104080001CB98C21044804F056FC9E21024804F01F
:1040900052FCBFE70000015BE89C0008F8B57B4BD1
:1040A000044698420E4606D0794B984203D0DF2151
:1040B000784804F040FC1EB9E121764804F03BFC4E
:1040C000727BB3687AB1744A934203D9E321714891
:1040D00004F031FC3369C3B1DB7BB3B1E6216D4839
:1040E00004F029FC11E06D4A934203D9E9216948A3
:1040F00004F021FC336943B11A7F32B1B168684AD8
:104100005B7F914278D9042B78D86368356923B1F5
:1041100040F6FF71204604F01CFD2046FFF7D0FC5E
:104120002269737BB17B22F087020B43134343F078
:1041300080032361002D63D02369297F23F0F803D6
:1041400043EAC1132978EA7B0B43297943EA4113F7
:10415000697A43EA011343EA82132361E068D5E9EF
:10416000053720F0F0403B4320F470200343287BC8
:10417000697B43EA802343EAC133E360A368F07BB1
:1041800023F00303034343F00103A3606B88A0689B
:1041900003F4C0430343A360A368687943EA802320
:1041A000A360AB79EF79606A1B013F0203F07003F3
:1041B00007F4E06720F4772020F4EE603B430343EC
:1041C000287A000300F4E0400343687F000400F411
:1041D0007020034363626369307B23F00F03034362
:1041E00063616B89A36181BBC2B1284B9C4236D00D
:1041F000274B9C4244D011E0042B86D8F0216EE777
:10420000A368F27B23F00303134343F00103A3608D
:104210006369327B23F00F0313436361D6E9011214
:104220002046FFF7ADFC05212046FFF773FC28214F
:10423000204604F08EFC3378A36304F08AFCA36C60
:10424000DB4313F4405FFAD1F8BD104B9C420CD114
:10425000AB7B144903F00F034B67002ADED02B7CA5
:10426000104A03F00F031367D8E7094B9C42D5D1DE
:10427000AB7B0C4903F00F03C1F88030002ACDD08E
:104280002B7C084A03F00F03D367C7E70000015BEC
:1042900000000A50E89C0008002D3101809698002B
:1042A0003F4B4C00009003501F2970B504460D464B
:1042B000164603D99121064804F03DFB2EB104F5C2
:1042C00080540123AB40236070BD04F50054F8E72F
:1042D000369D0008032838B504460D4605D8094B1D
:1042E00033F81030CB40DB0704D440F22D410648B0
:1042F00004F021FB302301225C43044BAA401A51F5
:1043000038BD00BFCE9D0008489B000840D0035038
:10431000032838B504460D4605D8094B33F810304C
:10432000CB40DB0704D440F2FE31064804F003FB27
:10433000302301225C43044BAA401A5138BD00BF10
:10434000CE9D0008489B000840E003502DE9F84F3F
:10435000032807460E46144698469DF828A09DF867
:104360002C9005D8274B33F81030CB40DB0703D413
:10437000BF21254804F0DFFA86EA0403032B03D9A2
:10438000C121214804F0D7FA072C4FF0030506F0AD
:10439000030625D84FEA840B05FA0BF529461B487E
:1043A00007FA0BF204F002FC2946194806FA0BF250
:1043B00004F0FCFB424621461648FFF775FF5246C3
:1043C00021461548FFF770FF0123144AA340C2F8A5
:1043D000203421464A46BDE8F84F1148FFF764BF34
:1043E000A4F1080B4FEA8B0B05FA0BF529460D4893
:1043F00007FA0BF204F0DAFB29460B4806FA0BF237
:10440000D6E700BFCE9D0008819D000800C4035080
:1044100008C4035010C4035014C4035000E00350F8
:1044200024C4035004C403500CC4035003282DE9D2
:10443000F04104460D461746984605D81D4B33F803
:104440001030CB40DB0704D44FF4B0711A4804F0AD
:1044500072FA37B129462046B8F1000F20D0FFF795
:1044600039FF0F21072D04EB440688BFA5F108038F
:104470004FEA0616114895BFAB009B0004360C3678
:1044800007FA03F29940304404F090FB7FB92946C3
:104490002046B8F1000F06D0BDE8F041FFF71ABF83
:1044A000FFF736FFDDE7BDE8F041FFF731BFBDE8BC
:1044B000F08100BFCE9D0008819D000830C00350F0
:1044C00070B5194E054630420C4604D040F2AB118F
:1044D000164804F030FA344204D04FF4D771134830
:1044E00004F029FA124B2C40D3F8302422EA0502BA
:1044F000C3F83024D3F830241443C3F83044D3F83D
:104500002C242A43C3F82C240A4AD36E03F0300328
:10451000202B1FBFD36E23F0300343F01003D3666C
:10452000054BC3F8205470BDFFFF00F0819D0008CB
:1045300000C003500040005000E003502DE9F0415E
:10454000032805460F4614461E469DF8188005D8D8
:104550000F4B33F81030CB40DB0704D44FF49A7183
:104560000C4804F0E8F903223946284686F0010396
:10457000FFF75CFF0120103406FA04F1A040FFF7BA
:104580009FFF42462146BDE8F0410348FFF78CBE3D
:10459000CE9D0008819D000824C403504FF40012F2
:1045A0000B4B10B5C3F88020BFF34F8FBFF36F8F55
:1045B0000024FF22074B21465C6520209A625C6044
:1045C000FEF786FC2146BDE810402120FEF780BCA6
:1045D00000E100E000000450072838B504460D460D
:1045E00003DD7721084804F0A6F91F2C03D9912197
:1045F000064804F0A0F9064A064B002D08BF1346F2
:104600000122A2401A6038BDD69D0008369D0008E0
:10461000401004504020045010B5044618B99121B0
:104620001F4804F088F923781B0613F0604F03D06D
:1046300092211B4804F07FF9E3780F2B03D9A321C3
:10464000174804F078F901212020FEF741FC0121F0
:104650002120FEF73DFC0122124B5A6022781206FF
:104660009A606178A27842EA01429A61FF229A62D6
:1046700000229A631A644FF000425A654FF0FF32ED
:104680004FF4001103F500531A65074AC2F8801170
:10469000E3781B01DBB282F81533116010BD00BF57
:1046A000D69D00080000045000E100E02DE9F04133
:1046B0000126C3B2072805460C46904606FA03F6C3
:1046C00003DDEC21364804F036F91CB9ED213448FD
:1046D00004F031F9236823F47C1323F00F031BB19A
:1046E000F0212F4804F027F9A37A1B0413F47C0F60
:1046F00004D040F209112A4804F01DF9E37A1B05A1
:1047000013F07E6F04D040F20B11254804F013F92A
:10471000237B5B0513F0FE5F04D040F20D112048AF
:1047200004F009F91F4B204F1E65AB00226803F10E
:10473000A04303F588235A60302202FB0575637B92
:104740002B66E37AA27A1B0543EA0243227B43EA03
:104750004253EB6528F003032B6704F0EFF97B6D00
:1047600033437B65237A13B13B6C33433B64637AF9
:1047700013B1BB6B3343BB632279A37943EA024392
:10478000084A93616179E37943EA014307498B6100
:10479000054B56639E64BDE8F04104F0D5B900BFF7
:1047A000D69D000800200450000004500010045062
:1047B00010B50124C3B2072804FA03F404DD40F263
:1047C0009711074804F0B7F804F0B8F9054B5A6D93
:1047D00022EA04025A659C62BDE8104004F0B4B9B4
:1047E000D69D00080000045010B50124C3B207286C
:1047F00004FA03F404DD40F2B5110A4804F09BF812
:1048000004F09CF9084BDA6A224208D15B6B9C43A6
:104810000CBF0124002404F097F9204610BD0024A9
:10482000F9E700BFD69D00080000045070B50646A9
:104830000C46154622B940F28E210C4804F07BF854
:1048400024B94FF42070FEF76BFB04466D00013C69
:10485000B4FBF5F4064B250213EA042304D040F21E
:10486000B321024804F067F8F56170BD229E00088C
:10487000070080FF124B10B59842044604D040F266
:104880004241104804F057F8012104F58053596063
:1048900040F6AA6341F20502636100230A48A3605F
:1048A000E365E26004F500522361E361E364906430
:1048B0000348A365844204BF23656365516010BD4E
:1048C00000C00550229E0008FFFF010038B5294BAB
:1048D000044698420D4604D040F26931264804F05F
:1048E0002AF82046FFF7C6FF012204F580535A60DC
:1048F0002B8AA26843F001031343AA7B43EA822375
:10490000A360A3682A7D43EA4273A360AB7C5BB1DA
:10491000184B9C4202BFEA7CA3F51033C3F8C821B0
:10492000E36D43F08003E3652B7B2046D5E901125C
:1049300043F48053E360FFF779FF6B7B0BB11023E7
:1049400063616B7D1BB1A36843F48033A360AB7DCF
:104950001BB1A36843F40043A360EB7D2A7E1B07D1
:10496000120503F0E04302F4E0021343A3652B7841
:10497000636138BD00C00550229E0008034B5A6891
:10498000D20702D5DA69002AF9D1704700800A50AF
:10499000054B9A689107FCD45A689207F9D4DA69F2
:1049A000002AF6D1704700BF00800A5008B5FFF713
:1049B000E5FF0222014B1A6108BD00BF00800A50CA
:1049C00008B5FFF7E5FF0122024B03F580514A606D
:1049D0001A6108BD00800A5008B5044B59680129C6
:1049E00003D1FFF7E3FF024B596008BD00800A5076
:1049F00000A00A5010B5064CFFF7CAFF6368012BF0
:104A000003D1FFF7E9FFFFF7C3FF0378E36010BDB1
:104A100000800A50A8B94A680B78B2B94A7843EACC
:104A200042038A6812B1127843EA82138A7843EA11
:104A30008203CA6812B1127843EA4223054A93649A
:104A400070477F21044803F076BF127843EAC2031F
:104A5000E4E700BF00800A506F9E000810B9044BC5
:104A6000596470474FF48971024803F064BF00BF76
:104A700000900A506F9E000810B9044B59647047AB
:104A80004FF4A771024803F056BF00BF00A00A50C0
:104A90006F9E000810B9044B196470474FF4C5713C
:104AA000024803F048BF00BF00A00A506F9E0008F4
:104AB00008B510B9044B186C08BD044840F2C51184
:104AC00003F039FF0020F7E700800A506F9E0008CE
:104AD00008B520B949B101290AD0002008BD4FF41A
:104AE0001D71054803F027FFF7E7044BD86CF5E785
:104AF000024B186DF2E700BF6F9E000800800A505D
:104B000018B939B1012908D0704740F21231044870
:104B100003F011BF034BDA647047024B1A6570470C
:104B20006F9E000800800A5007B5094B18689A88E4
:104B30009B7900906846ADF804208DF80630FEF7AA
:104B400051FF0C20FEF786FF002003B05DF804FB48
:104B5000CA9E000813B50024064A6846536F43F006
:104B60000103536700948DF80440FEF76FFE204662
:104B700002B010BD0040005030B58BB06C46174DF0
:104B80000FCD0FC40FCD0FC495E8030084E80300D8
:104B9000134BD3F84C2112031CD5A3F5FE431C88FC
:104BA0004FF6FF739C4208BF8C248DF81940FEF726
:104BB000FFFC204480F308008DF818000948FDF739
:104BC000B5F86846FEF7E2FB3220FEF75FFD0020F5
:104BD0000BB030BDD3F85041E4B2E6E7D49E0008F4
:104BE0000080E00FC017530230B5094D87B001AC0B
:104BF0000FCD0FC42B6801A823603F238DF805302B
:104C0000FEF7DCFC3220FEF73BFD002007B030BD94
:104C1000FC9E00086FF00403502110B50A480B4CAD
:104C200013F0800F03F1010207D123444C2A83F8CB
:104C300000131346F4D1002010BD03F00F03043B12
:104C4000034419761346EBE700ED00E000E100E0D5
:104C500010B5044603F06BFF024B1C6003F06BFFC2
:104C6000002010BDDC16002010B503F060FF034BE0
:104C70001C6803F060FF204610BD00BFDC1600205A
:104C80002DE9F0438DB01C4606AB06468946184612
:104C9000174600211822149D04F0F7FA22790346E2
:104CA0000AB18DF81820FB6163794FF00108C3F158
:104CB0000203DBB2CDE90333764B30460293764BE9
:104CC0004A460193002329460093744B8DF81E80B9
:104CD00000F0FAFA0646002840F0AF80A36841468B
:104CE000EB63E3693A20EB64237E85F8483063691F
:104CF0006B64237C85F84030636A6B6594F82030E0
:104D000085F85030E36AEB6594F8283085F8583020
:104D10002368AB63FEF7DCF8434604226169207C1C
:104D2000FFF784FB43460222E169207EFFF77EFB0A
:104D30003E7085F860604146A068FEF7C9F8637967
:104D4000002B32D141463620FEF7C2F8A368562B1D
:104D500002D0B3F5A06F08D1514AD2F8203223F027
:104D6000070343F00303C2F8203239462068FFF7F7
:104D700039F91021E2684B4B676903EB4210C0F828
:104D80009414217C253241EA0741C0F8AC14217EFD
:104D9000E06903EB421341EA004159602379032B98
:104DA00075D8DFE803F041244E6E3D4AD2F8283131
:104DB00023F0070343F00103C2F82831A368562B00
:104DC00002D0B3F5A06F07D1D2F8203223F0070349
:104DD00043F00103C2F8203239462068FFF7D4F8C7
:104DE00095F8603043F0040385F86030C1E7002790
:104DF00095F8603043F0010385F86030022200230B
:104E0000616A94F82000FFF711FB616A94F8202092
:104E1000E36842EA014241F29C415B0103F1A04395
:104E200003F570335A5097B90422AB6B052103F593
:104E3000805320681A65FEF76DFE30460DB0BDE860
:104E4000F08395F8603043F0020385F8603000236A
:104E50000422E16A94F82800FFF7E8FA41F294424C
:104E60000221E3685B0103F1A04303F5703399501D
:104E700094F82820E16A03F5A55342EA01421A603A
:104E8000D2E795F86030012743F00303B4E7232607
:104E9000D3E700BF338C0008A38C0008D38C000834
:104EA0000080005000C0035010B50020144603F0ED
:104EB00097FE022804D018B1C321024803F03BFD3D
:104EC000204610BD109F0008302238B5037A0446F2
:104ED000534303F1A04303F58023DD6ED0E90323A0
:104EE00013449D4201D8AA4204D94FF43E710548AB
:104EF00003F021FDD4E9030303449D4218BF284673
:104F000038BD00BF7A9F000830B51446054687B00B
:104F10001046FFF7D9FF6369024683423CBFD4E9DC
:104F200003315B181B1AABB11249049403910021A1
:104F3000CDE90131012300932846D4E9001303F0A1
:104F4000A5FD20B14FF434710B4803F0F4FC0020B0
:104F500007B030BD0122627694F82D20002AF6D0E9
:104F600084F835301321E369204698472046636A68
:104F70009847ECE7094F00087A9F00082DE9F047B1
:104F800088B004460F461646984603F0D7FD814682
:104F9000002E00F0AD80237E03F0FF02002B00F016
:104FA000E0802046FFF790FF63698246984206D171
:104FB000637E23B940F27F316B4803F0BCFC656926
:104FC000AA459DBFD4E903329B185D1BAAEB0505DA
:104FD000B54228BF354603F0B1FD94F82D30824626
:104FE000002B40F096802A463846616904F090F91B
:104FF00063692E462B4463612CE06069037803F0FB
:10500000FD01112940F08280216B884205D1A3F176
:1050100011014B424B4184F83430013E6369216BEE
:1050200001328B4203F1010308BF236363619542A0
:10503000E3D1D4E90323216B1344994208BF2263CF
:10504000216B8A4201D88B4204D84FF46D714648D7
:1050500003F071FCD4E9032361691344994208BF4A
:10506000626161698A4201D88B4204D84FF4717140
:105070003D4803F060FC0023207A6376FDF78CFA4C
:1050800020B140F21131384803F055FC2046FFF7BB
:105090001BFF636983423FD10023E568237694F8C0
:1050A0002D30656103B125632046636A98472F4B15
:1050B000049403930023029323692A460193012356
:1050C000009363682168207A03F0E0FC20B140F28D
:1050D0002D31254803F02FFC207AFDF77DFA20B111
:1050E00040F25131204803F026FC504603F02CFDDD
:1050F0004846C8F8006003F027FDD8F80030002BC0
:105100000CBF1B20002008B0BDE8F08707F8013B6A
:1051100084E72E4600228AE70123207A23760DF1C8
:105120001E01FDF7C1FA20B14FF450710E4803F093
:1051300002FC9DF81E30207A002BCDD00DF11F010E
:10514000FDF78AFA20B140F24631074803F0F3FB3D
:105150009DF81F10207A0029BED12246FFF7D4FE09
:10516000BAE71646C4E700BF7A9F0008094F000857
:1051700070B504460568FFF777FD844202D1002030
:10518000FFF766FD95F93630002B11DB012203F0A5
:105190001F015B099B0003F160438A4003F56143F3
:1051A000C3F88021C3F88020BFF34F8FBFF36F8F08
:1051B000287AFDF731FA20B14FF4ED71104803F071
:1051C000BAFB287AFDF78EF920B14FF4EF710C4845
:1051D00003F0B1FBFDF764F938B10A4B984204D0F3
:1051E0004FF4F171064803F0A6FB00232846C4E9FA
:1051F0000033C4E90433A360AB6ABDE870401847CC
:105200007A9F0008058000F02DE9F84304460D461A
:1052100090F82C80DFF8AC908E18AE4228D094F82D
:105220002D3083B103F08AFC237E07461BBB226B23
:1052300063699A4204D040F2F911484603F07BFBBF
:10524000384603F081FC94F83430002BE5D0B8F1F7
:10525000000F06D02B780A2B03D10D212046E369DD
:1052600098472046E36915F8011B98470028D4D0D9
:105270000020BDE8F8832046FFF726FEE1680138EC
:10528000884238BF2069D4F830C03CBF00F1FF30FD
:10529000401803469C450BD013F80129112A01D070
:1052A000132A07D1A2F111035A425A4184F834203B
:1052B0002063C5E7994282BF236903F1FF335B187E
:1052C000E8E700BF7A9F0008F0B50C460646154691
:1052D00087B03822002120461F4603F0D6FF95E80C
:1052E000030000232A692376EB6884E80300C4E9FD
:1052F00004232A7DE36084F82C20AA7D2363012304
:1053000084F8343084F835300C9B84F82D202362E7
:105310000D9BE76163620E9BA3622B7A84F83630A3
:10532000204B34607360204BB360204B3361204BC3
:105330007361204BF360FDF7FBF830B11E4B9842D0
:1053400003D01024204607B0F0BD002104F108006E
:10535000FDF776F80028F4D10127184B0494CDE925
:1053600002032369009701936368E2682168207A49
:1053700003F08CFB04460028E3D195F90830002B9C
:105380000BDB03F01F025B099B0003F160439740B6
:1053900003F56143C3F880711F603046FFF758FC86
:1053A000D0E700BF095200087D4F00088F8D00082C
:1053B000958D000871510008038000F0094F000826
:1053C00030B50E4C416123688BB9206083600DE0DD
:1053D000891A9A681D4641616AB113465A698A4220
:1053E000F6D935B1A860521A83605A6130BD0025E4
:1053F000F4E72060F7E798608260F7E7E81600209E
:1054000038B500F05FFA0025084B094C1A6823688C
:10541000C31A2AB123B15169994203D3C91A516100
:10542000206038BD55615B1A9268F2E7E8160020EB
:10543000E416002038B5134D2B685B6993B1124A0E
:10544000022014681C4403F0D3FC204600F042FA0A
:1054500000230E492A680B70D088800709D50123E4
:105460000B7038BD022003F0C3FC022000F080FA6C
:10547000EEE79268002AF4D050690344012BEBD97F
:10548000EFE700BFE8160020E416002069180020AE
:1054900070B516469DF81420C0E903360271049ACF
:1054A000BDF818300260002204460D468260C380B9
:1054B000EEB900F007FA2844A0619DB12E4603F032
:1054C00036FB0546FFF79CFF31462046FFF778FF85
:1054D000104B1B68A34201D1FFF7ACFF284603F035
:1054E0002AFB02E0E36865617BB9002070BD00F033
:1054F000E9F93044A061002DE0D1E3686561002B3B
:10550000DDD0204621689847D9E720462168984792
:10551000EBE700BFE816002000220C490B687BB1C6
:1055200083420AD183687AB1936083681BB15A6958
:1055300041690A445A61002070471A469B68EEE7A9
:105540000028EFD0022070470B60EEE7E81600203D
:1055500070B503F0F3FA144E05463478FCB9134BDA
:105560001C60134B1C60134B1C8000F079F9012068
:1055700003F03EFC03F05FFC0F4B0246186020B9BD
:10558000284603F0E1FA232070BD234640F2E731BC
:105590000A4800F0EFFE0A4B1860012333702846DA
:1055A00003F0D2FA0020EFE76A180020E816002086
:1055B000E416002038180020EC16002018FCFFFF2D
:1055C000E016002038B50C460546A8B1A1B100236D
:1055D0000B7003F0B3FA0121084B1B6833B903F0D9
:1055E000B3FA002038BD9D4204D121702278002AF0
:1055F000F9D0F4E79B68F1E72220F3E7E8160020F2
:1056000038B50021044640F2E730054B4FF47A727A
:105610001D680023E5FB040100F0ACFE38BD00BFAF
:10562000EC160020012300B58DB08DF80F30FFF788
:10563000E7FF00230146CDE90033074A0DF10F03D0
:1056400004A803F0ADFB18B99DF80F30002BFBD177
:105650000DB05DF804FB00BF9B8D0008F8B50C4B46
:1056600005461B680E4683420FD3002440F2E73004
:105670002146084B4FF47A721F680023E5FB0701AF
:1056800000F078FE30602046F8BD2120FCE700BF26
:10569000E0160020EC160020F0B51F46002387B06E
:1056A0000C46164605468DF8133050B30DF1130124
:1056B000FFF788FF9DF813302BBB204605A9FFF7A5
:1056C000CDFFE0B9114BE8831B6828465C434FF4DB
:1056D0007A73B4FBF3F203FB1244191B89B29942AB
:1056E00008BF0021BDF83430A983059A02939DF8C4
:1056F00030301146CDE900733346FFF7C9FE07B0DD
:10570000F0BD2220FBE70220F9E700BFEC160020E5
:10571000C2072DE9F04704460BD54D4A13880133E3
:105720009BB21380FFF76CFE4A4B1B680BB1FFF76F
:1057300081FEA30740F18A8003F000FA4FF00009D0
:1057400005464E46FFF75CFEC846424F3C680CB12A
:1057500063698BB10022404B012E1A7003D119F0FE
:10576000020F18BF1E70002C6CD0FFF763FE284696
:10577000BDE8F04703F0E8B923465A693AB91A7907
:105780002179914288BF1C469B68002BF5D12846A1
:1057900003F0DAF92569DDB100F094F8A269A0EB15
:1057A00002094FEAE9734D4578EB030311DA2369E7
:1057B0001344A361E368B4F80690013613B12046A0
:1057C0002168984703F0BAF90546FFF719FEBDE7CF
:1057D000A94603F0B3F982462046FFF79DFE5046E6
:1057E00003F0B2F92369002BE4D0B5EB09054FEAC9
:1057F000E97363EB4303002B04DA40F22B511748A3
:1058000003F099F8A38B33B1E28B13449BB2B3F549
:105810007A7F0FD2E38303F091F98146294620462F
:10582000FFF7CEFDA369226948461344A36103F044
:105830008BF9BFE7A3F57A73E383A369013D013BCD
:10584000A361E8E7022000F07DF890E7BDE8F0876B
:1058500038180020E816002068180020DA9F000899
:1058600010B50121002486B03E20ADF80810CDE926
:1058700003448DF804408DF80A400594FDF728FB99
:1058800001A8FFF7B7F8204602A98DF80840FFF7F6
:10589000C1F820460F21FFF7EFF80F212046FFF750
:1058A000F9F8FFF78DF8FFF769F80822034B9C61C0
:1058B000034BC3F888219A6006B010BD00800A50DF
:1058C00000E100E008B5FFF759F8014B986908BD01
:1058D00000800A50F8B5044603F029F90746FFF79F
:1058E0004DF8164B9D6903F07FFA06460020FFF73E
:1058F000DFF8830704D4731B032B01D8AE420FD10A
:105900000021631B022B98BFEC1C0846B4F1FF3F3B
:105910002CBF2246621EFFF7F3F8022003F068FA5C
:10592000384603F008F9064A137833B103498B6C03
:1059300043F001038B6400231370F8BD00800A500C
:10594000FE110020830700F0010109D50122064B5A
:1059500041F002011A70054A936C23F0010393642D
:105960000020FFF789B800BFFE11002000800A5018
:10597000830742BF0222014B1A64704700900A500D
:1059800010B50446FCF7B6F94FF47A729042B0FBBA
:10599000F2F105D23621BDE810400C4802F0CBBF31
:1059A0000B4BB3FBF1F30B49884201D93C21F2E7E1
:1059B00002FB04F0B0FBF3F0022806D9BDE810406A
:1059C0000323B0FBF3F0FAF7D3BB10BD39A00008F6
:1059D00040420F00E7CD9A3B81F0004102E000BF5A
:1059E00083F0004330B54FEA41044FEA430594EA9F
:1059F000050F08BF90EA020F1FBF54EA000C55EADA
:105A0000020C7FEA645C7FEA655C00F0E2804FEAAA
:105A10005454D4EB5555B8BF6D420CDD2C4480EA8C
:105A2000020281EA030382EA000083EA010180EABC
:105A3000020281EA0303362D88BF30BD11F0004F0A
:105A40004FEA01314FF4801C4CEA113102D0404240
:105A500061EB410113F0004F4FEA03334CEA13337B
:105A600002D0524263EB430394EA050F00F0A78093
:105A7000A4F10104D5F1200E0DDB02FA0EFC22FA8E
:105A800005F2801841F1000103FA0EF2801843FA82
:105A900005F359410EE0A5F120050EF1200E012A73
:105AA00003FA0EFC28BF4CF0020C43FA05F3C018B1
:105AB00051EBE37101F0004507D54FF0000EDCF12A
:105AC000000C7EEB00006EEB0101B1F5801F1BD3D3
:105AD000B1F5001F0CD349085FEA30004FEA3C0CD7
